
KartKode.elf:     file format elf32-littlearm

Sections:
Idx Name          Size      VMA       LMA       File off  Algn
  0 .isr_vector   00000188  08000000  08000000  00010000  2**0
                  CONTENTS, ALLOC, LOAD, READONLY, DATA
  1 .text         0000ce30  08000190  08000190  00010190  2**4
                  CONTENTS, ALLOC, LOAD, READONLY, CODE
  2 .rodata       00000288  0800cfc0  0800cfc0  0001cfc0  2**3
                  CONTENTS, ALLOC, LOAD, READONLY, DATA
  3 .ARM.extab    00000000  0800d248  0800d248  000201fc  2**0
                  CONTENTS
  4 .ARM          00000008  0800d248  0800d248  0001d248  2**2
                  CONTENTS, ALLOC, LOAD, READONLY, DATA
  5 .preinit_array 00000000  0800d250  0800d250  000201fc  2**0
                  CONTENTS, ALLOC, LOAD, DATA
  6 .init_array   00000004  0800d250  0800d250  0001d250  2**2
                  CONTENTS, ALLOC, LOAD, DATA
  7 .fini_array   00000004  0800d254  0800d254  0001d254  2**2
                  CONTENTS, ALLOC, LOAD, DATA
  8 .data         000001fc  20000000  0800d258  00020000  2**2
                  CONTENTS, ALLOC, LOAD, DATA
  9 .bss          0000112c  200001fc  0800d454  000201fc  2**2
                  ALLOC
 10 ._user_heap_stack 00000600  20001328  0800d454  00021328  2**0
                  ALLOC
 11 .ARM.attributes 00000030  00000000  00000000  000201fc  2**0
                  CONTENTS, READONLY
 12 .debug_info   000216f6  00000000  00000000  0002022c  2**0
                  CONTENTS, READONLY, DEBUGGING
 13 .debug_abbrev 000044eb  00000000  00000000  00041922  2**0
                  CONTENTS, READONLY, DEBUGGING
 14 .debug_aranges 00001a40  00000000  00000000  00045e10  2**3
                  CONTENTS, READONLY, DEBUGGING
 15 .debug_ranges 00001868  00000000  00000000  00047850  2**3
                  CONTENTS, READONLY, DEBUGGING
 16 .debug_macro  00026658  00000000  00000000  000490b8  2**0
                  CONTENTS, READONLY, DEBUGGING
 17 .debug_line   00017c49  00000000  00000000  0006f710  2**0
                  CONTENTS, READONLY, DEBUGGING
 18 .debug_str    000da976  00000000  00000000  00087359  2**0
                  CONTENTS, READONLY, DEBUGGING
 19 .comment      0000007b  00000000  00000000  00161ccf  2**0
                  CONTENTS, READONLY
 20 .debug_frame  00007968  00000000  00000000  00161d4c  2**2
                  CONTENTS, READONLY, DEBUGGING

Disassembly of section .text:

08000190 <__do_global_dtors_aux>:
 8000190:	b510      	push	{r4, lr}
 8000192:	4c05      	ldr	r4, [pc, #20]	; (80001a8 <__do_global_dtors_aux+0x18>)
 8000194:	7823      	ldrb	r3, [r4, #0]
 8000196:	b933      	cbnz	r3, 80001a6 <__do_global_dtors_aux+0x16>
 8000198:	4b04      	ldr	r3, [pc, #16]	; (80001ac <__do_global_dtors_aux+0x1c>)
 800019a:	b113      	cbz	r3, 80001a2 <__do_global_dtors_aux+0x12>
 800019c:	4804      	ldr	r0, [pc, #16]	; (80001b0 <__do_global_dtors_aux+0x20>)
 800019e:	f3af 8000 	nop.w
 80001a2:	2301      	movs	r3, #1
 80001a4:	7023      	strb	r3, [r4, #0]
 80001a6:	bd10      	pop	{r4, pc}
 80001a8:	200001fc 	.word	0x200001fc
 80001ac:	00000000 	.word	0x00000000
 80001b0:	0800cfa8 	.word	0x0800cfa8

080001b4 <frame_dummy>:
 80001b4:	b508      	push	{r3, lr}
 80001b6:	4b03      	ldr	r3, [pc, #12]	; (80001c4 <frame_dummy+0x10>)
 80001b8:	b11b      	cbz	r3, 80001c2 <frame_dummy+0xe>
 80001ba:	4903      	ldr	r1, [pc, #12]	; (80001c8 <frame_dummy+0x14>)
 80001bc:	4803      	ldr	r0, [pc, #12]	; (80001cc <frame_dummy+0x18>)
 80001be:	f3af 8000 	nop.w
 80001c2:	bd08      	pop	{r3, pc}
 80001c4:	00000000 	.word	0x00000000
 80001c8:	20000200 	.word	0x20000200
 80001cc:	0800cfa8 	.word	0x0800cfa8

080001d0 <strlen>:
 80001d0:	4603      	mov	r3, r0
 80001d2:	f813 2b01 	ldrb.w	r2, [r3], #1
 80001d6:	2a00      	cmp	r2, #0
 80001d8:	d1fb      	bne.n	80001d2 <strlen+0x2>
 80001da:	1a18      	subs	r0, r3, r0
 80001dc:	3801      	subs	r0, #1
 80001de:	4770      	bx	lr

080001e0 <memchr>:
 80001e0:	f001 01ff 	and.w	r1, r1, #255	; 0xff
 80001e4:	2a10      	cmp	r2, #16
 80001e6:	db2b      	blt.n	8000240 <memchr+0x60>
 80001e8:	f010 0f07 	tst.w	r0, #7
 80001ec:	d008      	beq.n	8000200 <memchr+0x20>
 80001ee:	f810 3b01 	ldrb.w	r3, [r0], #1
 80001f2:	3a01      	subs	r2, #1
 80001f4:	428b      	cmp	r3, r1
 80001f6:	d02d      	beq.n	8000254 <memchr+0x74>
 80001f8:	f010 0f07 	tst.w	r0, #7
 80001fc:	b342      	cbz	r2, 8000250 <memchr+0x70>
 80001fe:	d1f6      	bne.n	80001ee <memchr+0xe>
 8000200:	b4f0      	push	{r4, r5, r6, r7}
 8000202:	ea41 2101 	orr.w	r1, r1, r1, lsl #8
 8000206:	ea41 4101 	orr.w	r1, r1, r1, lsl #16
 800020a:	f022 0407 	bic.w	r4, r2, #7
 800020e:	f07f 0700 	mvns.w	r7, #0
 8000212:	2300      	movs	r3, #0
 8000214:	e8f0 5602 	ldrd	r5, r6, [r0], #8
 8000218:	3c08      	subs	r4, #8
 800021a:	ea85 0501 	eor.w	r5, r5, r1
 800021e:	ea86 0601 	eor.w	r6, r6, r1
 8000222:	fa85 f547 	uadd8	r5, r5, r7
 8000226:	faa3 f587 	sel	r5, r3, r7
 800022a:	fa86 f647 	uadd8	r6, r6, r7
 800022e:	faa5 f687 	sel	r6, r5, r7
 8000232:	b98e      	cbnz	r6, 8000258 <memchr+0x78>
 8000234:	d1ee      	bne.n	8000214 <memchr+0x34>
 8000236:	bcf0      	pop	{r4, r5, r6, r7}
 8000238:	f001 01ff 	and.w	r1, r1, #255	; 0xff
 800023c:	f002 0207 	and.w	r2, r2, #7
 8000240:	b132      	cbz	r2, 8000250 <memchr+0x70>
 8000242:	f810 3b01 	ldrb.w	r3, [r0], #1
 8000246:	3a01      	subs	r2, #1
 8000248:	ea83 0301 	eor.w	r3, r3, r1
 800024c:	b113      	cbz	r3, 8000254 <memchr+0x74>
 800024e:	d1f8      	bne.n	8000242 <memchr+0x62>
 8000250:	2000      	movs	r0, #0
 8000252:	4770      	bx	lr
 8000254:	3801      	subs	r0, #1
 8000256:	4770      	bx	lr
 8000258:	2d00      	cmp	r5, #0
 800025a:	bf06      	itte	eq
 800025c:	4635      	moveq	r5, r6
 800025e:	3803      	subeq	r0, #3
 8000260:	3807      	subne	r0, #7
 8000262:	f015 0f01 	tst.w	r5, #1
 8000266:	d107      	bne.n	8000278 <memchr+0x98>
 8000268:	3001      	adds	r0, #1
 800026a:	f415 7f80 	tst.w	r5, #256	; 0x100
 800026e:	bf02      	ittt	eq
 8000270:	3001      	addeq	r0, #1
 8000272:	f415 3fc0 	tsteq.w	r5, #98304	; 0x18000
 8000276:	3001      	addeq	r0, #1
 8000278:	bcf0      	pop	{r4, r5, r6, r7}
 800027a:	3801      	subs	r0, #1
 800027c:	4770      	bx	lr
 800027e:	bf00      	nop

08000280 <__aeabi_drsub>:
 8000280:	f081 4100 	eor.w	r1, r1, #2147483648	; 0x80000000
 8000284:	e002      	b.n	800028c <__adddf3>
 8000286:	bf00      	nop

08000288 <__aeabi_dsub>:
 8000288:	f083 4300 	eor.w	r3, r3, #2147483648	; 0x80000000

0800028c <__adddf3>:
 800028c:	b530      	push	{r4, r5, lr}
 800028e:	ea4f 0441 	mov.w	r4, r1, lsl #1
 8000292:	ea4f 0543 	mov.w	r5, r3, lsl #1
 8000296:	ea94 0f05 	teq	r4, r5
 800029a:	bf08      	it	eq
 800029c:	ea90 0f02 	teqeq	r0, r2
 80002a0:	bf1f      	itttt	ne
 80002a2:	ea54 0c00 	orrsne.w	ip, r4, r0
 80002a6:	ea55 0c02 	orrsne.w	ip, r5, r2
 80002aa:	ea7f 5c64 	mvnsne.w	ip, r4, asr #21
 80002ae:	ea7f 5c65 	mvnsne.w	ip, r5, asr #21
 80002b2:	f000 80e2 	beq.w	800047a <__adddf3+0x1ee>
 80002b6:	ea4f 5454 	mov.w	r4, r4, lsr #21
 80002ba:	ebd4 5555 	rsbs	r5, r4, r5, lsr #21
 80002be:	bfb8      	it	lt
 80002c0:	426d      	neglt	r5, r5
 80002c2:	dd0c      	ble.n	80002de <__adddf3+0x52>
 80002c4:	442c      	add	r4, r5
 80002c6:	ea80 0202 	eor.w	r2, r0, r2
 80002ca:	ea81 0303 	eor.w	r3, r1, r3
 80002ce:	ea82 0000 	eor.w	r0, r2, r0
 80002d2:	ea83 0101 	eor.w	r1, r3, r1
 80002d6:	ea80 0202 	eor.w	r2, r0, r2
 80002da:	ea81 0303 	eor.w	r3, r1, r3
 80002de:	2d36      	cmp	r5, #54	; 0x36
 80002e0:	bf88      	it	hi
 80002e2:	bd30      	pophi	{r4, r5, pc}
 80002e4:	f011 4f00 	tst.w	r1, #2147483648	; 0x80000000
 80002e8:	ea4f 3101 	mov.w	r1, r1, lsl #12
 80002ec:	f44f 1c80 	mov.w	ip, #1048576	; 0x100000
 80002f0:	ea4c 3111 	orr.w	r1, ip, r1, lsr #12
 80002f4:	d002      	beq.n	80002fc <__adddf3+0x70>
 80002f6:	4240      	negs	r0, r0
 80002f8:	eb61 0141 	sbc.w	r1, r1, r1, lsl #1
 80002fc:	f013 4f00 	tst.w	r3, #2147483648	; 0x80000000
 8000300:	ea4f 3303 	mov.w	r3, r3, lsl #12
 8000304:	ea4c 3313 	orr.w	r3, ip, r3, lsr #12
 8000308:	d002      	beq.n	8000310 <__adddf3+0x84>
 800030a:	4252      	negs	r2, r2
 800030c:	eb63 0343 	sbc.w	r3, r3, r3, lsl #1
 8000310:	ea94 0f05 	teq	r4, r5
 8000314:	f000 80a7 	beq.w	8000466 <__adddf3+0x1da>
 8000318:	f1a4 0401 	sub.w	r4, r4, #1
 800031c:	f1d5 0e20 	rsbs	lr, r5, #32
 8000320:	db0d      	blt.n	800033e <__adddf3+0xb2>
 8000322:	fa02 fc0e 	lsl.w	ip, r2, lr
 8000326:	fa22 f205 	lsr.w	r2, r2, r5
 800032a:	1880      	adds	r0, r0, r2
 800032c:	f141 0100 	adc.w	r1, r1, #0
 8000330:	fa03 f20e 	lsl.w	r2, r3, lr
 8000334:	1880      	adds	r0, r0, r2
 8000336:	fa43 f305 	asr.w	r3, r3, r5
 800033a:	4159      	adcs	r1, r3
 800033c:	e00e      	b.n	800035c <__adddf3+0xd0>
 800033e:	f1a5 0520 	sub.w	r5, r5, #32
 8000342:	f10e 0e20 	add.w	lr, lr, #32
 8000346:	2a01      	cmp	r2, #1
 8000348:	fa03 fc0e 	lsl.w	ip, r3, lr
 800034c:	bf28      	it	cs
 800034e:	f04c 0c02 	orrcs.w	ip, ip, #2
 8000352:	fa43 f305 	asr.w	r3, r3, r5
 8000356:	18c0      	adds	r0, r0, r3
 8000358:	eb51 71e3 	adcs.w	r1, r1, r3, asr #31
 800035c:	f001 4500 	and.w	r5, r1, #2147483648	; 0x80000000
 8000360:	d507      	bpl.n	8000372 <__adddf3+0xe6>
 8000362:	f04f 0e00 	mov.w	lr, #0
 8000366:	f1dc 0c00 	rsbs	ip, ip, #0
 800036a:	eb7e 0000 	sbcs.w	r0, lr, r0
 800036e:	eb6e 0101 	sbc.w	r1, lr, r1
 8000372:	f5b1 1f80 	cmp.w	r1, #1048576	; 0x100000
 8000376:	d31b      	bcc.n	80003b0 <__adddf3+0x124>
 8000378:	f5b1 1f00 	cmp.w	r1, #2097152	; 0x200000
 800037c:	d30c      	bcc.n	8000398 <__adddf3+0x10c>
 800037e:	0849      	lsrs	r1, r1, #1
 8000380:	ea5f 0030 	movs.w	r0, r0, rrx
 8000384:	ea4f 0c3c 	mov.w	ip, ip, rrx
 8000388:	f104 0401 	add.w	r4, r4, #1
 800038c:	ea4f 5244 	mov.w	r2, r4, lsl #21
 8000390:	f512 0f80 	cmn.w	r2, #4194304	; 0x400000
 8000394:	f080 809a 	bcs.w	80004cc <__adddf3+0x240>
 8000398:	f1bc 4f00 	cmp.w	ip, #2147483648	; 0x80000000
 800039c:	bf08      	it	eq
 800039e:	ea5f 0c50 	movseq.w	ip, r0, lsr #1
 80003a2:	f150 0000 	adcs.w	r0, r0, #0
 80003a6:	eb41 5104 	adc.w	r1, r1, r4, lsl #20
 80003aa:	ea41 0105 	orr.w	r1, r1, r5
 80003ae:	bd30      	pop	{r4, r5, pc}
 80003b0:	ea5f 0c4c 	movs.w	ip, ip, lsl #1
 80003b4:	4140      	adcs	r0, r0
 80003b6:	eb41 0101 	adc.w	r1, r1, r1
 80003ba:	f411 1f80 	tst.w	r1, #1048576	; 0x100000
 80003be:	f1a4 0401 	sub.w	r4, r4, #1
 80003c2:	d1e9      	bne.n	8000398 <__adddf3+0x10c>
 80003c4:	f091 0f00 	teq	r1, #0
 80003c8:	bf04      	itt	eq
 80003ca:	4601      	moveq	r1, r0
 80003cc:	2000      	moveq	r0, #0
 80003ce:	fab1 f381 	clz	r3, r1
 80003d2:	bf08      	it	eq
 80003d4:	3320      	addeq	r3, #32
 80003d6:	f1a3 030b 	sub.w	r3, r3, #11
 80003da:	f1b3 0220 	subs.w	r2, r3, #32
 80003de:	da0c      	bge.n	80003fa <__adddf3+0x16e>
 80003e0:	320c      	adds	r2, #12
 80003e2:	dd08      	ble.n	80003f6 <__adddf3+0x16a>
 80003e4:	f102 0c14 	add.w	ip, r2, #20
 80003e8:	f1c2 020c 	rsb	r2, r2, #12
 80003ec:	fa01 f00c 	lsl.w	r0, r1, ip
 80003f0:	fa21 f102 	lsr.w	r1, r1, r2
 80003f4:	e00c      	b.n	8000410 <__adddf3+0x184>
 80003f6:	f102 0214 	add.w	r2, r2, #20
 80003fa:	bfd8      	it	le
 80003fc:	f1c2 0c20 	rsble	ip, r2, #32
 8000400:	fa01 f102 	lsl.w	r1, r1, r2
 8000404:	fa20 fc0c 	lsr.w	ip, r0, ip
 8000408:	bfdc      	itt	le
 800040a:	ea41 010c 	orrle.w	r1, r1, ip
 800040e:	4090      	lslle	r0, r2
 8000410:	1ae4      	subs	r4, r4, r3
 8000412:	bfa2      	ittt	ge
 8000414:	eb01 5104 	addge.w	r1, r1, r4, lsl #20
 8000418:	4329      	orrge	r1, r5
 800041a:	bd30      	popge	{r4, r5, pc}
 800041c:	ea6f 0404 	mvn.w	r4, r4
 8000420:	3c1f      	subs	r4, #31
 8000422:	da1c      	bge.n	800045e <__adddf3+0x1d2>
 8000424:	340c      	adds	r4, #12
 8000426:	dc0e      	bgt.n	8000446 <__adddf3+0x1ba>
 8000428:	f104 0414 	add.w	r4, r4, #20
 800042c:	f1c4 0220 	rsb	r2, r4, #32
 8000430:	fa20 f004 	lsr.w	r0, r0, r4
 8000434:	fa01 f302 	lsl.w	r3, r1, r2
 8000438:	ea40 0003 	orr.w	r0, r0, r3
 800043c:	fa21 f304 	lsr.w	r3, r1, r4
 8000440:	ea45 0103 	orr.w	r1, r5, r3
 8000444:	bd30      	pop	{r4, r5, pc}
 8000446:	f1c4 040c 	rsb	r4, r4, #12
 800044a:	f1c4 0220 	rsb	r2, r4, #32
 800044e:	fa20 f002 	lsr.w	r0, r0, r2
 8000452:	fa01 f304 	lsl.w	r3, r1, r4
 8000456:	ea40 0003 	orr.w	r0, r0, r3
 800045a:	4629      	mov	r1, r5
 800045c:	bd30      	pop	{r4, r5, pc}
 800045e:	fa21 f004 	lsr.w	r0, r1, r4
 8000462:	4629      	mov	r1, r5
 8000464:	bd30      	pop	{r4, r5, pc}
 8000466:	f094 0f00 	teq	r4, #0
 800046a:	f483 1380 	eor.w	r3, r3, #1048576	; 0x100000
 800046e:	bf06      	itte	eq
 8000470:	f481 1180 	eoreq.w	r1, r1, #1048576	; 0x100000
 8000474:	3401      	addeq	r4, #1
 8000476:	3d01      	subne	r5, #1
 8000478:	e74e      	b.n	8000318 <__adddf3+0x8c>
 800047a:	ea7f 5c64 	mvns.w	ip, r4, asr #21
 800047e:	bf18      	it	ne
 8000480:	ea7f 5c65 	mvnsne.w	ip, r5, asr #21
 8000484:	d029      	beq.n	80004da <__adddf3+0x24e>
 8000486:	ea94 0f05 	teq	r4, r5
 800048a:	bf08      	it	eq
 800048c:	ea90 0f02 	teqeq	r0, r2
 8000490:	d005      	beq.n	800049e <__adddf3+0x212>
 8000492:	ea54 0c00 	orrs.w	ip, r4, r0
 8000496:	bf04      	itt	eq
 8000498:	4619      	moveq	r1, r3
 800049a:	4610      	moveq	r0, r2
 800049c:	bd30      	pop	{r4, r5, pc}
 800049e:	ea91 0f03 	teq	r1, r3
 80004a2:	bf1e      	ittt	ne
 80004a4:	2100      	movne	r1, #0
 80004a6:	2000      	movne	r0, #0
 80004a8:	bd30      	popne	{r4, r5, pc}
 80004aa:	ea5f 5c54 	movs.w	ip, r4, lsr #21
 80004ae:	d105      	bne.n	80004bc <__adddf3+0x230>
 80004b0:	0040      	lsls	r0, r0, #1
 80004b2:	4149      	adcs	r1, r1
 80004b4:	bf28      	it	cs
 80004b6:	f041 4100 	orrcs.w	r1, r1, #2147483648	; 0x80000000
 80004ba:	bd30      	pop	{r4, r5, pc}
 80004bc:	f514 0480 	adds.w	r4, r4, #4194304	; 0x400000
 80004c0:	bf3c      	itt	cc
 80004c2:	f501 1180 	addcc.w	r1, r1, #1048576	; 0x100000
 80004c6:	bd30      	popcc	{r4, r5, pc}
 80004c8:	f001 4500 	and.w	r5, r1, #2147483648	; 0x80000000
 80004cc:	f045 41fe 	orr.w	r1, r5, #2130706432	; 0x7f000000
 80004d0:	f441 0170 	orr.w	r1, r1, #15728640	; 0xf00000
 80004d4:	f04f 0000 	mov.w	r0, #0
 80004d8:	bd30      	pop	{r4, r5, pc}
 80004da:	ea7f 5c64 	mvns.w	ip, r4, asr #21
 80004de:	bf1a      	itte	ne
 80004e0:	4619      	movne	r1, r3
 80004e2:	4610      	movne	r0, r2
 80004e4:	ea7f 5c65 	mvnseq.w	ip, r5, asr #21
 80004e8:	bf1c      	itt	ne
 80004ea:	460b      	movne	r3, r1
 80004ec:	4602      	movne	r2, r0
 80004ee:	ea50 3401 	orrs.w	r4, r0, r1, lsl #12
 80004f2:	bf06      	itte	eq
 80004f4:	ea52 3503 	orrseq.w	r5, r2, r3, lsl #12
 80004f8:	ea91 0f03 	teqeq	r1, r3
 80004fc:	f441 2100 	orrne.w	r1, r1, #524288	; 0x80000
 8000500:	bd30      	pop	{r4, r5, pc}
 8000502:	bf00      	nop

08000504 <__aeabi_ui2d>:
 8000504:	f090 0f00 	teq	r0, #0
 8000508:	bf04      	itt	eq
 800050a:	2100      	moveq	r1, #0
 800050c:	4770      	bxeq	lr
 800050e:	b530      	push	{r4, r5, lr}
 8000510:	f44f 6480 	mov.w	r4, #1024	; 0x400
 8000514:	f104 0432 	add.w	r4, r4, #50	; 0x32
 8000518:	f04f 0500 	mov.w	r5, #0
 800051c:	f04f 0100 	mov.w	r1, #0
 8000520:	e750      	b.n	80003c4 <__adddf3+0x138>
 8000522:	bf00      	nop

08000524 <__aeabi_i2d>:
 8000524:	f090 0f00 	teq	r0, #0
 8000528:	bf04      	itt	eq
 800052a:	2100      	moveq	r1, #0
 800052c:	4770      	bxeq	lr
 800052e:	b530      	push	{r4, r5, lr}
 8000530:	f44f 6480 	mov.w	r4, #1024	; 0x400
 8000534:	f104 0432 	add.w	r4, r4, #50	; 0x32
 8000538:	f010 4500 	ands.w	r5, r0, #2147483648	; 0x80000000
 800053c:	bf48      	it	mi
 800053e:	4240      	negmi	r0, r0
 8000540:	f04f 0100 	mov.w	r1, #0
 8000544:	e73e      	b.n	80003c4 <__adddf3+0x138>
 8000546:	bf00      	nop

08000548 <__aeabi_f2d>:
 8000548:	0042      	lsls	r2, r0, #1
 800054a:	ea4f 01e2 	mov.w	r1, r2, asr #3
 800054e:	ea4f 0131 	mov.w	r1, r1, rrx
 8000552:	ea4f 7002 	mov.w	r0, r2, lsl #28
 8000556:	bf1f      	itttt	ne
 8000558:	f012 437f 	andsne.w	r3, r2, #4278190080	; 0xff000000
 800055c:	f093 4f7f 	teqne	r3, #4278190080	; 0xff000000
 8000560:	f081 5160 	eorne.w	r1, r1, #939524096	; 0x38000000
 8000564:	4770      	bxne	lr
 8000566:	f032 427f 	bics.w	r2, r2, #4278190080	; 0xff000000
 800056a:	bf08      	it	eq
 800056c:	4770      	bxeq	lr
 800056e:	f093 4f7f 	teq	r3, #4278190080	; 0xff000000
 8000572:	bf04      	itt	eq
 8000574:	f441 2100 	orreq.w	r1, r1, #524288	; 0x80000
 8000578:	4770      	bxeq	lr
 800057a:	b530      	push	{r4, r5, lr}
 800057c:	f44f 7460 	mov.w	r4, #896	; 0x380
 8000580:	f001 4500 	and.w	r5, r1, #2147483648	; 0x80000000
 8000584:	f021 4100 	bic.w	r1, r1, #2147483648	; 0x80000000
 8000588:	e71c      	b.n	80003c4 <__adddf3+0x138>
 800058a:	bf00      	nop

0800058c <__aeabi_ul2d>:
 800058c:	ea50 0201 	orrs.w	r2, r0, r1
 8000590:	bf08      	it	eq
 8000592:	4770      	bxeq	lr
 8000594:	b530      	push	{r4, r5, lr}
 8000596:	f04f 0500 	mov.w	r5, #0
 800059a:	e00a      	b.n	80005b2 <__aeabi_l2d+0x16>

0800059c <__aeabi_l2d>:
 800059c:	ea50 0201 	orrs.w	r2, r0, r1
 80005a0:	bf08      	it	eq
 80005a2:	4770      	bxeq	lr
 80005a4:	b530      	push	{r4, r5, lr}
 80005a6:	f011 4500 	ands.w	r5, r1, #2147483648	; 0x80000000
 80005aa:	d502      	bpl.n	80005b2 <__aeabi_l2d+0x16>
 80005ac:	4240      	negs	r0, r0
 80005ae:	eb61 0141 	sbc.w	r1, r1, r1, lsl #1
 80005b2:	f44f 6480 	mov.w	r4, #1024	; 0x400
 80005b6:	f104 0432 	add.w	r4, r4, #50	; 0x32
 80005ba:	ea5f 5c91 	movs.w	ip, r1, lsr #22
 80005be:	f43f aed8 	beq.w	8000372 <__adddf3+0xe6>
 80005c2:	f04f 0203 	mov.w	r2, #3
 80005c6:	ea5f 0cdc 	movs.w	ip, ip, lsr #3
 80005ca:	bf18      	it	ne
 80005cc:	3203      	addne	r2, #3
 80005ce:	ea5f 0cdc 	movs.w	ip, ip, lsr #3
 80005d2:	bf18      	it	ne
 80005d4:	3203      	addne	r2, #3
 80005d6:	eb02 02dc 	add.w	r2, r2, ip, lsr #3
 80005da:	f1c2 0320 	rsb	r3, r2, #32
 80005de:	fa00 fc03 	lsl.w	ip, r0, r3
 80005e2:	fa20 f002 	lsr.w	r0, r0, r2
 80005e6:	fa01 fe03 	lsl.w	lr, r1, r3
 80005ea:	ea40 000e 	orr.w	r0, r0, lr
 80005ee:	fa21 f102 	lsr.w	r1, r1, r2
 80005f2:	4414      	add	r4, r2
 80005f4:	e6bd      	b.n	8000372 <__adddf3+0xe6>
 80005f6:	bf00      	nop

080005f8 <__aeabi_dmul>:
 80005f8:	b570      	push	{r4, r5, r6, lr}
 80005fa:	f04f 0cff 	mov.w	ip, #255	; 0xff
 80005fe:	f44c 6ce0 	orr.w	ip, ip, #1792	; 0x700
 8000602:	ea1c 5411 	ands.w	r4, ip, r1, lsr #20
 8000606:	bf1d      	ittte	ne
 8000608:	ea1c 5513 	andsne.w	r5, ip, r3, lsr #20
 800060c:	ea94 0f0c 	teqne	r4, ip
 8000610:	ea95 0f0c 	teqne	r5, ip
 8000614:	f000 f8de 	bleq	80007d4 <__aeabi_dmul+0x1dc>
 8000618:	442c      	add	r4, r5
 800061a:	ea81 0603 	eor.w	r6, r1, r3
 800061e:	ea21 514c 	bic.w	r1, r1, ip, lsl #21
 8000622:	ea23 534c 	bic.w	r3, r3, ip, lsl #21
 8000626:	ea50 3501 	orrs.w	r5, r0, r1, lsl #12
 800062a:	bf18      	it	ne
 800062c:	ea52 3503 	orrsne.w	r5, r2, r3, lsl #12
 8000630:	f441 1180 	orr.w	r1, r1, #1048576	; 0x100000
 8000634:	f443 1380 	orr.w	r3, r3, #1048576	; 0x100000
 8000638:	d038      	beq.n	80006ac <__aeabi_dmul+0xb4>
 800063a:	fba0 ce02 	umull	ip, lr, r0, r2
 800063e:	f04f 0500 	mov.w	r5, #0
 8000642:	fbe1 e502 	umlal	lr, r5, r1, r2
 8000646:	f006 4200 	and.w	r2, r6, #2147483648	; 0x80000000
 800064a:	fbe0 e503 	umlal	lr, r5, r0, r3
 800064e:	f04f 0600 	mov.w	r6, #0
 8000652:	fbe1 5603 	umlal	r5, r6, r1, r3
 8000656:	f09c 0f00 	teq	ip, #0
 800065a:	bf18      	it	ne
 800065c:	f04e 0e01 	orrne.w	lr, lr, #1
 8000660:	f1a4 04ff 	sub.w	r4, r4, #255	; 0xff
 8000664:	f5b6 7f00 	cmp.w	r6, #512	; 0x200
 8000668:	f564 7440 	sbc.w	r4, r4, #768	; 0x300
 800066c:	d204      	bcs.n	8000678 <__aeabi_dmul+0x80>
 800066e:	ea5f 0e4e 	movs.w	lr, lr, lsl #1
 8000672:	416d      	adcs	r5, r5
 8000674:	eb46 0606 	adc.w	r6, r6, r6
 8000678:	ea42 21c6 	orr.w	r1, r2, r6, lsl #11
 800067c:	ea41 5155 	orr.w	r1, r1, r5, lsr #21
 8000680:	ea4f 20c5 	mov.w	r0, r5, lsl #11
 8000684:	ea40 505e 	orr.w	r0, r0, lr, lsr #21
 8000688:	ea4f 2ece 	mov.w	lr, lr, lsl #11
 800068c:	f1b4 0cfd 	subs.w	ip, r4, #253	; 0xfd
 8000690:	bf88      	it	hi
 8000692:	f5bc 6fe0 	cmphi.w	ip, #1792	; 0x700
 8000696:	d81e      	bhi.n	80006d6 <__aeabi_dmul+0xde>
 8000698:	f1be 4f00 	cmp.w	lr, #2147483648	; 0x80000000
 800069c:	bf08      	it	eq
 800069e:	ea5f 0e50 	movseq.w	lr, r0, lsr #1
 80006a2:	f150 0000 	adcs.w	r0, r0, #0
 80006a6:	eb41 5104 	adc.w	r1, r1, r4, lsl #20
 80006aa:	bd70      	pop	{r4, r5, r6, pc}
 80006ac:	f006 4600 	and.w	r6, r6, #2147483648	; 0x80000000
 80006b0:	ea46 0101 	orr.w	r1, r6, r1
 80006b4:	ea40 0002 	orr.w	r0, r0, r2
 80006b8:	ea81 0103 	eor.w	r1, r1, r3
 80006bc:	ebb4 045c 	subs.w	r4, r4, ip, lsr #1
 80006c0:	bfc2      	ittt	gt
 80006c2:	ebd4 050c 	rsbsgt	r5, r4, ip
 80006c6:	ea41 5104 	orrgt.w	r1, r1, r4, lsl #20
 80006ca:	bd70      	popgt	{r4, r5, r6, pc}
 80006cc:	f441 1180 	orr.w	r1, r1, #1048576	; 0x100000
 80006d0:	f04f 0e00 	mov.w	lr, #0
 80006d4:	3c01      	subs	r4, #1
 80006d6:	f300 80ab 	bgt.w	8000830 <__aeabi_dmul+0x238>
 80006da:	f114 0f36 	cmn.w	r4, #54	; 0x36
 80006de:	bfde      	ittt	le
 80006e0:	2000      	movle	r0, #0
 80006e2:	f001 4100 	andle.w	r1, r1, #2147483648	; 0x80000000
 80006e6:	bd70      	pople	{r4, r5, r6, pc}
 80006e8:	f1c4 0400 	rsb	r4, r4, #0
 80006ec:	3c20      	subs	r4, #32
 80006ee:	da35      	bge.n	800075c <__aeabi_dmul+0x164>
 80006f0:	340c      	adds	r4, #12
 80006f2:	dc1b      	bgt.n	800072c <__aeabi_dmul+0x134>
 80006f4:	f104 0414 	add.w	r4, r4, #20
 80006f8:	f1c4 0520 	rsb	r5, r4, #32
 80006fc:	fa00 f305 	lsl.w	r3, r0, r5
 8000700:	fa20 f004 	lsr.w	r0, r0, r4
 8000704:	fa01 f205 	lsl.w	r2, r1, r5
 8000708:	ea40 0002 	orr.w	r0, r0, r2
 800070c:	f001 4200 	and.w	r2, r1, #2147483648	; 0x80000000
 8000710:	f021 4100 	bic.w	r1, r1, #2147483648	; 0x80000000
 8000714:	eb10 70d3 	adds.w	r0, r0, r3, lsr #31
 8000718:	fa21 f604 	lsr.w	r6, r1, r4
 800071c:	eb42 0106 	adc.w	r1, r2, r6
 8000720:	ea5e 0e43 	orrs.w	lr, lr, r3, lsl #1
 8000724:	bf08      	it	eq
 8000726:	ea20 70d3 	biceq.w	r0, r0, r3, lsr #31
 800072a:	bd70      	pop	{r4, r5, r6, pc}
 800072c:	f1c4 040c 	rsb	r4, r4, #12
 8000730:	f1c4 0520 	rsb	r5, r4, #32
 8000734:	fa00 f304 	lsl.w	r3, r0, r4
 8000738:	fa20 f005 	lsr.w	r0, r0, r5
 800073c:	fa01 f204 	lsl.w	r2, r1, r4
 8000740:	ea40 0002 	orr.w	r0, r0, r2
 8000744:	f001 4100 	and.w	r1, r1, #2147483648	; 0x80000000
 8000748:	eb10 70d3 	adds.w	r0, r0, r3, lsr #31
 800074c:	f141 0100 	adc.w	r1, r1, #0
 8000750:	ea5e 0e43 	orrs.w	lr, lr, r3, lsl #1
 8000754:	bf08      	it	eq
 8000756:	ea20 70d3 	biceq.w	r0, r0, r3, lsr #31
 800075a:	bd70      	pop	{r4, r5, r6, pc}
 800075c:	f1c4 0520 	rsb	r5, r4, #32
 8000760:	fa00 f205 	lsl.w	r2, r0, r5
 8000764:	ea4e 0e02 	orr.w	lr, lr, r2
 8000768:	fa20 f304 	lsr.w	r3, r0, r4
 800076c:	fa01 f205 	lsl.w	r2, r1, r5
 8000770:	ea43 0302 	orr.w	r3, r3, r2
 8000774:	fa21 f004 	lsr.w	r0, r1, r4
 8000778:	f001 4100 	and.w	r1, r1, #2147483648	; 0x80000000
 800077c:	fa21 f204 	lsr.w	r2, r1, r4
 8000780:	ea20 0002 	bic.w	r0, r0, r2
 8000784:	eb00 70d3 	add.w	r0, r0, r3, lsr #31
 8000788:	ea5e 0e43 	orrs.w	lr, lr, r3, lsl #1
 800078c:	bf08      	it	eq
 800078e:	ea20 70d3 	biceq.w	r0, r0, r3, lsr #31
 8000792:	bd70      	pop	{r4, r5, r6, pc}
 8000794:	f094 0f00 	teq	r4, #0
 8000798:	d10f      	bne.n	80007ba <__aeabi_dmul+0x1c2>
 800079a:	f001 4600 	and.w	r6, r1, #2147483648	; 0x80000000
 800079e:	0040      	lsls	r0, r0, #1
 80007a0:	eb41 0101 	adc.w	r1, r1, r1
 80007a4:	f411 1f80 	tst.w	r1, #1048576	; 0x100000
 80007a8:	bf08      	it	eq
 80007aa:	3c01      	subeq	r4, #1
 80007ac:	d0f7      	beq.n	800079e <__aeabi_dmul+0x1a6>
 80007ae:	ea41 0106 	orr.w	r1, r1, r6
 80007b2:	f095 0f00 	teq	r5, #0
 80007b6:	bf18      	it	ne
 80007b8:	4770      	bxne	lr
 80007ba:	f003 4600 	and.w	r6, r3, #2147483648	; 0x80000000
 80007be:	0052      	lsls	r2, r2, #1
 80007c0:	eb43 0303 	adc.w	r3, r3, r3
 80007c4:	f413 1f80 	tst.w	r3, #1048576	; 0x100000
 80007c8:	bf08      	it	eq
 80007ca:	3d01      	subeq	r5, #1
 80007cc:	d0f7      	beq.n	80007be <__aeabi_dmul+0x1c6>
 80007ce:	ea43 0306 	orr.w	r3, r3, r6
 80007d2:	4770      	bx	lr
 80007d4:	ea94 0f0c 	teq	r4, ip
 80007d8:	ea0c 5513 	and.w	r5, ip, r3, lsr #20
 80007dc:	bf18      	it	ne
 80007de:	ea95 0f0c 	teqne	r5, ip
 80007e2:	d00c      	beq.n	80007fe <__aeabi_dmul+0x206>
 80007e4:	ea50 0641 	orrs.w	r6, r0, r1, lsl #1
 80007e8:	bf18      	it	ne
 80007ea:	ea52 0643 	orrsne.w	r6, r2, r3, lsl #1
 80007ee:	d1d1      	bne.n	8000794 <__aeabi_dmul+0x19c>
 80007f0:	ea81 0103 	eor.w	r1, r1, r3
 80007f4:	f001 4100 	and.w	r1, r1, #2147483648	; 0x80000000
 80007f8:	f04f 0000 	mov.w	r0, #0
 80007fc:	bd70      	pop	{r4, r5, r6, pc}
 80007fe:	ea50 0641 	orrs.w	r6, r0, r1, lsl #1
 8000802:	bf06      	itte	eq
 8000804:	4610      	moveq	r0, r2
 8000806:	4619      	moveq	r1, r3
 8000808:	ea52 0643 	orrsne.w	r6, r2, r3, lsl #1
 800080c:	d019      	beq.n	8000842 <__aeabi_dmul+0x24a>
 800080e:	ea94 0f0c 	teq	r4, ip
 8000812:	d102      	bne.n	800081a <__aeabi_dmul+0x222>
 8000814:	ea50 3601 	orrs.w	r6, r0, r1, lsl #12
 8000818:	d113      	bne.n	8000842 <__aeabi_dmul+0x24a>
 800081a:	ea95 0f0c 	teq	r5, ip
 800081e:	d105      	bne.n	800082c <__aeabi_dmul+0x234>
 8000820:	ea52 3603 	orrs.w	r6, r2, r3, lsl #12
 8000824:	bf1c      	itt	ne
 8000826:	4610      	movne	r0, r2
 8000828:	4619      	movne	r1, r3
 800082a:	d10a      	bne.n	8000842 <__aeabi_dmul+0x24a>
 800082c:	ea81 0103 	eor.w	r1, r1, r3
 8000830:	f001 4100 	and.w	r1, r1, #2147483648	; 0x80000000
 8000834:	f041 41fe 	orr.w	r1, r1, #2130706432	; 0x7f000000
 8000838:	f441 0170 	orr.w	r1, r1, #15728640	; 0xf00000
 800083c:	f04f 0000 	mov.w	r0, #0
 8000840:	bd70      	pop	{r4, r5, r6, pc}
 8000842:	f041 41fe 	orr.w	r1, r1, #2130706432	; 0x7f000000
 8000846:	f441 0178 	orr.w	r1, r1, #16252928	; 0xf80000
 800084a:	bd70      	pop	{r4, r5, r6, pc}

0800084c <__aeabi_ddiv>:
 800084c:	b570      	push	{r4, r5, r6, lr}
 800084e:	f04f 0cff 	mov.w	ip, #255	; 0xff
 8000852:	f44c 6ce0 	orr.w	ip, ip, #1792	; 0x700
 8000856:	ea1c 5411 	ands.w	r4, ip, r1, lsr #20
 800085a:	bf1d      	ittte	ne
 800085c:	ea1c 5513 	andsne.w	r5, ip, r3, lsr #20
 8000860:	ea94 0f0c 	teqne	r4, ip
 8000864:	ea95 0f0c 	teqne	r5, ip
 8000868:	f000 f8a7 	bleq	80009ba <__aeabi_ddiv+0x16e>
 800086c:	eba4 0405 	sub.w	r4, r4, r5
 8000870:	ea81 0e03 	eor.w	lr, r1, r3
 8000874:	ea52 3503 	orrs.w	r5, r2, r3, lsl #12
 8000878:	ea4f 3101 	mov.w	r1, r1, lsl #12
 800087c:	f000 8088 	beq.w	8000990 <__aeabi_ddiv+0x144>
 8000880:	ea4f 3303 	mov.w	r3, r3, lsl #12
 8000884:	f04f 5580 	mov.w	r5, #268435456	; 0x10000000
 8000888:	ea45 1313 	orr.w	r3, r5, r3, lsr #4
 800088c:	ea43 6312 	orr.w	r3, r3, r2, lsr #24
 8000890:	ea4f 2202 	mov.w	r2, r2, lsl #8
 8000894:	ea45 1511 	orr.w	r5, r5, r1, lsr #4
 8000898:	ea45 6510 	orr.w	r5, r5, r0, lsr #24
 800089c:	ea4f 2600 	mov.w	r6, r0, lsl #8
 80008a0:	f00e 4100 	and.w	r1, lr, #2147483648	; 0x80000000
 80008a4:	429d      	cmp	r5, r3
 80008a6:	bf08      	it	eq
 80008a8:	4296      	cmpeq	r6, r2
 80008aa:	f144 04fd 	adc.w	r4, r4, #253	; 0xfd
 80008ae:	f504 7440 	add.w	r4, r4, #768	; 0x300
 80008b2:	d202      	bcs.n	80008ba <__aeabi_ddiv+0x6e>
 80008b4:	085b      	lsrs	r3, r3, #1
 80008b6:	ea4f 0232 	mov.w	r2, r2, rrx
 80008ba:	1ab6      	subs	r6, r6, r2
 80008bc:	eb65 0503 	sbc.w	r5, r5, r3
 80008c0:	085b      	lsrs	r3, r3, #1
 80008c2:	ea4f 0232 	mov.w	r2, r2, rrx
 80008c6:	f44f 1080 	mov.w	r0, #1048576	; 0x100000
 80008ca:	f44f 2c00 	mov.w	ip, #524288	; 0x80000
 80008ce:	ebb6 0e02 	subs.w	lr, r6, r2
 80008d2:	eb75 0e03 	sbcs.w	lr, r5, r3
 80008d6:	bf22      	ittt	cs
 80008d8:	1ab6      	subcs	r6, r6, r2
 80008da:	4675      	movcs	r5, lr
 80008dc:	ea40 000c 	orrcs.w	r0, r0, ip
 80008e0:	085b      	lsrs	r3, r3, #1
 80008e2:	ea4f 0232 	mov.w	r2, r2, rrx
 80008e6:	ebb6 0e02 	subs.w	lr, r6, r2
 80008ea:	eb75 0e03 	sbcs.w	lr, r5, r3
 80008ee:	bf22      	ittt	cs
 80008f0:	1ab6      	subcs	r6, r6, r2
 80008f2:	4675      	movcs	r5, lr
 80008f4:	ea40 005c 	orrcs.w	r0, r0, ip, lsr #1
 80008f8:	085b      	lsrs	r3, r3, #1
 80008fa:	ea4f 0232 	mov.w	r2, r2, rrx
 80008fe:	ebb6 0e02 	subs.w	lr, r6, r2
 8000902:	eb75 0e03 	sbcs.w	lr, r5, r3
 8000906:	bf22      	ittt	cs
 8000908:	1ab6      	subcs	r6, r6, r2
 800090a:	4675      	movcs	r5, lr
 800090c:	ea40 009c 	orrcs.w	r0, r0, ip, lsr #2
 8000910:	085b      	lsrs	r3, r3, #1
 8000912:	ea4f 0232 	mov.w	r2, r2, rrx
 8000916:	ebb6 0e02 	subs.w	lr, r6, r2
 800091a:	eb75 0e03 	sbcs.w	lr, r5, r3
 800091e:	bf22      	ittt	cs
 8000920:	1ab6      	subcs	r6, r6, r2
 8000922:	4675      	movcs	r5, lr
 8000924:	ea40 00dc 	orrcs.w	r0, r0, ip, lsr #3
 8000928:	ea55 0e06 	orrs.w	lr, r5, r6
 800092c:	d018      	beq.n	8000960 <__aeabi_ddiv+0x114>
 800092e:	ea4f 1505 	mov.w	r5, r5, lsl #4
 8000932:	ea45 7516 	orr.w	r5, r5, r6, lsr #28
 8000936:	ea4f 1606 	mov.w	r6, r6, lsl #4
 800093a:	ea4f 03c3 	mov.w	r3, r3, lsl #3
 800093e:	ea43 7352 	orr.w	r3, r3, r2, lsr #29
 8000942:	ea4f 02c2 	mov.w	r2, r2, lsl #3
 8000946:	ea5f 1c1c 	movs.w	ip, ip, lsr #4
 800094a:	d1c0      	bne.n	80008ce <__aeabi_ddiv+0x82>
 800094c:	f411 1f80 	tst.w	r1, #1048576	; 0x100000
 8000950:	d10b      	bne.n	800096a <__aeabi_ddiv+0x11e>
 8000952:	ea41 0100 	orr.w	r1, r1, r0
 8000956:	f04f 0000 	mov.w	r0, #0
 800095a:	f04f 4c00 	mov.w	ip, #2147483648	; 0x80000000
 800095e:	e7b6      	b.n	80008ce <__aeabi_ddiv+0x82>
 8000960:	f411 1f80 	tst.w	r1, #1048576	; 0x100000
 8000964:	bf04      	itt	eq
 8000966:	4301      	orreq	r1, r0
 8000968:	2000      	moveq	r0, #0
 800096a:	f1b4 0cfd 	subs.w	ip, r4, #253	; 0xfd
 800096e:	bf88      	it	hi
 8000970:	f5bc 6fe0 	cmphi.w	ip, #1792	; 0x700
 8000974:	f63f aeaf 	bhi.w	80006d6 <__aeabi_dmul+0xde>
 8000978:	ebb5 0c03 	subs.w	ip, r5, r3
 800097c:	bf04      	itt	eq
 800097e:	ebb6 0c02 	subseq.w	ip, r6, r2
 8000982:	ea5f 0c50 	movseq.w	ip, r0, lsr #1
 8000986:	f150 0000 	adcs.w	r0, r0, #0
 800098a:	eb41 5104 	adc.w	r1, r1, r4, lsl #20
 800098e:	bd70      	pop	{r4, r5, r6, pc}
 8000990:	f00e 4e00 	and.w	lr, lr, #2147483648	; 0x80000000
 8000994:	ea4e 3111 	orr.w	r1, lr, r1, lsr #12
 8000998:	eb14 045c 	adds.w	r4, r4, ip, lsr #1
 800099c:	bfc2      	ittt	gt
 800099e:	ebd4 050c 	rsbsgt	r5, r4, ip
 80009a2:	ea41 5104 	orrgt.w	r1, r1, r4, lsl #20
 80009a6:	bd70      	popgt	{r4, r5, r6, pc}
 80009a8:	f441 1180 	orr.w	r1, r1, #1048576	; 0x100000
 80009ac:	f04f 0e00 	mov.w	lr, #0
 80009b0:	3c01      	subs	r4, #1
 80009b2:	e690      	b.n	80006d6 <__aeabi_dmul+0xde>
 80009b4:	ea45 0e06 	orr.w	lr, r5, r6
 80009b8:	e68d      	b.n	80006d6 <__aeabi_dmul+0xde>
 80009ba:	ea0c 5513 	and.w	r5, ip, r3, lsr #20
 80009be:	ea94 0f0c 	teq	r4, ip
 80009c2:	bf08      	it	eq
 80009c4:	ea95 0f0c 	teqeq	r5, ip
 80009c8:	f43f af3b 	beq.w	8000842 <__aeabi_dmul+0x24a>
 80009cc:	ea94 0f0c 	teq	r4, ip
 80009d0:	d10a      	bne.n	80009e8 <__aeabi_ddiv+0x19c>
 80009d2:	ea50 3401 	orrs.w	r4, r0, r1, lsl #12
 80009d6:	f47f af34 	bne.w	8000842 <__aeabi_dmul+0x24a>
 80009da:	ea95 0f0c 	teq	r5, ip
 80009de:	f47f af25 	bne.w	800082c <__aeabi_dmul+0x234>
 80009e2:	4610      	mov	r0, r2
 80009e4:	4619      	mov	r1, r3
 80009e6:	e72c      	b.n	8000842 <__aeabi_dmul+0x24a>
 80009e8:	ea95 0f0c 	teq	r5, ip
 80009ec:	d106      	bne.n	80009fc <__aeabi_ddiv+0x1b0>
 80009ee:	ea52 3503 	orrs.w	r5, r2, r3, lsl #12
 80009f2:	f43f aefd 	beq.w	80007f0 <__aeabi_dmul+0x1f8>
 80009f6:	4610      	mov	r0, r2
 80009f8:	4619      	mov	r1, r3
 80009fa:	e722      	b.n	8000842 <__aeabi_dmul+0x24a>
 80009fc:	ea50 0641 	orrs.w	r6, r0, r1, lsl #1
 8000a00:	bf18      	it	ne
 8000a02:	ea52 0643 	orrsne.w	r6, r2, r3, lsl #1
 8000a06:	f47f aec5 	bne.w	8000794 <__aeabi_dmul+0x19c>
 8000a0a:	ea50 0441 	orrs.w	r4, r0, r1, lsl #1
 8000a0e:	f47f af0d 	bne.w	800082c <__aeabi_dmul+0x234>
 8000a12:	ea52 0543 	orrs.w	r5, r2, r3, lsl #1
 8000a16:	f47f aeeb 	bne.w	80007f0 <__aeabi_dmul+0x1f8>
 8000a1a:	e712      	b.n	8000842 <__aeabi_dmul+0x24a>

08000a1c <__gedf2>:
 8000a1c:	f04f 3cff 	mov.w	ip, #4294967295
 8000a20:	e006      	b.n	8000a30 <__cmpdf2+0x4>
 8000a22:	bf00      	nop

08000a24 <__ledf2>:
 8000a24:	f04f 0c01 	mov.w	ip, #1
 8000a28:	e002      	b.n	8000a30 <__cmpdf2+0x4>
 8000a2a:	bf00      	nop

08000a2c <__cmpdf2>:
 8000a2c:	f04f 0c01 	mov.w	ip, #1
 8000a30:	f84d cd04 	str.w	ip, [sp, #-4]!
 8000a34:	ea4f 0c41 	mov.w	ip, r1, lsl #1
 8000a38:	ea7f 5c6c 	mvns.w	ip, ip, asr #21
 8000a3c:	ea4f 0c43 	mov.w	ip, r3, lsl #1
 8000a40:	bf18      	it	ne
 8000a42:	ea7f 5c6c 	mvnsne.w	ip, ip, asr #21
 8000a46:	d01b      	beq.n	8000a80 <__cmpdf2+0x54>
 8000a48:	b001      	add	sp, #4
 8000a4a:	ea50 0c41 	orrs.w	ip, r0, r1, lsl #1
 8000a4e:	bf0c      	ite	eq
 8000a50:	ea52 0c43 	orrseq.w	ip, r2, r3, lsl #1
 8000a54:	ea91 0f03 	teqne	r1, r3
 8000a58:	bf02      	ittt	eq
 8000a5a:	ea90 0f02 	teqeq	r0, r2
 8000a5e:	2000      	moveq	r0, #0
 8000a60:	4770      	bxeq	lr
 8000a62:	f110 0f00 	cmn.w	r0, #0
 8000a66:	ea91 0f03 	teq	r1, r3
 8000a6a:	bf58      	it	pl
 8000a6c:	4299      	cmppl	r1, r3
 8000a6e:	bf08      	it	eq
 8000a70:	4290      	cmpeq	r0, r2
 8000a72:	bf2c      	ite	cs
 8000a74:	17d8      	asrcs	r0, r3, #31
 8000a76:	ea6f 70e3 	mvncc.w	r0, r3, asr #31
 8000a7a:	f040 0001 	orr.w	r0, r0, #1
 8000a7e:	4770      	bx	lr
 8000a80:	ea4f 0c41 	mov.w	ip, r1, lsl #1
 8000a84:	ea7f 5c6c 	mvns.w	ip, ip, asr #21
 8000a88:	d102      	bne.n	8000a90 <__cmpdf2+0x64>
 8000a8a:	ea50 3c01 	orrs.w	ip, r0, r1, lsl #12
 8000a8e:	d107      	bne.n	8000aa0 <__cmpdf2+0x74>
 8000a90:	ea4f 0c43 	mov.w	ip, r3, lsl #1
 8000a94:	ea7f 5c6c 	mvns.w	ip, ip, asr #21
 8000a98:	d1d6      	bne.n	8000a48 <__cmpdf2+0x1c>
 8000a9a:	ea52 3c03 	orrs.w	ip, r2, r3, lsl #12
 8000a9e:	d0d3      	beq.n	8000a48 <__cmpdf2+0x1c>
 8000aa0:	f85d 0b04 	ldr.w	r0, [sp], #4
 8000aa4:	4770      	bx	lr
 8000aa6:	bf00      	nop

08000aa8 <__aeabi_cdrcmple>:
 8000aa8:	4684      	mov	ip, r0
 8000aaa:	4610      	mov	r0, r2
 8000aac:	4662      	mov	r2, ip
 8000aae:	468c      	mov	ip, r1
 8000ab0:	4619      	mov	r1, r3
 8000ab2:	4663      	mov	r3, ip
 8000ab4:	e000      	b.n	8000ab8 <__aeabi_cdcmpeq>
 8000ab6:	bf00      	nop

08000ab8 <__aeabi_cdcmpeq>:
 8000ab8:	b501      	push	{r0, lr}
 8000aba:	f7ff ffb7 	bl	8000a2c <__cmpdf2>
 8000abe:	2800      	cmp	r0, #0
 8000ac0:	bf48      	it	mi
 8000ac2:	f110 0f00 	cmnmi.w	r0, #0
 8000ac6:	bd01      	pop	{r0, pc}

08000ac8 <__aeabi_dcmpeq>:
 8000ac8:	f84d ed08 	str.w	lr, [sp, #-8]!
 8000acc:	f7ff fff4 	bl	8000ab8 <__aeabi_cdcmpeq>
 8000ad0:	bf0c      	ite	eq
 8000ad2:	2001      	moveq	r0, #1
 8000ad4:	2000      	movne	r0, #0
 8000ad6:	f85d fb08 	ldr.w	pc, [sp], #8
 8000ada:	bf00      	nop

08000adc <__aeabi_dcmplt>:
 8000adc:	f84d ed08 	str.w	lr, [sp, #-8]!
 8000ae0:	f7ff ffea 	bl	8000ab8 <__aeabi_cdcmpeq>
 8000ae4:	bf34      	ite	cc
 8000ae6:	2001      	movcc	r0, #1
 8000ae8:	2000      	movcs	r0, #0
 8000aea:	f85d fb08 	ldr.w	pc, [sp], #8
 8000aee:	bf00      	nop

08000af0 <__aeabi_dcmple>:
 8000af0:	f84d ed08 	str.w	lr, [sp, #-8]!
 8000af4:	f7ff ffe0 	bl	8000ab8 <__aeabi_cdcmpeq>
 8000af8:	bf94      	ite	ls
 8000afa:	2001      	movls	r0, #1
 8000afc:	2000      	movhi	r0, #0
 8000afe:	f85d fb08 	ldr.w	pc, [sp], #8
 8000b02:	bf00      	nop

08000b04 <__aeabi_dcmpge>:
 8000b04:	f84d ed08 	str.w	lr, [sp, #-8]!
 8000b08:	f7ff ffce 	bl	8000aa8 <__aeabi_cdrcmple>
 8000b0c:	bf94      	ite	ls
 8000b0e:	2001      	movls	r0, #1
 8000b10:	2000      	movhi	r0, #0
 8000b12:	f85d fb08 	ldr.w	pc, [sp], #8
 8000b16:	bf00      	nop

08000b18 <__aeabi_dcmpgt>:
 8000b18:	f84d ed08 	str.w	lr, [sp, #-8]!
 8000b1c:	f7ff ffc4 	bl	8000aa8 <__aeabi_cdrcmple>
 8000b20:	bf34      	ite	cc
 8000b22:	2001      	movcc	r0, #1
 8000b24:	2000      	movcs	r0, #0
 8000b26:	f85d fb08 	ldr.w	pc, [sp], #8
 8000b2a:	bf00      	nop

08000b2c <__aeabi_dcmpun>:
 8000b2c:	ea4f 0c41 	mov.w	ip, r1, lsl #1
 8000b30:	ea7f 5c6c 	mvns.w	ip, ip, asr #21
 8000b34:	d102      	bne.n	8000b3c <__aeabi_dcmpun+0x10>
 8000b36:	ea50 3c01 	orrs.w	ip, r0, r1, lsl #12
 8000b3a:	d10a      	bne.n	8000b52 <__aeabi_dcmpun+0x26>
 8000b3c:	ea4f 0c43 	mov.w	ip, r3, lsl #1
 8000b40:	ea7f 5c6c 	mvns.w	ip, ip, asr #21
 8000b44:	d102      	bne.n	8000b4c <__aeabi_dcmpun+0x20>
 8000b46:	ea52 3c03 	orrs.w	ip, r2, r3, lsl #12
 8000b4a:	d102      	bne.n	8000b52 <__aeabi_dcmpun+0x26>
 8000b4c:	f04f 0000 	mov.w	r0, #0
 8000b50:	4770      	bx	lr
 8000b52:	f04f 0001 	mov.w	r0, #1
 8000b56:	4770      	bx	lr

08000b58 <__aeabi_d2iz>:
 8000b58:	ea4f 0241 	mov.w	r2, r1, lsl #1
 8000b5c:	f512 1200 	adds.w	r2, r2, #2097152	; 0x200000
 8000b60:	d215      	bcs.n	8000b8e <__aeabi_d2iz+0x36>
 8000b62:	d511      	bpl.n	8000b88 <__aeabi_d2iz+0x30>
 8000b64:	f46f 7378 	mvn.w	r3, #992	; 0x3e0
 8000b68:	ebb3 5262 	subs.w	r2, r3, r2, asr #21
 8000b6c:	d912      	bls.n	8000b94 <__aeabi_d2iz+0x3c>
 8000b6e:	ea4f 23c1 	mov.w	r3, r1, lsl #11
 8000b72:	f043 4300 	orr.w	r3, r3, #2147483648	; 0x80000000
 8000b76:	ea43 5350 	orr.w	r3, r3, r0, lsr #21
 8000b7a:	f011 4f00 	tst.w	r1, #2147483648	; 0x80000000
 8000b7e:	fa23 f002 	lsr.w	r0, r3, r2
 8000b82:	bf18      	it	ne
 8000b84:	4240      	negne	r0, r0
 8000b86:	4770      	bx	lr
 8000b88:	f04f 0000 	mov.w	r0, #0
 8000b8c:	4770      	bx	lr
 8000b8e:	ea50 3001 	orrs.w	r0, r0, r1, lsl #12
 8000b92:	d105      	bne.n	8000ba0 <__aeabi_d2iz+0x48>
 8000b94:	f011 4000 	ands.w	r0, r1, #2147483648	; 0x80000000
 8000b98:	bf08      	it	eq
 8000b9a:	f06f 4000 	mvneq.w	r0, #2147483648	; 0x80000000
 8000b9e:	4770      	bx	lr
 8000ba0:	f04f 0000 	mov.w	r0, #0
 8000ba4:	4770      	bx	lr
 8000ba6:	bf00      	nop

08000ba8 <__aeabi_d2f>:
 8000ba8:	ea4f 0241 	mov.w	r2, r1, lsl #1
 8000bac:	f1b2 43e0 	subs.w	r3, r2, #1879048192	; 0x70000000
 8000bb0:	bf24      	itt	cs
 8000bb2:	f5b3 1c00 	subscs.w	ip, r3, #2097152	; 0x200000
 8000bb6:	f1dc 5cfe 	rsbscs	ip, ip, #532676608	; 0x1fc00000
 8000bba:	d90d      	bls.n	8000bd8 <__aeabi_d2f+0x30>
 8000bbc:	f001 4c00 	and.w	ip, r1, #2147483648	; 0x80000000
 8000bc0:	ea4f 02c0 	mov.w	r2, r0, lsl #3
 8000bc4:	ea4c 7050 	orr.w	r0, ip, r0, lsr #29
 8000bc8:	f1b2 4f00 	cmp.w	r2, #2147483648	; 0x80000000
 8000bcc:	eb40 0083 	adc.w	r0, r0, r3, lsl #2
 8000bd0:	bf08      	it	eq
 8000bd2:	f020 0001 	biceq.w	r0, r0, #1
 8000bd6:	4770      	bx	lr
 8000bd8:	f011 4f80 	tst.w	r1, #1073741824	; 0x40000000
 8000bdc:	d121      	bne.n	8000c22 <__aeabi_d2f+0x7a>
 8000bde:	f113 7238 	adds.w	r2, r3, #48234496	; 0x2e00000
 8000be2:	bfbc      	itt	lt
 8000be4:	f001 4000 	andlt.w	r0, r1, #2147483648	; 0x80000000
 8000be8:	4770      	bxlt	lr
 8000bea:	f441 1180 	orr.w	r1, r1, #1048576	; 0x100000
 8000bee:	ea4f 5252 	mov.w	r2, r2, lsr #21
 8000bf2:	f1c2 0218 	rsb	r2, r2, #24
 8000bf6:	f1c2 0c20 	rsb	ip, r2, #32
 8000bfa:	fa10 f30c 	lsls.w	r3, r0, ip
 8000bfe:	fa20 f002 	lsr.w	r0, r0, r2
 8000c02:	bf18      	it	ne
 8000c04:	f040 0001 	orrne.w	r0, r0, #1
 8000c08:	ea4f 23c1 	mov.w	r3, r1, lsl #11
 8000c0c:	ea4f 23d3 	mov.w	r3, r3, lsr #11
 8000c10:	fa03 fc0c 	lsl.w	ip, r3, ip
 8000c14:	ea40 000c 	orr.w	r0, r0, ip
 8000c18:	fa23 f302 	lsr.w	r3, r3, r2
 8000c1c:	ea4f 0343 	mov.w	r3, r3, lsl #1
 8000c20:	e7cc      	b.n	8000bbc <__aeabi_d2f+0x14>
 8000c22:	ea7f 5362 	mvns.w	r3, r2, asr #21
 8000c26:	d107      	bne.n	8000c38 <__aeabi_d2f+0x90>
 8000c28:	ea50 3301 	orrs.w	r3, r0, r1, lsl #12
 8000c2c:	bf1e      	ittt	ne
 8000c2e:	f04f 40fe 	movne.w	r0, #2130706432	; 0x7f000000
 8000c32:	f440 0040 	orrne.w	r0, r0, #12582912	; 0xc00000
 8000c36:	4770      	bxne	lr
 8000c38:	f001 4000 	and.w	r0, r1, #2147483648	; 0x80000000
 8000c3c:	f040 40fe 	orr.w	r0, r0, #2130706432	; 0x7f000000
 8000c40:	f440 0000 	orr.w	r0, r0, #8388608	; 0x800000
 8000c44:	4770      	bx	lr
 8000c46:	bf00      	nop

08000c48 <__aeabi_uldivmod>:
 8000c48:	b953      	cbnz	r3, 8000c60 <__aeabi_uldivmod+0x18>
 8000c4a:	b94a      	cbnz	r2, 8000c60 <__aeabi_uldivmod+0x18>
 8000c4c:	2900      	cmp	r1, #0
 8000c4e:	bf08      	it	eq
 8000c50:	2800      	cmpeq	r0, #0
 8000c52:	bf1c      	itt	ne
 8000c54:	f04f 31ff 	movne.w	r1, #4294967295
 8000c58:	f04f 30ff 	movne.w	r0, #4294967295
 8000c5c:	f000 b972 	b.w	8000f44 <__aeabi_idiv0>
 8000c60:	f1ad 0c08 	sub.w	ip, sp, #8
 8000c64:	e96d ce04 	strd	ip, lr, [sp, #-16]!
 8000c68:	f000 f806 	bl	8000c78 <__udivmoddi4>
 8000c6c:	f8dd e004 	ldr.w	lr, [sp, #4]
 8000c70:	e9dd 2302 	ldrd	r2, r3, [sp, #8]
 8000c74:	b004      	add	sp, #16
 8000c76:	4770      	bx	lr

08000c78 <__udivmoddi4>:
 8000c78:	e92d 47f0 	stmdb	sp!, {r4, r5, r6, r7, r8, r9, sl, lr}
 8000c7c:	9e08      	ldr	r6, [sp, #32]
 8000c7e:	4604      	mov	r4, r0
 8000c80:	4688      	mov	r8, r1
 8000c82:	2b00      	cmp	r3, #0
 8000c84:	d14b      	bne.n	8000d1e <__udivmoddi4+0xa6>
 8000c86:	428a      	cmp	r2, r1
 8000c88:	4615      	mov	r5, r2
 8000c8a:	d967      	bls.n	8000d5c <__udivmoddi4+0xe4>
 8000c8c:	fab2 f282 	clz	r2, r2
 8000c90:	b14a      	cbz	r2, 8000ca6 <__udivmoddi4+0x2e>
 8000c92:	f1c2 0720 	rsb	r7, r2, #32
 8000c96:	fa01 f302 	lsl.w	r3, r1, r2
 8000c9a:	fa20 f707 	lsr.w	r7, r0, r7
 8000c9e:	4095      	lsls	r5, r2
 8000ca0:	ea47 0803 	orr.w	r8, r7, r3
 8000ca4:	4094      	lsls	r4, r2
 8000ca6:	ea4f 4e15 	mov.w	lr, r5, lsr #16
 8000caa:	0c23      	lsrs	r3, r4, #16
 8000cac:	fbb8 f7fe 	udiv	r7, r8, lr
 8000cb0:	fa1f fc85 	uxth.w	ip, r5
 8000cb4:	fb0e 8817 	mls	r8, lr, r7, r8
 8000cb8:	ea43 4308 	orr.w	r3, r3, r8, lsl #16
 8000cbc:	fb07 f10c 	mul.w	r1, r7, ip
 8000cc0:	4299      	cmp	r1, r3
 8000cc2:	d909      	bls.n	8000cd8 <__udivmoddi4+0x60>
 8000cc4:	18eb      	adds	r3, r5, r3
 8000cc6:	f107 30ff 	add.w	r0, r7, #4294967295
 8000cca:	f080 811b 	bcs.w	8000f04 <__udivmoddi4+0x28c>
 8000cce:	4299      	cmp	r1, r3
 8000cd0:	f240 8118 	bls.w	8000f04 <__udivmoddi4+0x28c>
 8000cd4:	3f02      	subs	r7, #2
 8000cd6:	442b      	add	r3, r5
 8000cd8:	1a5b      	subs	r3, r3, r1
 8000cda:	b2a4      	uxth	r4, r4
 8000cdc:	fbb3 f0fe 	udiv	r0, r3, lr
 8000ce0:	fb0e 3310 	mls	r3, lr, r0, r3
 8000ce4:	ea44 4403 	orr.w	r4, r4, r3, lsl #16
 8000ce8:	fb00 fc0c 	mul.w	ip, r0, ip
 8000cec:	45a4      	cmp	ip, r4
 8000cee:	d909      	bls.n	8000d04 <__udivmoddi4+0x8c>
 8000cf0:	192c      	adds	r4, r5, r4
 8000cf2:	f100 33ff 	add.w	r3, r0, #4294967295
 8000cf6:	f080 8107 	bcs.w	8000f08 <__udivmoddi4+0x290>
 8000cfa:	45a4      	cmp	ip, r4
 8000cfc:	f240 8104 	bls.w	8000f08 <__udivmoddi4+0x290>
 8000d00:	3802      	subs	r0, #2
 8000d02:	442c      	add	r4, r5
 8000d04:	ea40 4007 	orr.w	r0, r0, r7, lsl #16
 8000d08:	eba4 040c 	sub.w	r4, r4, ip
 8000d0c:	2700      	movs	r7, #0
 8000d0e:	b11e      	cbz	r6, 8000d18 <__udivmoddi4+0xa0>
 8000d10:	40d4      	lsrs	r4, r2
 8000d12:	2300      	movs	r3, #0
 8000d14:	e9c6 4300 	strd	r4, r3, [r6]
 8000d18:	4639      	mov	r1, r7
 8000d1a:	e8bd 87f0 	ldmia.w	sp!, {r4, r5, r6, r7, r8, r9, sl, pc}
 8000d1e:	428b      	cmp	r3, r1
 8000d20:	d909      	bls.n	8000d36 <__udivmoddi4+0xbe>
 8000d22:	2e00      	cmp	r6, #0
 8000d24:	f000 80eb 	beq.w	8000efe <__udivmoddi4+0x286>
 8000d28:	2700      	movs	r7, #0
 8000d2a:	e9c6 0100 	strd	r0, r1, [r6]
 8000d2e:	4638      	mov	r0, r7
 8000d30:	4639      	mov	r1, r7
 8000d32:	e8bd 87f0 	ldmia.w	sp!, {r4, r5, r6, r7, r8, r9, sl, pc}
 8000d36:	fab3 f783 	clz	r7, r3
 8000d3a:	2f00      	cmp	r7, #0
 8000d3c:	d147      	bne.n	8000dce <__udivmoddi4+0x156>
 8000d3e:	428b      	cmp	r3, r1
 8000d40:	d302      	bcc.n	8000d48 <__udivmoddi4+0xd0>
 8000d42:	4282      	cmp	r2, r0
 8000d44:	f200 80fa 	bhi.w	8000f3c <__udivmoddi4+0x2c4>
 8000d48:	1a84      	subs	r4, r0, r2
 8000d4a:	eb61 0303 	sbc.w	r3, r1, r3
 8000d4e:	2001      	movs	r0, #1
 8000d50:	4698      	mov	r8, r3
 8000d52:	2e00      	cmp	r6, #0
 8000d54:	d0e0      	beq.n	8000d18 <__udivmoddi4+0xa0>
 8000d56:	e9c6 4800 	strd	r4, r8, [r6]
 8000d5a:	e7dd      	b.n	8000d18 <__udivmoddi4+0xa0>
 8000d5c:	b902      	cbnz	r2, 8000d60 <__udivmoddi4+0xe8>
 8000d5e:	deff      	udf	#255	; 0xff
 8000d60:	fab2 f282 	clz	r2, r2
 8000d64:	2a00      	cmp	r2, #0
 8000d66:	f040 808f 	bne.w	8000e88 <__udivmoddi4+0x210>
 8000d6a:	1b49      	subs	r1, r1, r5
 8000d6c:	ea4f 4e15 	mov.w	lr, r5, lsr #16
 8000d70:	fa1f f885 	uxth.w	r8, r5
 8000d74:	2701      	movs	r7, #1
 8000d76:	fbb1 fcfe 	udiv	ip, r1, lr
 8000d7a:	0c23      	lsrs	r3, r4, #16
 8000d7c:	fb0e 111c 	mls	r1, lr, ip, r1
 8000d80:	ea43 4301 	orr.w	r3, r3, r1, lsl #16
 8000d84:	fb08 f10c 	mul.w	r1, r8, ip
 8000d88:	4299      	cmp	r1, r3
 8000d8a:	d907      	bls.n	8000d9c <__udivmoddi4+0x124>
 8000d8c:	18eb      	adds	r3, r5, r3
 8000d8e:	f10c 30ff 	add.w	r0, ip, #4294967295
 8000d92:	d202      	bcs.n	8000d9a <__udivmoddi4+0x122>
 8000d94:	4299      	cmp	r1, r3
 8000d96:	f200 80cd 	bhi.w	8000f34 <__udivmoddi4+0x2bc>
 8000d9a:	4684      	mov	ip, r0
 8000d9c:	1a59      	subs	r1, r3, r1
 8000d9e:	b2a3      	uxth	r3, r4
 8000da0:	fbb1 f0fe 	udiv	r0, r1, lr
 8000da4:	fb0e 1410 	mls	r4, lr, r0, r1
 8000da8:	ea43 4404 	orr.w	r4, r3, r4, lsl #16
 8000dac:	fb08 f800 	mul.w	r8, r8, r0
 8000db0:	45a0      	cmp	r8, r4
 8000db2:	d907      	bls.n	8000dc4 <__udivmoddi4+0x14c>
 8000db4:	192c      	adds	r4, r5, r4
 8000db6:	f100 33ff 	add.w	r3, r0, #4294967295
 8000dba:	d202      	bcs.n	8000dc2 <__udivmoddi4+0x14a>
 8000dbc:	45a0      	cmp	r8, r4
 8000dbe:	f200 80b6 	bhi.w	8000f2e <__udivmoddi4+0x2b6>
 8000dc2:	4618      	mov	r0, r3
 8000dc4:	eba4 0408 	sub.w	r4, r4, r8
 8000dc8:	ea40 400c 	orr.w	r0, r0, ip, lsl #16
 8000dcc:	e79f      	b.n	8000d0e <__udivmoddi4+0x96>
 8000dce:	f1c7 0c20 	rsb	ip, r7, #32
 8000dd2:	40bb      	lsls	r3, r7
 8000dd4:	fa22 fe0c 	lsr.w	lr, r2, ip
 8000dd8:	ea4e 0e03 	orr.w	lr, lr, r3
 8000ddc:	fa01 f407 	lsl.w	r4, r1, r7
 8000de0:	fa20 f50c 	lsr.w	r5, r0, ip
 8000de4:	fa21 f30c 	lsr.w	r3, r1, ip
 8000de8:	ea4f 481e 	mov.w	r8, lr, lsr #16
 8000dec:	4325      	orrs	r5, r4
 8000dee:	fbb3 f9f8 	udiv	r9, r3, r8
 8000df2:	0c2c      	lsrs	r4, r5, #16
 8000df4:	fb08 3319 	mls	r3, r8, r9, r3
 8000df8:	fa1f fa8e 	uxth.w	sl, lr
 8000dfc:	ea44 4303 	orr.w	r3, r4, r3, lsl #16
 8000e00:	fb09 f40a 	mul.w	r4, r9, sl
 8000e04:	429c      	cmp	r4, r3
 8000e06:	fa02 f207 	lsl.w	r2, r2, r7
 8000e0a:	fa00 f107 	lsl.w	r1, r0, r7
 8000e0e:	d90b      	bls.n	8000e28 <__udivmoddi4+0x1b0>
 8000e10:	eb1e 0303 	adds.w	r3, lr, r3
 8000e14:	f109 30ff 	add.w	r0, r9, #4294967295
 8000e18:	f080 8087 	bcs.w	8000f2a <__udivmoddi4+0x2b2>
 8000e1c:	429c      	cmp	r4, r3
 8000e1e:	f240 8084 	bls.w	8000f2a <__udivmoddi4+0x2b2>
 8000e22:	f1a9 0902 	sub.w	r9, r9, #2
 8000e26:	4473      	add	r3, lr
 8000e28:	1b1b      	subs	r3, r3, r4
 8000e2a:	b2ad      	uxth	r5, r5
 8000e2c:	fbb3 f0f8 	udiv	r0, r3, r8
 8000e30:	fb08 3310 	mls	r3, r8, r0, r3
 8000e34:	ea45 4403 	orr.w	r4, r5, r3, lsl #16
 8000e38:	fb00 fa0a 	mul.w	sl, r0, sl
 8000e3c:	45a2      	cmp	sl, r4
 8000e3e:	d908      	bls.n	8000e52 <__udivmoddi4+0x1da>
 8000e40:	eb1e 0404 	adds.w	r4, lr, r4
 8000e44:	f100 33ff 	add.w	r3, r0, #4294967295
 8000e48:	d26b      	bcs.n	8000f22 <__udivmoddi4+0x2aa>
 8000e4a:	45a2      	cmp	sl, r4
 8000e4c:	d969      	bls.n	8000f22 <__udivmoddi4+0x2aa>
 8000e4e:	3802      	subs	r0, #2
 8000e50:	4474      	add	r4, lr
 8000e52:	ea40 4009 	orr.w	r0, r0, r9, lsl #16
 8000e56:	fba0 8902 	umull	r8, r9, r0, r2
 8000e5a:	eba4 040a 	sub.w	r4, r4, sl
 8000e5e:	454c      	cmp	r4, r9
 8000e60:	46c2      	mov	sl, r8
 8000e62:	464b      	mov	r3, r9
 8000e64:	d354      	bcc.n	8000f10 <__udivmoddi4+0x298>
 8000e66:	d051      	beq.n	8000f0c <__udivmoddi4+0x294>
 8000e68:	2e00      	cmp	r6, #0
 8000e6a:	d069      	beq.n	8000f40 <__udivmoddi4+0x2c8>
 8000e6c:	ebb1 050a 	subs.w	r5, r1, sl
 8000e70:	eb64 0403 	sbc.w	r4, r4, r3
 8000e74:	fa04 fc0c 	lsl.w	ip, r4, ip
 8000e78:	40fd      	lsrs	r5, r7
 8000e7a:	40fc      	lsrs	r4, r7
 8000e7c:	ea4c 0505 	orr.w	r5, ip, r5
 8000e80:	e9c6 5400 	strd	r5, r4, [r6]
 8000e84:	2700      	movs	r7, #0
 8000e86:	e747      	b.n	8000d18 <__udivmoddi4+0xa0>
 8000e88:	f1c2 0320 	rsb	r3, r2, #32
 8000e8c:	fa20 f703 	lsr.w	r7, r0, r3
 8000e90:	4095      	lsls	r5, r2
 8000e92:	fa01 f002 	lsl.w	r0, r1, r2
 8000e96:	fa21 f303 	lsr.w	r3, r1, r3
 8000e9a:	ea4f 4e15 	mov.w	lr, r5, lsr #16
 8000e9e:	4338      	orrs	r0, r7
 8000ea0:	0c01      	lsrs	r1, r0, #16
 8000ea2:	fbb3 f7fe 	udiv	r7, r3, lr
 8000ea6:	fa1f f885 	uxth.w	r8, r5
 8000eaa:	fb0e 3317 	mls	r3, lr, r7, r3
 8000eae:	ea41 4103 	orr.w	r1, r1, r3, lsl #16
 8000eb2:	fb07 f308 	mul.w	r3, r7, r8
 8000eb6:	428b      	cmp	r3, r1
 8000eb8:	fa04 f402 	lsl.w	r4, r4, r2
 8000ebc:	d907      	bls.n	8000ece <__udivmoddi4+0x256>
 8000ebe:	1869      	adds	r1, r5, r1
 8000ec0:	f107 3cff 	add.w	ip, r7, #4294967295
 8000ec4:	d22f      	bcs.n	8000f26 <__udivmoddi4+0x2ae>
 8000ec6:	428b      	cmp	r3, r1
 8000ec8:	d92d      	bls.n	8000f26 <__udivmoddi4+0x2ae>
 8000eca:	3f02      	subs	r7, #2
 8000ecc:	4429      	add	r1, r5
 8000ece:	1acb      	subs	r3, r1, r3
 8000ed0:	b281      	uxth	r1, r0
 8000ed2:	fbb3 f0fe 	udiv	r0, r3, lr
 8000ed6:	fb0e 3310 	mls	r3, lr, r0, r3
 8000eda:	ea41 4103 	orr.w	r1, r1, r3, lsl #16
 8000ede:	fb00 f308 	mul.w	r3, r0, r8
 8000ee2:	428b      	cmp	r3, r1
 8000ee4:	d907      	bls.n	8000ef6 <__udivmoddi4+0x27e>
 8000ee6:	1869      	adds	r1, r5, r1
 8000ee8:	f100 3cff 	add.w	ip, r0, #4294967295
 8000eec:	d217      	bcs.n	8000f1e <__udivmoddi4+0x2a6>
 8000eee:	428b      	cmp	r3, r1
 8000ef0:	d915      	bls.n	8000f1e <__udivmoddi4+0x2a6>
 8000ef2:	3802      	subs	r0, #2
 8000ef4:	4429      	add	r1, r5
 8000ef6:	1ac9      	subs	r1, r1, r3
 8000ef8:	ea40 4707 	orr.w	r7, r0, r7, lsl #16
 8000efc:	e73b      	b.n	8000d76 <__udivmoddi4+0xfe>
 8000efe:	4637      	mov	r7, r6
 8000f00:	4630      	mov	r0, r6
 8000f02:	e709      	b.n	8000d18 <__udivmoddi4+0xa0>
 8000f04:	4607      	mov	r7, r0
 8000f06:	e6e7      	b.n	8000cd8 <__udivmoddi4+0x60>
 8000f08:	4618      	mov	r0, r3
 8000f0a:	e6fb      	b.n	8000d04 <__udivmoddi4+0x8c>
 8000f0c:	4541      	cmp	r1, r8
 8000f0e:	d2ab      	bcs.n	8000e68 <__udivmoddi4+0x1f0>
 8000f10:	ebb8 0a02 	subs.w	sl, r8, r2
 8000f14:	eb69 020e 	sbc.w	r2, r9, lr
 8000f18:	3801      	subs	r0, #1
 8000f1a:	4613      	mov	r3, r2
 8000f1c:	e7a4      	b.n	8000e68 <__udivmoddi4+0x1f0>
 8000f1e:	4660      	mov	r0, ip
 8000f20:	e7e9      	b.n	8000ef6 <__udivmoddi4+0x27e>
 8000f22:	4618      	mov	r0, r3
 8000f24:	e795      	b.n	8000e52 <__udivmoddi4+0x1da>
 8000f26:	4667      	mov	r7, ip
 8000f28:	e7d1      	b.n	8000ece <__udivmoddi4+0x256>
 8000f2a:	4681      	mov	r9, r0
 8000f2c:	e77c      	b.n	8000e28 <__udivmoddi4+0x1b0>
 8000f2e:	3802      	subs	r0, #2
 8000f30:	442c      	add	r4, r5
 8000f32:	e747      	b.n	8000dc4 <__udivmoddi4+0x14c>
 8000f34:	f1ac 0c02 	sub.w	ip, ip, #2
 8000f38:	442b      	add	r3, r5
 8000f3a:	e72f      	b.n	8000d9c <__udivmoddi4+0x124>
 8000f3c:	4638      	mov	r0, r7
 8000f3e:	e708      	b.n	8000d52 <__udivmoddi4+0xda>
 8000f40:	4637      	mov	r7, r6
 8000f42:	e6e9      	b.n	8000d18 <__udivmoddi4+0xa0>

08000f44 <__aeabi_idiv0>:
 8000f44:	4770      	bx	lr
 8000f46:	bf00      	nop

08000f48 <HAL_GPIO_EXTI_Callback>:

extern float motor_current;
uint16_t schmitt_triggers = 0;
float shaft_frequency;

void HAL_GPIO_EXTI_Callback(uint16_t GPIO_Pin) {
 8000f48:	b480      	push	{r7}
 8000f4a:	b083      	sub	sp, #12
 8000f4c:	af00      	add	r7, sp, #0
 8000f4e:	4603      	mov	r3, r0
 8000f50:	80fb      	strh	r3, [r7, #6]
	schmitt_triggers++;
 8000f52:	4b06      	ldr	r3, [pc, #24]	; (8000f6c <HAL_GPIO_EXTI_Callback+0x24>)
 8000f54:	881b      	ldrh	r3, [r3, #0]
 8000f56:	3301      	adds	r3, #1
 8000f58:	b29a      	uxth	r2, r3
 8000f5a:	4b04      	ldr	r3, [pc, #16]	; (8000f6c <HAL_GPIO_EXTI_Callback+0x24>)
 8000f5c:	801a      	strh	r2, [r3, #0]
}
 8000f5e:	bf00      	nop
 8000f60:	370c      	adds	r7, #12
 8000f62:	46bd      	mov	sp, r7
 8000f64:	f85d 7b04 	ldr.w	r7, [sp], #4
 8000f68:	4770      	bx	lr
 8000f6a:	bf00      	nop
 8000f6c:	2000022c 	.word	0x2000022c

08000f70 <HAL_TIM_PeriodElapsedCallback>:
void HAL_TIM_PeriodElapsedCallback(TIM_HandleTypeDef* tim) {
 8000f70:	b590      	push	{r4, r7, lr}
 8000f72:	b083      	sub	sp, #12
 8000f74:	af00      	add	r7, sp, #0
 8000f76:	6078      	str	r0, [r7, #4]
	// there are two peaks from the two magnets (two north faces, two south faces) for each rotation. Timer goes off every 0.1seconds
	shaft_frequency = schmitt_triggers*10.0 / 2.0;
 8000f78:	4b1b      	ldr	r3, [pc, #108]	; (8000fe8 <HAL_TIM_PeriodElapsedCallback+0x78>)
 8000f7a:	881b      	ldrh	r3, [r3, #0]
 8000f7c:	4618      	mov	r0, r3
 8000f7e:	f7ff fad1 	bl	8000524 <__aeabi_i2d>
 8000f82:	f04f 0200 	mov.w	r2, #0
 8000f86:	4b19      	ldr	r3, [pc, #100]	; (8000fec <HAL_TIM_PeriodElapsedCallback+0x7c>)
 8000f88:	f7ff fb36 	bl	80005f8 <__aeabi_dmul>
 8000f8c:	4603      	mov	r3, r0
 8000f8e:	460c      	mov	r4, r1
 8000f90:	4618      	mov	r0, r3
 8000f92:	4621      	mov	r1, r4
 8000f94:	f04f 0200 	mov.w	r2, #0
 8000f98:	f04f 4380 	mov.w	r3, #1073741824	; 0x40000000
 8000f9c:	f7ff fc56 	bl	800084c <__aeabi_ddiv>
 8000fa0:	4603      	mov	r3, r0
 8000fa2:	460c      	mov	r4, r1
 8000fa4:	4618      	mov	r0, r3
 8000fa6:	4621      	mov	r1, r4
 8000fa8:	f7ff fdfe 	bl	8000ba8 <__aeabi_d2f>
 8000fac:	4602      	mov	r2, r0
 8000fae:	4b10      	ldr	r3, [pc, #64]	; (8000ff0 <HAL_TIM_PeriodElapsedCallback+0x80>)
 8000fb0:	601a      	str	r2, [r3, #0]
	schmitt_triggers = 0;
 8000fb2:	4b0d      	ldr	r3, [pc, #52]	; (8000fe8 <HAL_TIM_PeriodElapsedCallback+0x78>)
 8000fb4:	2200      	movs	r2, #0
 8000fb6:	801a      	strh	r2, [r3, #0]
	sprintf(msg, "%f Hz\r\n", shaft_frequency);
 8000fb8:	4b0d      	ldr	r3, [pc, #52]	; (8000ff0 <HAL_TIM_PeriodElapsedCallback+0x80>)
 8000fba:	681b      	ldr	r3, [r3, #0]
 8000fbc:	4618      	mov	r0, r3
 8000fbe:	f7ff fac3 	bl	8000548 <__aeabi_f2d>
 8000fc2:	4603      	mov	r3, r0
 8000fc4:	460c      	mov	r4, r1
 8000fc6:	461a      	mov	r2, r3
 8000fc8:	4623      	mov	r3, r4
 8000fca:	490a      	ldr	r1, [pc, #40]	; (8000ff4 <HAL_TIM_PeriodElapsedCallback+0x84>)
 8000fcc:	480a      	ldr	r0, [pc, #40]	; (8000ff8 <HAL_TIM_PeriodElapsedCallback+0x88>)
 8000fce:	f00a fccb 	bl	800b968 <siprintf>
	HAL_UART_Transmit(&huart2, (uint8_t*)msg, 20, 100);
 8000fd2:	2364      	movs	r3, #100	; 0x64
 8000fd4:	2214      	movs	r2, #20
 8000fd6:	4908      	ldr	r1, [pc, #32]	; (8000ff8 <HAL_TIM_PeriodElapsedCallback+0x88>)
 8000fd8:	4808      	ldr	r0, [pc, #32]	; (8000ffc <HAL_TIM_PeriodElapsedCallback+0x8c>)
 8000fda:	f006 f9c4 	bl	8007366 <HAL_UART_Transmit>
}
 8000fde:	bf00      	nop
 8000fe0:	370c      	adds	r7, #12
 8000fe2:	46bd      	mov	sp, r7
 8000fe4:	bd90      	pop	{r4, r7, pc}
 8000fe6:	bf00      	nop
 8000fe8:	2000022c 	.word	0x2000022c
 8000fec:	40240000 	.word	0x40240000
 8000ff0:	20000bb4 	.word	0x20000bb4
 8000ff4:	0800cfc0 	.word	0x0800cfc0
 8000ff8:	20000218 	.word	0x20000218
 8000ffc:	20000bb8 	.word	0x20000bb8

08001000 <main>:
/**
  * @brief  The application entry point.
  * @retval int
  */
int main(void)
{
 8001000:	b580      	push	{r7, lr}
 8001002:	af00      	add	r7, sp, #0
  /* USER CODE END 1 */

  /* MCU Configuration--------------------------------------------------------*/

  /* Reset of all peripherals, Initializes the Flash interface and the Systick. */
  HAL_Init();
 8001004:	f001 f816 	bl	8002034 <HAL_Init>
  /* USER CODE BEGIN Init */

  /* USER CODE END Init */

  /* Configure the system clock */
  SystemClock_Config();
 8001008:	f000 f82a 	bl	8001060 <SystemClock_Config>
  /* USER CODE BEGIN SysInit */

  /* USER CODE END SysInit */

  /* Initialize all configured peripherals */
  MX_GPIO_Init();
 800100c:	f000 fa82 	bl	8001514 <MX_GPIO_Init>
  MX_DMA_Init();
 8001010:	f000 fa60 	bl	80014d4 <MX_DMA_Init>
  MX_I2C1_Init();
 8001014:	f000 f910 	bl	8001238 <MX_I2C1_Init>
  MX_I2S3_Init();
 8001018:	f000 f93c 	bl	8001294 <MX_I2S3_Init>
  MX_SPI1_Init();
 800101c:	f000 f96a 	bl	80012f4 <MX_SPI1_Init>
  MX_USB_HOST_Init();
 8001020:	f009 fc44 	bl	800a8ac <MX_USB_HOST_Init>
  MX_TIM4_Init();
 8001024:	f000 f99c 	bl	8001360 <MX_TIM4_Init>
  MX_USART2_UART_Init();
 8001028:	f000 fa2a 	bl	8001480 <MX_USART2_UART_Init>
  MX_ADC1_Init();
 800102c:	f000 f89a 	bl	8001164 <MX_ADC1_Init>
  MX_TIM7_Init();
 8001030:	f000 f9f0 	bl	8001414 <MX_TIM7_Init>
  /* USER CODE BEGIN 2 */
  initialiseSenseMotorCurrent(&hadc1);
 8001034:	4807      	ldr	r0, [pc, #28]	; (8001054 <main+0x54>)
 8001036:	f000 fb9b 	bl	8001770 <initialiseSenseMotorCurrent>

  initialiseServoControl(&htim4);
 800103a:	4807      	ldr	r0, [pc, #28]	; (8001058 <main+0x58>)
 800103c:	f000 fc2a 	bl	8001894 <initialiseServoControl>
  setServoAngle(10);
 8001040:	eeb2 0a04 	vmov.f32	s0, #36	; 0x41200000  10.0
 8001044:	f000 fc3c 	bl	80018c0 <setServoAngle>

  HAL_TIM_Base_Start_IT(&htim7);
 8001048:	4804      	ldr	r0, [pc, #16]	; (800105c <main+0x5c>)
 800104a:	f005 fbb6 	bl	80067ba <HAL_TIM_Base_Start_IT>
  /* Infinite loop */
  /* USER CODE BEGIN WHILE */
  while (1)
  {
    /* USER CODE END WHILE */
    MX_USB_HOST_Process();
 800104e:	f009 fc53 	bl	800a8f8 <MX_USB_HOST_Process>
 8001052:	e7fc      	b.n	800104e <main+0x4e>
 8001054:	200002e0 	.word	0x200002e0
 8001058:	2000024c 	.word	0x2000024c
 800105c:	20000bfc 	.word	0x20000bfc

08001060 <SystemClock_Config>:
/**
  * @brief System Clock Configuration
  * @retval None
  */
void SystemClock_Config(void)
{
 8001060:	b580      	push	{r7, lr}
 8001062:	b098      	sub	sp, #96	; 0x60
 8001064:	af00      	add	r7, sp, #0
  RCC_OscInitTypeDef RCC_OscInitStruct = {0};
 8001066:	f107 0330 	add.w	r3, r7, #48	; 0x30
 800106a:	2230      	movs	r2, #48	; 0x30
 800106c:	2100      	movs	r1, #0
 800106e:	4618      	mov	r0, r3
 8001070:	f009 ff5e 	bl	800af30 <memset>
  RCC_ClkInitTypeDef RCC_ClkInitStruct = {0};
 8001074:	f107 031c 	add.w	r3, r7, #28
 8001078:	2200      	movs	r2, #0
 800107a:	601a      	str	r2, [r3, #0]
 800107c:	605a      	str	r2, [r3, #4]
 800107e:	609a      	str	r2, [r3, #8]
 8001080:	60da      	str	r2, [r3, #12]
 8001082:	611a      	str	r2, [r3, #16]
  RCC_PeriphCLKInitTypeDef PeriphClkInitStruct = {0};
 8001084:	f107 030c 	add.w	r3, r7, #12
 8001088:	2200      	movs	r2, #0
 800108a:	601a      	str	r2, [r3, #0]
 800108c:	605a      	str	r2, [r3, #4]
 800108e:	609a      	str	r2, [r3, #8]
 8001090:	60da      	str	r2, [r3, #12]

  /** Configure the main internal regulator output voltage
  */
  __HAL_RCC_PWR_CLK_ENABLE();
 8001092:	2300      	movs	r3, #0
 8001094:	60bb      	str	r3, [r7, #8]
 8001096:	4b31      	ldr	r3, [pc, #196]	; (800115c <SystemClock_Config+0xfc>)
 8001098:	6c1b      	ldr	r3, [r3, #64]	; 0x40
 800109a:	4a30      	ldr	r2, [pc, #192]	; (800115c <SystemClock_Config+0xfc>)
 800109c:	f043 5380 	orr.w	r3, r3, #268435456	; 0x10000000
 80010a0:	6413      	str	r3, [r2, #64]	; 0x40
 80010a2:	4b2e      	ldr	r3, [pc, #184]	; (800115c <SystemClock_Config+0xfc>)
 80010a4:	6c1b      	ldr	r3, [r3, #64]	; 0x40
 80010a6:	f003 5380 	and.w	r3, r3, #268435456	; 0x10000000
 80010aa:	60bb      	str	r3, [r7, #8]
 80010ac:	68bb      	ldr	r3, [r7, #8]
  __HAL_PWR_VOLTAGESCALING_CONFIG(PWR_REGULATOR_VOLTAGE_SCALE1);
 80010ae:	2300      	movs	r3, #0
 80010b0:	607b      	str	r3, [r7, #4]
 80010b2:	4b2b      	ldr	r3, [pc, #172]	; (8001160 <SystemClock_Config+0x100>)
 80010b4:	681b      	ldr	r3, [r3, #0]
 80010b6:	4a2a      	ldr	r2, [pc, #168]	; (8001160 <SystemClock_Config+0x100>)
 80010b8:	f443 4380 	orr.w	r3, r3, #16384	; 0x4000
 80010bc:	6013      	str	r3, [r2, #0]
 80010be:	4b28      	ldr	r3, [pc, #160]	; (8001160 <SystemClock_Config+0x100>)
 80010c0:	681b      	ldr	r3, [r3, #0]
 80010c2:	f403 4380 	and.w	r3, r3, #16384	; 0x4000
 80010c6:	607b      	str	r3, [r7, #4]
 80010c8:	687b      	ldr	r3, [r7, #4]
  /** Initializes the RCC Oscillators according to the specified parameters
  * in the RCC_OscInitTypeDef structure.
  */
  RCC_OscInitStruct.OscillatorType = RCC_OSCILLATORTYPE_HSE;
 80010ca:	2301      	movs	r3, #1
 80010cc:	633b      	str	r3, [r7, #48]	; 0x30
  RCC_OscInitStruct.HSEState = RCC_HSE_ON;
 80010ce:	f44f 3380 	mov.w	r3, #65536	; 0x10000
 80010d2:	637b      	str	r3, [r7, #52]	; 0x34
  RCC_OscInitStruct.PLL.PLLState = RCC_PLL_ON;
 80010d4:	2302      	movs	r3, #2
 80010d6:	64bb      	str	r3, [r7, #72]	; 0x48
  RCC_OscInitStruct.PLL.PLLSource = RCC_PLLSOURCE_HSE;
 80010d8:	f44f 0380 	mov.w	r3, #4194304	; 0x400000
 80010dc:	64fb      	str	r3, [r7, #76]	; 0x4c
  RCC_OscInitStruct.PLL.PLLM = 8;
 80010de:	2308      	movs	r3, #8
 80010e0:	653b      	str	r3, [r7, #80]	; 0x50
  RCC_OscInitStruct.PLL.PLLN = 336;
 80010e2:	f44f 73a8 	mov.w	r3, #336	; 0x150
 80010e6:	657b      	str	r3, [r7, #84]	; 0x54
  RCC_OscInitStruct.PLL.PLLP = RCC_PLLP_DIV2;
 80010e8:	2302      	movs	r3, #2
 80010ea:	65bb      	str	r3, [r7, #88]	; 0x58
  RCC_OscInitStruct.PLL.PLLQ = 7;
 80010ec:	2307      	movs	r3, #7
 80010ee:	65fb      	str	r3, [r7, #92]	; 0x5c
  if (HAL_RCC_OscConfig(&RCC_OscInitStruct) != HAL_OK)
 80010f0:	f107 0330 	add.w	r3, r7, #48	; 0x30
 80010f4:	4618      	mov	r0, r3
 80010f6:	f004 fd31 	bl	8005b5c <HAL_RCC_OscConfig>
 80010fa:	4603      	mov	r3, r0
 80010fc:	2b00      	cmp	r3, #0
 80010fe:	d001      	beq.n	8001104 <SystemClock_Config+0xa4>
  {
    Error_Handler();
 8001100:	f000 fb2e 	bl	8001760 <Error_Handler>
  }
  /** Initializes the CPU, AHB and APB buses clocks
  */
  RCC_ClkInitStruct.ClockType = RCC_CLOCKTYPE_HCLK|RCC_CLOCKTYPE_SYSCLK
 8001104:	230f      	movs	r3, #15
 8001106:	61fb      	str	r3, [r7, #28]
                              |RCC_CLOCKTYPE_PCLK1|RCC_CLOCKTYPE_PCLK2;
  RCC_ClkInitStruct.SYSCLKSource = RCC_SYSCLKSOURCE_PLLCLK;
 8001108:	2302      	movs	r3, #2
 800110a:	623b      	str	r3, [r7, #32]
  RCC_ClkInitStruct.AHBCLKDivider = RCC_SYSCLK_DIV1;
 800110c:	2300      	movs	r3, #0
 800110e:	627b      	str	r3, [r7, #36]	; 0x24
  RCC_ClkInitStruct.APB1CLKDivider = RCC_HCLK_DIV4;
 8001110:	f44f 53a0 	mov.w	r3, #5120	; 0x1400
 8001114:	62bb      	str	r3, [r7, #40]	; 0x28
  RCC_ClkInitStruct.APB2CLKDivider = RCC_HCLK_DIV2;
 8001116:	f44f 5380 	mov.w	r3, #4096	; 0x1000
 800111a:	62fb      	str	r3, [r7, #44]	; 0x2c

  if (HAL_RCC_ClockConfig(&RCC_ClkInitStruct, FLASH_LATENCY_5) != HAL_OK)
 800111c:	f107 031c 	add.w	r3, r7, #28
 8001120:	2105      	movs	r1, #5
 8001122:	4618      	mov	r0, r3
 8001124:	f004 ff8a 	bl	800603c <HAL_RCC_ClockConfig>
 8001128:	4603      	mov	r3, r0
 800112a:	2b00      	cmp	r3, #0
 800112c:	d001      	beq.n	8001132 <SystemClock_Config+0xd2>
  {
    Error_Handler();
 800112e:	f000 fb17 	bl	8001760 <Error_Handler>
  }
  PeriphClkInitStruct.PeriphClockSelection = RCC_PERIPHCLK_I2S;
 8001132:	2301      	movs	r3, #1
 8001134:	60fb      	str	r3, [r7, #12]
  PeriphClkInitStruct.PLLI2S.PLLI2SN = 192;
 8001136:	23c0      	movs	r3, #192	; 0xc0
 8001138:	613b      	str	r3, [r7, #16]
  PeriphClkInitStruct.PLLI2S.PLLI2SR = 2;
 800113a:	2302      	movs	r3, #2
 800113c:	617b      	str	r3, [r7, #20]
  if (HAL_RCCEx_PeriphCLKConfig(&PeriphClkInitStruct) != HAL_OK)
 800113e:	f107 030c 	add.w	r3, r7, #12
 8001142:	4618      	mov	r0, r3
 8001144:	f005 f96c 	bl	8006420 <HAL_RCCEx_PeriphCLKConfig>
 8001148:	4603      	mov	r3, r0
 800114a:	2b00      	cmp	r3, #0
 800114c:	d001      	beq.n	8001152 <SystemClock_Config+0xf2>
  {
    Error_Handler();
 800114e:	f000 fb07 	bl	8001760 <Error_Handler>
  }
}
 8001152:	bf00      	nop
 8001154:	3760      	adds	r7, #96	; 0x60
 8001156:	46bd      	mov	sp, r7
 8001158:	bd80      	pop	{r7, pc}
 800115a:	bf00      	nop
 800115c:	40023800 	.word	0x40023800
 8001160:	40007000 	.word	0x40007000

08001164 <MX_ADC1_Init>:
  * @brief ADC1 Initialization Function
  * @param None
  * @retval None
  */
static void MX_ADC1_Init(void)
{
 8001164:	b580      	push	{r7, lr}
 8001166:	b084      	sub	sp, #16
 8001168:	af00      	add	r7, sp, #0

  /* USER CODE BEGIN ADC1_Init 0 */

  /* USER CODE END ADC1_Init 0 */

  ADC_ChannelConfTypeDef sConfig = {0};
 800116a:	463b      	mov	r3, r7
 800116c:	2200      	movs	r2, #0
 800116e:	601a      	str	r2, [r3, #0]
 8001170:	605a      	str	r2, [r3, #4]
 8001172:	609a      	str	r2, [r3, #8]
 8001174:	60da      	str	r2, [r3, #12]
  /* USER CODE BEGIN ADC1_Init 1 */

  /* USER CODE END ADC1_Init 1 */
  /** Configure the global features of the ADC (Clock, Resolution, Data Alignment and number of conversion)
  */
  hadc1.Instance = ADC1;
 8001176:	4b2d      	ldr	r3, [pc, #180]	; (800122c <MX_ADC1_Init+0xc8>)
 8001178:	4a2d      	ldr	r2, [pc, #180]	; (8001230 <MX_ADC1_Init+0xcc>)
 800117a:	601a      	str	r2, [r3, #0]
  hadc1.Init.ClockPrescaler = ADC_CLOCK_SYNC_PCLK_DIV4;
 800117c:	4b2b      	ldr	r3, [pc, #172]	; (800122c <MX_ADC1_Init+0xc8>)
 800117e:	f44f 3280 	mov.w	r2, #65536	; 0x10000
 8001182:	605a      	str	r2, [r3, #4]
  hadc1.Init.Resolution = ADC_RESOLUTION_12B;
 8001184:	4b29      	ldr	r3, [pc, #164]	; (800122c <MX_ADC1_Init+0xc8>)
 8001186:	2200      	movs	r2, #0
 8001188:	609a      	str	r2, [r3, #8]
  hadc1.Init.ScanConvMode = DISABLE;
 800118a:	4b28      	ldr	r3, [pc, #160]	; (800122c <MX_ADC1_Init+0xc8>)
 800118c:	2200      	movs	r2, #0
 800118e:	611a      	str	r2, [r3, #16]
  hadc1.Init.ContinuousConvMode = ENABLE;
 8001190:	4b26      	ldr	r3, [pc, #152]	; (800122c <MX_ADC1_Init+0xc8>)
 8001192:	2201      	movs	r2, #1
 8001194:	761a      	strb	r2, [r3, #24]
  hadc1.Init.DiscontinuousConvMode = DISABLE;
 8001196:	4b25      	ldr	r3, [pc, #148]	; (800122c <MX_ADC1_Init+0xc8>)
 8001198:	2200      	movs	r2, #0
 800119a:	f883 2020 	strb.w	r2, [r3, #32]
  hadc1.Init.ExternalTrigConvEdge = ADC_EXTERNALTRIGCONVEDGE_NONE;
 800119e:	4b23      	ldr	r3, [pc, #140]	; (800122c <MX_ADC1_Init+0xc8>)
 80011a0:	2200      	movs	r2, #0
 80011a2:	62da      	str	r2, [r3, #44]	; 0x2c
  hadc1.Init.ExternalTrigConv = ADC_SOFTWARE_START;
 80011a4:	4b21      	ldr	r3, [pc, #132]	; (800122c <MX_ADC1_Init+0xc8>)
 80011a6:	4a23      	ldr	r2, [pc, #140]	; (8001234 <MX_ADC1_Init+0xd0>)
 80011a8:	629a      	str	r2, [r3, #40]	; 0x28
  hadc1.Init.DataAlign = ADC_DATAALIGN_RIGHT;
 80011aa:	4b20      	ldr	r3, [pc, #128]	; (800122c <MX_ADC1_Init+0xc8>)
 80011ac:	2200      	movs	r2, #0
 80011ae:	60da      	str	r2, [r3, #12]
  hadc1.Init.NbrOfConversion = 1;
 80011b0:	4b1e      	ldr	r3, [pc, #120]	; (800122c <MX_ADC1_Init+0xc8>)
 80011b2:	2201      	movs	r2, #1
 80011b4:	61da      	str	r2, [r3, #28]
  hadc1.Init.DMAContinuousRequests = ENABLE;
 80011b6:	4b1d      	ldr	r3, [pc, #116]	; (800122c <MX_ADC1_Init+0xc8>)
 80011b8:	2201      	movs	r2, #1
 80011ba:	f883 2030 	strb.w	r2, [r3, #48]	; 0x30
  hadc1.Init.EOCSelection = ADC_EOC_SINGLE_CONV;
 80011be:	4b1b      	ldr	r3, [pc, #108]	; (800122c <MX_ADC1_Init+0xc8>)
 80011c0:	2201      	movs	r2, #1
 80011c2:	615a      	str	r2, [r3, #20]
  if (HAL_ADC_Init(&hadc1) != HAL_OK)
 80011c4:	4819      	ldr	r0, [pc, #100]	; (800122c <MX_ADC1_Init+0xc8>)
 80011c6:	f000 ffc9 	bl	800215c <HAL_ADC_Init>
 80011ca:	4603      	mov	r3, r0
 80011cc:	2b00      	cmp	r3, #0
 80011ce:	d001      	beq.n	80011d4 <MX_ADC1_Init+0x70>
  {
    Error_Handler();
 80011d0:	f000 fac6 	bl	8001760 <Error_Handler>
  }
  /** Configure for the selected ADC regular channel its corresponding rank in the sequencer and its sample time.
  */
  sConfig.Channel = ADC_CHANNEL_1;
 80011d4:	2301      	movs	r3, #1
 80011d6:	603b      	str	r3, [r7, #0]
  sConfig.Rank = 1;
 80011d8:	2301      	movs	r3, #1
 80011da:	607b      	str	r3, [r7, #4]
  sConfig.SamplingTime = ADC_SAMPLETIME_3CYCLES;
 80011dc:	2300      	movs	r3, #0
 80011de:	60bb      	str	r3, [r7, #8]
  if (HAL_ADC_ConfigChannel(&hadc1, &sConfig) != HAL_OK)
 80011e0:	463b      	mov	r3, r7
 80011e2:	4619      	mov	r1, r3
 80011e4:	4811      	ldr	r0, [pc, #68]	; (800122c <MX_ADC1_Init+0xc8>)
 80011e6:	f001 f903 	bl	80023f0 <HAL_ADC_ConfigChannel>
 80011ea:	4603      	mov	r3, r0
 80011ec:	2b00      	cmp	r3, #0
 80011ee:	d001      	beq.n	80011f4 <MX_ADC1_Init+0x90>
  {
    Error_Handler();
 80011f0:	f000 fab6 	bl	8001760 <Error_Handler>
  }
  /* USER CODE BEGIN ADC1_Init 2 */
  hadc1.Init.EOCSelection = DISABLE;
 80011f4:	4b0d      	ldr	r3, [pc, #52]	; (800122c <MX_ADC1_Init+0xc8>)
 80011f6:	2200      	movs	r2, #0
 80011f8:	615a      	str	r2, [r3, #20]
  if (HAL_ADC_Init(&hadc1) != HAL_OK)
 80011fa:	480c      	ldr	r0, [pc, #48]	; (800122c <MX_ADC1_Init+0xc8>)
 80011fc:	f000 ffae 	bl	800215c <HAL_ADC_Init>
 8001200:	4603      	mov	r3, r0
 8001202:	2b00      	cmp	r3, #0
 8001204:	d001      	beq.n	800120a <MX_ADC1_Init+0xa6>
  {
	  Error_Handler();
 8001206:	f000 faab 	bl	8001760 <Error_Handler>
  }

  sConfig.SamplingTime = ADC_SAMPLETIME_480CYCLES;
 800120a:	2307      	movs	r3, #7
 800120c:	60bb      	str	r3, [r7, #8]
  if (HAL_ADC_ConfigChannel(&hadc1, &sConfig) != HAL_OK)
 800120e:	463b      	mov	r3, r7
 8001210:	4619      	mov	r1, r3
 8001212:	4806      	ldr	r0, [pc, #24]	; (800122c <MX_ADC1_Init+0xc8>)
 8001214:	f001 f8ec 	bl	80023f0 <HAL_ADC_ConfigChannel>
 8001218:	4603      	mov	r3, r0
 800121a:	2b00      	cmp	r3, #0
 800121c:	d001      	beq.n	8001222 <MX_ADC1_Init+0xbe>
  {
	Error_Handler();
 800121e:	f000 fa9f 	bl	8001760 <Error_Handler>
  }
  /* USER CODE END ADC1_Init 2 */

}
 8001222:	bf00      	nop
 8001224:	3710      	adds	r7, #16
 8001226:	46bd      	mov	sp, r7
 8001228:	bd80      	pop	{r7, pc}
 800122a:	bf00      	nop
 800122c:	200002e0 	.word	0x200002e0
 8001230:	40012000 	.word	0x40012000
 8001234:	0f000001 	.word	0x0f000001

08001238 <MX_I2C1_Init>:
  * @brief I2C1 Initialization Function
  * @param None
  * @retval None
  */
static void MX_I2C1_Init(void)
{
 8001238:	b580      	push	{r7, lr}
 800123a:	af00      	add	r7, sp, #0
  /* USER CODE END I2C1_Init 0 */

  /* USER CODE BEGIN I2C1_Init 1 */

  /* USER CODE END I2C1_Init 1 */
  hi2c1.Instance = I2C1;
 800123c:	4b12      	ldr	r3, [pc, #72]	; (8001288 <MX_I2C1_Init+0x50>)
 800123e:	4a13      	ldr	r2, [pc, #76]	; (800128c <MX_I2C1_Init+0x54>)
 8001240:	601a      	str	r2, [r3, #0]
  hi2c1.Init.ClockSpeed = 100000;
 8001242:	4b11      	ldr	r3, [pc, #68]	; (8001288 <MX_I2C1_Init+0x50>)
 8001244:	4a12      	ldr	r2, [pc, #72]	; (8001290 <MX_I2C1_Init+0x58>)
 8001246:	605a      	str	r2, [r3, #4]
  hi2c1.Init.DutyCycle = I2C_DUTYCYCLE_2;
 8001248:	4b0f      	ldr	r3, [pc, #60]	; (8001288 <MX_I2C1_Init+0x50>)
 800124a:	2200      	movs	r2, #0
 800124c:	609a      	str	r2, [r3, #8]
  hi2c1.Init.OwnAddress1 = 0;
 800124e:	4b0e      	ldr	r3, [pc, #56]	; (8001288 <MX_I2C1_Init+0x50>)
 8001250:	2200      	movs	r2, #0
 8001252:	60da      	str	r2, [r3, #12]
  hi2c1.Init.AddressingMode = I2C_ADDRESSINGMODE_7BIT;
 8001254:	4b0c      	ldr	r3, [pc, #48]	; (8001288 <MX_I2C1_Init+0x50>)
 8001256:	f44f 4280 	mov.w	r2, #16384	; 0x4000
 800125a:	611a      	str	r2, [r3, #16]
  hi2c1.Init.DualAddressMode = I2C_DUALADDRESS_DISABLE;
 800125c:	4b0a      	ldr	r3, [pc, #40]	; (8001288 <MX_I2C1_Init+0x50>)
 800125e:	2200      	movs	r2, #0
 8001260:	615a      	str	r2, [r3, #20]
  hi2c1.Init.OwnAddress2 = 0;
 8001262:	4b09      	ldr	r3, [pc, #36]	; (8001288 <MX_I2C1_Init+0x50>)
 8001264:	2200      	movs	r2, #0
 8001266:	619a      	str	r2, [r3, #24]
  hi2c1.Init.GeneralCallMode = I2C_GENERALCALL_DISABLE;
 8001268:	4b07      	ldr	r3, [pc, #28]	; (8001288 <MX_I2C1_Init+0x50>)
 800126a:	2200      	movs	r2, #0
 800126c:	61da      	str	r2, [r3, #28]
  hi2c1.Init.NoStretchMode = I2C_NOSTRETCH_DISABLE;
 800126e:	4b06      	ldr	r3, [pc, #24]	; (8001288 <MX_I2C1_Init+0x50>)
 8001270:	2200      	movs	r2, #0
 8001272:	621a      	str	r2, [r3, #32]
  if (HAL_I2C_Init(&hi2c1) != HAL_OK)
 8001274:	4804      	ldr	r0, [pc, #16]	; (8001288 <MX_I2C1_Init+0x50>)
 8001276:	f003 fe99 	bl	8004fac <HAL_I2C_Init>
 800127a:	4603      	mov	r3, r0
 800127c:	2b00      	cmp	r3, #0
 800127e:	d001      	beq.n	8001284 <MX_I2C1_Init+0x4c>
  {
    Error_Handler();
 8001280:	f000 fa6e 	bl	8001760 <Error_Handler>
  }
  /* USER CODE BEGIN I2C1_Init 2 */

  /* USER CODE END I2C1_Init 2 */

}
 8001284:	bf00      	nop
 8001286:	bd80      	pop	{r7, pc}
 8001288:	2000028c 	.word	0x2000028c
 800128c:	40005400 	.word	0x40005400
 8001290:	000186a0 	.word	0x000186a0

08001294 <MX_I2S3_Init>:
  * @brief I2S3 Initialization Function
  * @param None
  * @retval None
  */
static void MX_I2S3_Init(void)
{
 8001294:	b580      	push	{r7, lr}
 8001296:	af00      	add	r7, sp, #0
  /* USER CODE END I2S3_Init 0 */

  /* USER CODE BEGIN I2S3_Init 1 */

  /* USER CODE END I2S3_Init 1 */
  hi2s3.Instance = SPI3;
 8001298:	4b13      	ldr	r3, [pc, #76]	; (80012e8 <MX_I2S3_Init+0x54>)
 800129a:	4a14      	ldr	r2, [pc, #80]	; (80012ec <MX_I2S3_Init+0x58>)
 800129c:	601a      	str	r2, [r3, #0]
  hi2s3.Init.Mode = I2S_MODE_MASTER_TX;
 800129e:	4b12      	ldr	r3, [pc, #72]	; (80012e8 <MX_I2S3_Init+0x54>)
 80012a0:	f44f 7200 	mov.w	r2, #512	; 0x200
 80012a4:	605a      	str	r2, [r3, #4]
  hi2s3.Init.Standard = I2S_STANDARD_PHILIPS;
 80012a6:	4b10      	ldr	r3, [pc, #64]	; (80012e8 <MX_I2S3_Init+0x54>)
 80012a8:	2200      	movs	r2, #0
 80012aa:	609a      	str	r2, [r3, #8]
  hi2s3.Init.DataFormat = I2S_DATAFORMAT_16B;
 80012ac:	4b0e      	ldr	r3, [pc, #56]	; (80012e8 <MX_I2S3_Init+0x54>)
 80012ae:	2200      	movs	r2, #0
 80012b0:	60da      	str	r2, [r3, #12]
  hi2s3.Init.MCLKOutput = I2S_MCLKOUTPUT_ENABLE;
 80012b2:	4b0d      	ldr	r3, [pc, #52]	; (80012e8 <MX_I2S3_Init+0x54>)
 80012b4:	f44f 7200 	mov.w	r2, #512	; 0x200
 80012b8:	611a      	str	r2, [r3, #16]
  hi2s3.Init.AudioFreq = I2S_AUDIOFREQ_96K;
 80012ba:	4b0b      	ldr	r3, [pc, #44]	; (80012e8 <MX_I2S3_Init+0x54>)
 80012bc:	4a0c      	ldr	r2, [pc, #48]	; (80012f0 <MX_I2S3_Init+0x5c>)
 80012be:	615a      	str	r2, [r3, #20]
  hi2s3.Init.CPOL = I2S_CPOL_LOW;
 80012c0:	4b09      	ldr	r3, [pc, #36]	; (80012e8 <MX_I2S3_Init+0x54>)
 80012c2:	2200      	movs	r2, #0
 80012c4:	619a      	str	r2, [r3, #24]
  hi2s3.Init.ClockSource = I2S_CLOCK_PLL;
 80012c6:	4b08      	ldr	r3, [pc, #32]	; (80012e8 <MX_I2S3_Init+0x54>)
 80012c8:	2200      	movs	r2, #0
 80012ca:	61da      	str	r2, [r3, #28]
  hi2s3.Init.FullDuplexMode = I2S_FULLDUPLEXMODE_DISABLE;
 80012cc:	4b06      	ldr	r3, [pc, #24]	; (80012e8 <MX_I2S3_Init+0x54>)
 80012ce:	2200      	movs	r2, #0
 80012d0:	621a      	str	r2, [r3, #32]
  if (HAL_I2S_Init(&hi2s3) != HAL_OK)
 80012d2:	4805      	ldr	r0, [pc, #20]	; (80012e8 <MX_I2S3_Init+0x54>)
 80012d4:	f003 ffa2 	bl	800521c <HAL_I2S_Init>
 80012d8:	4603      	mov	r3, r0
 80012da:	2b00      	cmp	r3, #0
 80012dc:	d001      	beq.n	80012e2 <MX_I2S3_Init+0x4e>
  {
    Error_Handler();
 80012de:	f000 fa3f 	bl	8001760 <Error_Handler>
  }
  /* USER CODE BEGIN I2S3_Init 2 */

  /* USER CODE END I2S3_Init 2 */

}
 80012e2:	bf00      	nop
 80012e4:	bd80      	pop	{r7, pc}
 80012e6:	bf00      	nop
 80012e8:	20000c3c 	.word	0x20000c3c
 80012ec:	40003c00 	.word	0x40003c00
 80012f0:	00017700 	.word	0x00017700

080012f4 <MX_SPI1_Init>:
  * @brief SPI1 Initialization Function
  * @param None
  * @retval None
  */
static void MX_SPI1_Init(void)
{
 80012f4:	b580      	push	{r7, lr}
 80012f6:	af00      	add	r7, sp, #0

  /* USER CODE BEGIN SPI1_Init 1 */

  /* USER CODE END SPI1_Init 1 */
  /* SPI1 parameter configuration*/
  hspi1.Instance = SPI1;
 80012f8:	4b17      	ldr	r3, [pc, #92]	; (8001358 <MX_SPI1_Init+0x64>)
 80012fa:	4a18      	ldr	r2, [pc, #96]	; (800135c <MX_SPI1_Init+0x68>)
 80012fc:	601a      	str	r2, [r3, #0]
  hspi1.Init.Mode = SPI_MODE_MASTER;
 80012fe:	4b16      	ldr	r3, [pc, #88]	; (8001358 <MX_SPI1_Init+0x64>)
 8001300:	f44f 7282 	mov.w	r2, #260	; 0x104
 8001304:	605a      	str	r2, [r3, #4]
  hspi1.Init.Direction = SPI_DIRECTION_2LINES;
 8001306:	4b14      	ldr	r3, [pc, #80]	; (8001358 <MX_SPI1_Init+0x64>)
 8001308:	2200      	movs	r2, #0
 800130a:	609a      	str	r2, [r3, #8]
  hspi1.Init.DataSize = SPI_DATASIZE_8BIT;
 800130c:	4b12      	ldr	r3, [pc, #72]	; (8001358 <MX_SPI1_Init+0x64>)
 800130e:	2200      	movs	r2, #0
 8001310:	60da      	str	r2, [r3, #12]
  hspi1.Init.CLKPolarity = SPI_POLARITY_LOW;
 8001312:	4b11      	ldr	r3, [pc, #68]	; (8001358 <MX_SPI1_Init+0x64>)
 8001314:	2200      	movs	r2, #0
 8001316:	611a      	str	r2, [r3, #16]
  hspi1.Init.CLKPhase = SPI_PHASE_1EDGE;
 8001318:	4b0f      	ldr	r3, [pc, #60]	; (8001358 <MX_SPI1_Init+0x64>)
 800131a:	2200      	movs	r2, #0
 800131c:	615a      	str	r2, [r3, #20]
  hspi1.Init.NSS = SPI_NSS_SOFT;
 800131e:	4b0e      	ldr	r3, [pc, #56]	; (8001358 <MX_SPI1_Init+0x64>)
 8001320:	f44f 7200 	mov.w	r2, #512	; 0x200
 8001324:	619a      	str	r2, [r3, #24]
  hspi1.Init.BaudRatePrescaler = SPI_BAUDRATEPRESCALER_2;
 8001326:	4b0c      	ldr	r3, [pc, #48]	; (8001358 <MX_SPI1_Init+0x64>)
 8001328:	2200      	movs	r2, #0
 800132a:	61da      	str	r2, [r3, #28]
  hspi1.Init.FirstBit = SPI_FIRSTBIT_MSB;
 800132c:	4b0a      	ldr	r3, [pc, #40]	; (8001358 <MX_SPI1_Init+0x64>)
 800132e:	2200      	movs	r2, #0
 8001330:	621a      	str	r2, [r3, #32]
  hspi1.Init.TIMode = SPI_TIMODE_DISABLE;
 8001332:	4b09      	ldr	r3, [pc, #36]	; (8001358 <MX_SPI1_Init+0x64>)
 8001334:	2200      	movs	r2, #0
 8001336:	625a      	str	r2, [r3, #36]	; 0x24
  hspi1.Init.CRCCalculation = SPI_CRCCALCULATION_DISABLE;
 8001338:	4b07      	ldr	r3, [pc, #28]	; (8001358 <MX_SPI1_Init+0x64>)
 800133a:	2200      	movs	r2, #0
 800133c:	629a      	str	r2, [r3, #40]	; 0x28
  hspi1.Init.CRCPolynomial = 10;
 800133e:	4b06      	ldr	r3, [pc, #24]	; (8001358 <MX_SPI1_Init+0x64>)
 8001340:	220a      	movs	r2, #10
 8001342:	62da      	str	r2, [r3, #44]	; 0x2c
  if (HAL_SPI_Init(&hspi1) != HAL_OK)
 8001344:	4804      	ldr	r0, [pc, #16]	; (8001358 <MX_SPI1_Init+0x64>)
 8001346:	f005 f9a9 	bl	800669c <HAL_SPI_Init>
 800134a:	4603      	mov	r3, r0
 800134c:	2b00      	cmp	r3, #0
 800134e:	d001      	beq.n	8001354 <MX_SPI1_Init+0x60>
  {
    Error_Handler();
 8001350:	f000 fa06 	bl	8001760 <Error_Handler>
  }
  /* USER CODE BEGIN SPI1_Init 2 */

  /* USER CODE END SPI1_Init 2 */

}
 8001354:	bf00      	nop
 8001356:	bd80      	pop	{r7, pc}
 8001358:	20000b5c 	.word	0x20000b5c
 800135c:	40013000 	.word	0x40013000

08001360 <MX_TIM4_Init>:
  * @brief TIM4 Initialization Function
  * @param None
  * @retval None
  */
static void MX_TIM4_Init(void)
{
 8001360:	b580      	push	{r7, lr}
 8001362:	b08a      	sub	sp, #40	; 0x28
 8001364:	af00      	add	r7, sp, #0

  /* USER CODE BEGIN TIM4_Init 0 */

  /* USER CODE END TIM4_Init 0 */

  TIM_MasterConfigTypeDef sMasterConfig = {0};
 8001366:	f107 0320 	add.w	r3, r7, #32
 800136a:	2200      	movs	r2, #0
 800136c:	601a      	str	r2, [r3, #0]
 800136e:	605a      	str	r2, [r3, #4]
  TIM_OC_InitTypeDef sConfigOC = {0};
 8001370:	1d3b      	adds	r3, r7, #4
 8001372:	2200      	movs	r2, #0
 8001374:	601a      	str	r2, [r3, #0]
 8001376:	605a      	str	r2, [r3, #4]
 8001378:	609a      	str	r2, [r3, #8]
 800137a:	60da      	str	r2, [r3, #12]
 800137c:	611a      	str	r2, [r3, #16]
 800137e:	615a      	str	r2, [r3, #20]
 8001380:	619a      	str	r2, [r3, #24]

  /* USER CODE BEGIN TIM4_Init 1 */

  /* USER CODE END TIM4_Init 1 */
  htim4.Instance = TIM4;
 8001382:	4b22      	ldr	r3, [pc, #136]	; (800140c <MX_TIM4_Init+0xac>)
 8001384:	4a22      	ldr	r2, [pc, #136]	; (8001410 <MX_TIM4_Init+0xb0>)
 8001386:	601a      	str	r2, [r3, #0]
  htim4.Init.Prescaler = 100;
 8001388:	4b20      	ldr	r3, [pc, #128]	; (800140c <MX_TIM4_Init+0xac>)
 800138a:	2264      	movs	r2, #100	; 0x64
 800138c:	605a      	str	r2, [r3, #4]
  htim4.Init.CounterMode = TIM_COUNTERMODE_UP;
 800138e:	4b1f      	ldr	r3, [pc, #124]	; (800140c <MX_TIM4_Init+0xac>)
 8001390:	2200      	movs	r2, #0
 8001392:	609a      	str	r2, [r3, #8]
  htim4.Init.Period = 16512;
 8001394:	4b1d      	ldr	r3, [pc, #116]	; (800140c <MX_TIM4_Init+0xac>)
 8001396:	f44f 4281 	mov.w	r2, #16512	; 0x4080
 800139a:	60da      	str	r2, [r3, #12]
  htim4.Init.ClockDivision = TIM_CLOCKDIVISION_DIV1;
 800139c:	4b1b      	ldr	r3, [pc, #108]	; (800140c <MX_TIM4_Init+0xac>)
 800139e:	2200      	movs	r2, #0
 80013a0:	611a      	str	r2, [r3, #16]
  htim4.Init.AutoReloadPreload = TIM_AUTORELOAD_PRELOAD_DISABLE;
 80013a2:	4b1a      	ldr	r3, [pc, #104]	; (800140c <MX_TIM4_Init+0xac>)
 80013a4:	2200      	movs	r2, #0
 80013a6:	619a      	str	r2, [r3, #24]
  if (HAL_TIM_PWM_Init(&htim4) != HAL_OK)
 80013a8:	4818      	ldr	r0, [pc, #96]	; (800140c <MX_TIM4_Init+0xac>)
 80013aa:	f005 fa2a 	bl	8006802 <HAL_TIM_PWM_Init>
 80013ae:	4603      	mov	r3, r0
 80013b0:	2b00      	cmp	r3, #0
 80013b2:	d001      	beq.n	80013b8 <MX_TIM4_Init+0x58>
  {
    Error_Handler();
 80013b4:	f000 f9d4 	bl	8001760 <Error_Handler>
  }
  sMasterConfig.MasterOutputTrigger = TIM_TRGO_RESET;
 80013b8:	2300      	movs	r3, #0
 80013ba:	623b      	str	r3, [r7, #32]
  sMasterConfig.MasterSlaveMode = TIM_MASTERSLAVEMODE_DISABLE;
 80013bc:	2300      	movs	r3, #0
 80013be:	627b      	str	r3, [r7, #36]	; 0x24
  if (HAL_TIMEx_MasterConfigSynchronization(&htim4, &sMasterConfig) != HAL_OK)
 80013c0:	f107 0320 	add.w	r3, r7, #32
 80013c4:	4619      	mov	r1, r3
 80013c6:	4811      	ldr	r0, [pc, #68]	; (800140c <MX_TIM4_Init+0xac>)
 80013c8:	f005 fef0 	bl	80071ac <HAL_TIMEx_MasterConfigSynchronization>
 80013cc:	4603      	mov	r3, r0
 80013ce:	2b00      	cmp	r3, #0
 80013d0:	d001      	beq.n	80013d6 <MX_TIM4_Init+0x76>
  {
    Error_Handler();
 80013d2:	f000 f9c5 	bl	8001760 <Error_Handler>
  }
  sConfigOC.OCMode = TIM_OCMODE_PWM1;
 80013d6:	2360      	movs	r3, #96	; 0x60
 80013d8:	607b      	str	r3, [r7, #4]
  sConfigOC.Pulse = 0;
 80013da:	2300      	movs	r3, #0
 80013dc:	60bb      	str	r3, [r7, #8]
  sConfigOC.OCPolarity = TIM_OCPOLARITY_HIGH;
 80013de:	2300      	movs	r3, #0
 80013e0:	60fb      	str	r3, [r7, #12]
  sConfigOC.OCFastMode = TIM_OCFAST_DISABLE;
 80013e2:	2300      	movs	r3, #0
 80013e4:	617b      	str	r3, [r7, #20]
  if (HAL_TIM_PWM_ConfigChannel(&htim4, &sConfigOC, TIM_CHANNEL_4) != HAL_OK)
 80013e6:	1d3b      	adds	r3, r7, #4
 80013e8:	220c      	movs	r2, #12
 80013ea:	4619      	mov	r1, r3
 80013ec:	4807      	ldr	r0, [pc, #28]	; (800140c <MX_TIM4_Init+0xac>)
 80013ee:	f005 fb79 	bl	8006ae4 <HAL_TIM_PWM_ConfigChannel>
 80013f2:	4603      	mov	r3, r0
 80013f4:	2b00      	cmp	r3, #0
 80013f6:	d001      	beq.n	80013fc <MX_TIM4_Init+0x9c>
  {
    Error_Handler();
 80013f8:	f000 f9b2 	bl	8001760 <Error_Handler>
  }
  /* USER CODE BEGIN TIM4_Init 2 */

  /* USER CODE END TIM4_Init 2 */
  HAL_TIM_MspPostInit(&htim4);
 80013fc:	4803      	ldr	r0, [pc, #12]	; (800140c <MX_TIM4_Init+0xac>)
 80013fe:	f000 fcad 	bl	8001d5c <HAL_TIM_MspPostInit>

}
 8001402:	bf00      	nop
 8001404:	3728      	adds	r7, #40	; 0x28
 8001406:	46bd      	mov	sp, r7
 8001408:	bd80      	pop	{r7, pc}
 800140a:	bf00      	nop
 800140c:	2000024c 	.word	0x2000024c
 8001410:	40000800 	.word	0x40000800

08001414 <MX_TIM7_Init>:
  * @brief TIM7 Initialization Function
  * @param None
  * @retval None
  */
static void MX_TIM7_Init(void)
{
 8001414:	b580      	push	{r7, lr}
 8001416:	b082      	sub	sp, #8
 8001418:	af00      	add	r7, sp, #0

  /* USER CODE BEGIN TIM7_Init 0 */

  /* USER CODE END TIM7_Init 0 */

  TIM_MasterConfigTypeDef sMasterConfig = {0};
 800141a:	463b      	mov	r3, r7
 800141c:	2200      	movs	r2, #0
 800141e:	601a      	str	r2, [r3, #0]
 8001420:	605a      	str	r2, [r3, #4]

  /* USER CODE BEGIN TIM7_Init 1 */

  /* USER CODE END TIM7_Init 1 */
  htim7.Instance = TIM7;
 8001422:	4b15      	ldr	r3, [pc, #84]	; (8001478 <MX_TIM7_Init+0x64>)
 8001424:	4a15      	ldr	r2, [pc, #84]	; (800147c <MX_TIM7_Init+0x68>)
 8001426:	601a      	str	r2, [r3, #0]
  htim7.Init.Prescaler = 128;
 8001428:	4b13      	ldr	r3, [pc, #76]	; (8001478 <MX_TIM7_Init+0x64>)
 800142a:	2280      	movs	r2, #128	; 0x80
 800142c:	605a      	str	r2, [r3, #4]
  htim7.Init.CounterMode = TIM_COUNTERMODE_UP;
 800142e:	4b12      	ldr	r3, [pc, #72]	; (8001478 <MX_TIM7_Init+0x64>)
 8001430:	2200      	movs	r2, #0
 8001432:	609a      	str	r2, [r3, #8]
  htim7.Init.Period = 65535;
 8001434:	4b10      	ldr	r3, [pc, #64]	; (8001478 <MX_TIM7_Init+0x64>)
 8001436:	f64f 72ff 	movw	r2, #65535	; 0xffff
 800143a:	60da      	str	r2, [r3, #12]
  htim7.Init.AutoReloadPreload = TIM_AUTORELOAD_PRELOAD_DISABLE;
 800143c:	4b0e      	ldr	r3, [pc, #56]	; (8001478 <MX_TIM7_Init+0x64>)
 800143e:	2200      	movs	r2, #0
 8001440:	619a      	str	r2, [r3, #24]
  if (HAL_TIM_Base_Init(&htim7) != HAL_OK)
 8001442:	480d      	ldr	r0, [pc, #52]	; (8001478 <MX_TIM7_Init+0x64>)
 8001444:	f005 f98e 	bl	8006764 <HAL_TIM_Base_Init>
 8001448:	4603      	mov	r3, r0
 800144a:	2b00      	cmp	r3, #0
 800144c:	d001      	beq.n	8001452 <MX_TIM7_Init+0x3e>
  {
    Error_Handler();
 800144e:	f000 f987 	bl	8001760 <Error_Handler>
  }
  sMasterConfig.MasterOutputTrigger = TIM_TRGO_RESET;
 8001452:	2300      	movs	r3, #0
 8001454:	603b      	str	r3, [r7, #0]
  sMasterConfig.MasterSlaveMode = TIM_MASTERSLAVEMODE_DISABLE;
 8001456:	2300      	movs	r3, #0
 8001458:	607b      	str	r3, [r7, #4]
  if (HAL_TIMEx_MasterConfigSynchronization(&htim7, &sMasterConfig) != HAL_OK)
 800145a:	463b      	mov	r3, r7
 800145c:	4619      	mov	r1, r3
 800145e:	4806      	ldr	r0, [pc, #24]	; (8001478 <MX_TIM7_Init+0x64>)
 8001460:	f005 fea4 	bl	80071ac <HAL_TIMEx_MasterConfigSynchronization>
 8001464:	4603      	mov	r3, r0
 8001466:	2b00      	cmp	r3, #0
 8001468:	d001      	beq.n	800146e <MX_TIM7_Init+0x5a>
  {
    Error_Handler();
 800146a:	f000 f979 	bl	8001760 <Error_Handler>
  }
  /* USER CODE BEGIN TIM7_Init 2 */

  /* USER CODE END TIM7_Init 2 */

}
 800146e:	bf00      	nop
 8001470:	3708      	adds	r7, #8
 8001472:	46bd      	mov	sp, r7
 8001474:	bd80      	pop	{r7, pc}
 8001476:	bf00      	nop
 8001478:	20000bfc 	.word	0x20000bfc
 800147c:	40001400 	.word	0x40001400

08001480 <MX_USART2_UART_Init>:
  * @brief USART2 Initialization Function
  * @param None
  * @retval None
  */
static void MX_USART2_UART_Init(void)
{
 8001480:	b580      	push	{r7, lr}
 8001482:	af00      	add	r7, sp, #0
  /* USER CODE END USART2_Init 0 */

  /* USER CODE BEGIN USART2_Init 1 */

  /* USER CODE END USART2_Init 1 */
  huart2.Instance = USART2;
 8001484:	4b11      	ldr	r3, [pc, #68]	; (80014cc <MX_USART2_UART_Init+0x4c>)
 8001486:	4a12      	ldr	r2, [pc, #72]	; (80014d0 <MX_USART2_UART_Init+0x50>)
 8001488:	601a      	str	r2, [r3, #0]
  huart2.Init.BaudRate = 19200;
 800148a:	4b10      	ldr	r3, [pc, #64]	; (80014cc <MX_USART2_UART_Init+0x4c>)
 800148c:	f44f 4296 	mov.w	r2, #19200	; 0x4b00
 8001490:	605a      	str	r2, [r3, #4]
  huart2.Init.WordLength = UART_WORDLENGTH_8B;
 8001492:	4b0e      	ldr	r3, [pc, #56]	; (80014cc <MX_USART2_UART_Init+0x4c>)
 8001494:	2200      	movs	r2, #0
 8001496:	609a      	str	r2, [r3, #8]
  huart2.Init.StopBits = UART_STOPBITS_1;
 8001498:	4b0c      	ldr	r3, [pc, #48]	; (80014cc <MX_USART2_UART_Init+0x4c>)
 800149a:	2200      	movs	r2, #0
 800149c:	60da      	str	r2, [r3, #12]
  huart2.Init.Parity = UART_PARITY_NONE;
 800149e:	4b0b      	ldr	r3, [pc, #44]	; (80014cc <MX_USART2_UART_Init+0x4c>)
 80014a0:	2200      	movs	r2, #0
 80014a2:	611a      	str	r2, [r3, #16]
  huart2.Init.Mode = UART_MODE_TX_RX;
 80014a4:	4b09      	ldr	r3, [pc, #36]	; (80014cc <MX_USART2_UART_Init+0x4c>)
 80014a6:	220c      	movs	r2, #12
 80014a8:	615a      	str	r2, [r3, #20]
  huart2.Init.HwFlowCtl = UART_HWCONTROL_NONE;
 80014aa:	4b08      	ldr	r3, [pc, #32]	; (80014cc <MX_USART2_UART_Init+0x4c>)
 80014ac:	2200      	movs	r2, #0
 80014ae:	619a      	str	r2, [r3, #24]
  huart2.Init.OverSampling = UART_OVERSAMPLING_16;
 80014b0:	4b06      	ldr	r3, [pc, #24]	; (80014cc <MX_USART2_UART_Init+0x4c>)
 80014b2:	2200      	movs	r2, #0
 80014b4:	61da      	str	r2, [r3, #28]
  if (HAL_UART_Init(&huart2) != HAL_OK)
 80014b6:	4805      	ldr	r0, [pc, #20]	; (80014cc <MX_USART2_UART_Init+0x4c>)
 80014b8:	f005 ff08 	bl	80072cc <HAL_UART_Init>
 80014bc:	4603      	mov	r3, r0
 80014be:	2b00      	cmp	r3, #0
 80014c0:	d001      	beq.n	80014c6 <MX_USART2_UART_Init+0x46>
  {
    Error_Handler();
 80014c2:	f000 f94d 	bl	8001760 <Error_Handler>
  }
  /* USER CODE BEGIN USART2_Init 2 */

  /* USER CODE END USART2_Init 2 */

}
 80014c6:	bf00      	nop
 80014c8:	bd80      	pop	{r7, pc}
 80014ca:	bf00      	nop
 80014cc:	20000bb8 	.word	0x20000bb8
 80014d0:	40004400 	.word	0x40004400

080014d4 <MX_DMA_Init>:

/**
  * Enable DMA controller clock
  */
static void MX_DMA_Init(void)
{
 80014d4:	b580      	push	{r7, lr}
 80014d6:	b082      	sub	sp, #8
 80014d8:	af00      	add	r7, sp, #0

  /* DMA controller clock enable */
  __HAL_RCC_DMA2_CLK_ENABLE();
 80014da:	2300      	movs	r3, #0
 80014dc:	607b      	str	r3, [r7, #4]
 80014de:	4b0c      	ldr	r3, [pc, #48]	; (8001510 <MX_DMA_Init+0x3c>)
 80014e0:	6b1b      	ldr	r3, [r3, #48]	; 0x30
 80014e2:	4a0b      	ldr	r2, [pc, #44]	; (8001510 <MX_DMA_Init+0x3c>)
 80014e4:	f443 0380 	orr.w	r3, r3, #4194304	; 0x400000
 80014e8:	6313      	str	r3, [r2, #48]	; 0x30
 80014ea:	4b09      	ldr	r3, [pc, #36]	; (8001510 <MX_DMA_Init+0x3c>)
 80014ec:	6b1b      	ldr	r3, [r3, #48]	; 0x30
 80014ee:	f403 0380 	and.w	r3, r3, #4194304	; 0x400000
 80014f2:	607b      	str	r3, [r7, #4]
 80014f4:	687b      	ldr	r3, [r7, #4]

  /* DMA interrupt init */
  /* DMA2_Stream4_IRQn interrupt configuration */
  HAL_NVIC_SetPriority(DMA2_Stream4_IRQn, 0, 0);
 80014f6:	2200      	movs	r2, #0
 80014f8:	2100      	movs	r1, #0
 80014fa:	203c      	movs	r0, #60	; 0x3c
 80014fc:	f001 faf3 	bl	8002ae6 <HAL_NVIC_SetPriority>
  HAL_NVIC_EnableIRQ(DMA2_Stream4_IRQn);
 8001500:	203c      	movs	r0, #60	; 0x3c
 8001502:	f001 fb0c 	bl	8002b1e <HAL_NVIC_EnableIRQ>

}
 8001506:	bf00      	nop
 8001508:	3708      	adds	r7, #8
 800150a:	46bd      	mov	sp, r7
 800150c:	bd80      	pop	{r7, pc}
 800150e:	bf00      	nop
 8001510:	40023800 	.word	0x40023800

08001514 <MX_GPIO_Init>:
  * @brief GPIO Initialization Function
  * @param None
  * @retval None
  */
static void MX_GPIO_Init(void)
{
 8001514:	b580      	push	{r7, lr}
 8001516:	b08c      	sub	sp, #48	; 0x30
 8001518:	af00      	add	r7, sp, #0
  GPIO_InitTypeDef GPIO_InitStruct = {0};
 800151a:	f107 031c 	add.w	r3, r7, #28
 800151e:	2200      	movs	r2, #0
 8001520:	601a      	str	r2, [r3, #0]
 8001522:	605a      	str	r2, [r3, #4]
 8001524:	609a      	str	r2, [r3, #8]
 8001526:	60da      	str	r2, [r3, #12]
 8001528:	611a      	str	r2, [r3, #16]

  /* GPIO Ports Clock Enable */
  __HAL_RCC_GPIOE_CLK_ENABLE();
 800152a:	2300      	movs	r3, #0
 800152c:	61bb      	str	r3, [r7, #24]
 800152e:	4b7b      	ldr	r3, [pc, #492]	; (800171c <MX_GPIO_Init+0x208>)
 8001530:	6b1b      	ldr	r3, [r3, #48]	; 0x30
 8001532:	4a7a      	ldr	r2, [pc, #488]	; (800171c <MX_GPIO_Init+0x208>)
 8001534:	f043 0310 	orr.w	r3, r3, #16
 8001538:	6313      	str	r3, [r2, #48]	; 0x30
 800153a:	4b78      	ldr	r3, [pc, #480]	; (800171c <MX_GPIO_Init+0x208>)
 800153c:	6b1b      	ldr	r3, [r3, #48]	; 0x30
 800153e:	f003 0310 	and.w	r3, r3, #16
 8001542:	61bb      	str	r3, [r7, #24]
 8001544:	69bb      	ldr	r3, [r7, #24]
  __HAL_RCC_GPIOC_CLK_ENABLE();
 8001546:	2300      	movs	r3, #0
 8001548:	617b      	str	r3, [r7, #20]
 800154a:	4b74      	ldr	r3, [pc, #464]	; (800171c <MX_GPIO_Init+0x208>)
 800154c:	6b1b      	ldr	r3, [r3, #48]	; 0x30
 800154e:	4a73      	ldr	r2, [pc, #460]	; (800171c <MX_GPIO_Init+0x208>)
 8001550:	f043 0304 	orr.w	r3, r3, #4
 8001554:	6313      	str	r3, [r2, #48]	; 0x30
 8001556:	4b71      	ldr	r3, [pc, #452]	; (800171c <MX_GPIO_Init+0x208>)
 8001558:	6b1b      	ldr	r3, [r3, #48]	; 0x30
 800155a:	f003 0304 	and.w	r3, r3, #4
 800155e:	617b      	str	r3, [r7, #20]
 8001560:	697b      	ldr	r3, [r7, #20]
  __HAL_RCC_GPIOH_CLK_ENABLE();
 8001562:	2300      	movs	r3, #0
 8001564:	613b      	str	r3, [r7, #16]
 8001566:	4b6d      	ldr	r3, [pc, #436]	; (800171c <MX_GPIO_Init+0x208>)
 8001568:	6b1b      	ldr	r3, [r3, #48]	; 0x30
 800156a:	4a6c      	ldr	r2, [pc, #432]	; (800171c <MX_GPIO_Init+0x208>)
 800156c:	f043 0380 	orr.w	r3, r3, #128	; 0x80
 8001570:	6313      	str	r3, [r2, #48]	; 0x30
 8001572:	4b6a      	ldr	r3, [pc, #424]	; (800171c <MX_GPIO_Init+0x208>)
 8001574:	6b1b      	ldr	r3, [r3, #48]	; 0x30
 8001576:	f003 0380 	and.w	r3, r3, #128	; 0x80
 800157a:	613b      	str	r3, [r7, #16]
 800157c:	693b      	ldr	r3, [r7, #16]
  __HAL_RCC_GPIOA_CLK_ENABLE();
 800157e:	2300      	movs	r3, #0
 8001580:	60fb      	str	r3, [r7, #12]
 8001582:	4b66      	ldr	r3, [pc, #408]	; (800171c <MX_GPIO_Init+0x208>)
 8001584:	6b1b      	ldr	r3, [r3, #48]	; 0x30
 8001586:	4a65      	ldr	r2, [pc, #404]	; (800171c <MX_GPIO_Init+0x208>)
 8001588:	f043 0301 	orr.w	r3, r3, #1
 800158c:	6313      	str	r3, [r2, #48]	; 0x30
 800158e:	4b63      	ldr	r3, [pc, #396]	; (800171c <MX_GPIO_Init+0x208>)
 8001590:	6b1b      	ldr	r3, [r3, #48]	; 0x30
 8001592:	f003 0301 	and.w	r3, r3, #1
 8001596:	60fb      	str	r3, [r7, #12]
 8001598:	68fb      	ldr	r3, [r7, #12]
  __HAL_RCC_GPIOB_CLK_ENABLE();
 800159a:	2300      	movs	r3, #0
 800159c:	60bb      	str	r3, [r7, #8]
 800159e:	4b5f      	ldr	r3, [pc, #380]	; (800171c <MX_GPIO_Init+0x208>)
 80015a0:	6b1b      	ldr	r3, [r3, #48]	; 0x30
 80015a2:	4a5e      	ldr	r2, [pc, #376]	; (800171c <MX_GPIO_Init+0x208>)
 80015a4:	f043 0302 	orr.w	r3, r3, #2
 80015a8:	6313      	str	r3, [r2, #48]	; 0x30
 80015aa:	4b5c      	ldr	r3, [pc, #368]	; (800171c <MX_GPIO_Init+0x208>)
 80015ac:	6b1b      	ldr	r3, [r3, #48]	; 0x30
 80015ae:	f003 0302 	and.w	r3, r3, #2
 80015b2:	60bb      	str	r3, [r7, #8]
 80015b4:	68bb      	ldr	r3, [r7, #8]
  __HAL_RCC_GPIOD_CLK_ENABLE();
 80015b6:	2300      	movs	r3, #0
 80015b8:	607b      	str	r3, [r7, #4]
 80015ba:	4b58      	ldr	r3, [pc, #352]	; (800171c <MX_GPIO_Init+0x208>)
 80015bc:	6b1b      	ldr	r3, [r3, #48]	; 0x30
 80015be:	4a57      	ldr	r2, [pc, #348]	; (800171c <MX_GPIO_Init+0x208>)
 80015c0:	f043 0308 	orr.w	r3, r3, #8
 80015c4:	6313      	str	r3, [r2, #48]	; 0x30
 80015c6:	4b55      	ldr	r3, [pc, #340]	; (800171c <MX_GPIO_Init+0x208>)
 80015c8:	6b1b      	ldr	r3, [r3, #48]	; 0x30
 80015ca:	f003 0308 	and.w	r3, r3, #8
 80015ce:	607b      	str	r3, [r7, #4]
 80015d0:	687b      	ldr	r3, [r7, #4]

  /*Configure GPIO pin Output Level */
  HAL_GPIO_WritePin(GPIOE, GPIO_PIN_3, GPIO_PIN_RESET);
 80015d2:	2200      	movs	r2, #0
 80015d4:	2108      	movs	r1, #8
 80015d6:	4852      	ldr	r0, [pc, #328]	; (8001720 <MX_GPIO_Init+0x20c>)
 80015d8:	f001 ffc4 	bl	8003564 <HAL_GPIO_WritePin>

  /*Configure GPIO pin Output Level */
  HAL_GPIO_WritePin(OTG_FS_PowerSwitchOn_GPIO_Port, OTG_FS_PowerSwitchOn_Pin, GPIO_PIN_SET);
 80015dc:	2201      	movs	r2, #1
 80015de:	2101      	movs	r1, #1
 80015e0:	4850      	ldr	r0, [pc, #320]	; (8001724 <MX_GPIO_Init+0x210>)
 80015e2:	f001 ffbf 	bl	8003564 <HAL_GPIO_WritePin>

  /*Configure GPIO pin Output Level */
  HAL_GPIO_WritePin(GPIOD, LD4_Pin|LD3_Pin|LD5_Pin|Audio_RST_Pin, GPIO_PIN_RESET);
 80015e6:	2200      	movs	r2, #0
 80015e8:	f247 0110 	movw	r1, #28688	; 0x7010
 80015ec:	484e      	ldr	r0, [pc, #312]	; (8001728 <MX_GPIO_Init+0x214>)
 80015ee:	f001 ffb9 	bl	8003564 <HAL_GPIO_WritePin>

  /*Configure GPIO pin : PE3 */
  GPIO_InitStruct.Pin = GPIO_PIN_3;
 80015f2:	2308      	movs	r3, #8
 80015f4:	61fb      	str	r3, [r7, #28]
  GPIO_InitStruct.Mode = GPIO_MODE_OUTPUT_PP;
 80015f6:	2301      	movs	r3, #1
 80015f8:	623b      	str	r3, [r7, #32]
  GPIO_InitStruct.Pull = GPIO_NOPULL;
 80015fa:	2300      	movs	r3, #0
 80015fc:	627b      	str	r3, [r7, #36]	; 0x24
  GPIO_InitStruct.Speed = GPIO_SPEED_FREQ_LOW;
 80015fe:	2300      	movs	r3, #0
 8001600:	62bb      	str	r3, [r7, #40]	; 0x28
  HAL_GPIO_Init(GPIOE, &GPIO_InitStruct);
 8001602:	f107 031c 	add.w	r3, r7, #28
 8001606:	4619      	mov	r1, r3
 8001608:	4845      	ldr	r0, [pc, #276]	; (8001720 <MX_GPIO_Init+0x20c>)
 800160a:	f001 fe11 	bl	8003230 <HAL_GPIO_Init>

  /*Configure GPIO pin : OTG_FS_PowerSwitchOn_Pin */
  GPIO_InitStruct.Pin = OTG_FS_PowerSwitchOn_Pin;
 800160e:	2301      	movs	r3, #1
 8001610:	61fb      	str	r3, [r7, #28]
  GPIO_InitStruct.Mode = GPIO_MODE_OUTPUT_PP;
 8001612:	2301      	movs	r3, #1
 8001614:	623b      	str	r3, [r7, #32]
  GPIO_InitStruct.Pull = GPIO_NOPULL;
 8001616:	2300      	movs	r3, #0
 8001618:	627b      	str	r3, [r7, #36]	; 0x24
  GPIO_InitStruct.Speed = GPIO_SPEED_FREQ_LOW;
 800161a:	2300      	movs	r3, #0
 800161c:	62bb      	str	r3, [r7, #40]	; 0x28
  HAL_GPIO_Init(OTG_FS_PowerSwitchOn_GPIO_Port, &GPIO_InitStruct);
 800161e:	f107 031c 	add.w	r3, r7, #28
 8001622:	4619      	mov	r1, r3
 8001624:	483f      	ldr	r0, [pc, #252]	; (8001724 <MX_GPIO_Init+0x210>)
 8001626:	f001 fe03 	bl	8003230 <HAL_GPIO_Init>

  /*Configure GPIO pin : PDM_OUT_Pin */
  GPIO_InitStruct.Pin = PDM_OUT_Pin;
 800162a:	2308      	movs	r3, #8
 800162c:	61fb      	str	r3, [r7, #28]
  GPIO_InitStruct.Mode = GPIO_MODE_AF_PP;
 800162e:	2302      	movs	r3, #2
 8001630:	623b      	str	r3, [r7, #32]
  GPIO_InitStruct.Pull = GPIO_NOPULL;
 8001632:	2300      	movs	r3, #0
 8001634:	627b      	str	r3, [r7, #36]	; 0x24
  GPIO_InitStruct.Speed = GPIO_SPEED_FREQ_LOW;
 8001636:	2300      	movs	r3, #0
 8001638:	62bb      	str	r3, [r7, #40]	; 0x28
  GPIO_InitStruct.Alternate = GPIO_AF5_SPI2;
 800163a:	2305      	movs	r3, #5
 800163c:	62fb      	str	r3, [r7, #44]	; 0x2c
  HAL_GPIO_Init(PDM_OUT_GPIO_Port, &GPIO_InitStruct);
 800163e:	f107 031c 	add.w	r3, r7, #28
 8001642:	4619      	mov	r1, r3
 8001644:	4837      	ldr	r0, [pc, #220]	; (8001724 <MX_GPIO_Init+0x210>)
 8001646:	f001 fdf3 	bl	8003230 <HAL_GPIO_Init>

  /*Configure GPIO pin : B1_Pin */
  GPIO_InitStruct.Pin = B1_Pin;
 800164a:	2301      	movs	r3, #1
 800164c:	61fb      	str	r3, [r7, #28]
  GPIO_InitStruct.Mode = GPIO_MODE_EVT_RISING;
 800164e:	4b37      	ldr	r3, [pc, #220]	; (800172c <MX_GPIO_Init+0x218>)
 8001650:	623b      	str	r3, [r7, #32]
  GPIO_InitStruct.Pull = GPIO_NOPULL;
 8001652:	2300      	movs	r3, #0
 8001654:	627b      	str	r3, [r7, #36]	; 0x24
  HAL_GPIO_Init(B1_GPIO_Port, &GPIO_InitStruct);
 8001656:	f107 031c 	add.w	r3, r7, #28
 800165a:	4619      	mov	r1, r3
 800165c:	4834      	ldr	r0, [pc, #208]	; (8001730 <MX_GPIO_Init+0x21c>)
 800165e:	f001 fde7 	bl	8003230 <HAL_GPIO_Init>

  /*Configure GPIO pin : Hall_Schmitt_Trigger_Pin */
  GPIO_InitStruct.Pin = Hall_Schmitt_Trigger_Pin;
 8001662:	2308      	movs	r3, #8
 8001664:	61fb      	str	r3, [r7, #28]
  GPIO_InitStruct.Mode = GPIO_MODE_IT_RISING;
 8001666:	4b33      	ldr	r3, [pc, #204]	; (8001734 <MX_GPIO_Init+0x220>)
 8001668:	623b      	str	r3, [r7, #32]
  GPIO_InitStruct.Pull = GPIO_NOPULL;
 800166a:	2300      	movs	r3, #0
 800166c:	627b      	str	r3, [r7, #36]	; 0x24
  HAL_GPIO_Init(Hall_Schmitt_Trigger_GPIO_Port, &GPIO_InitStruct);
 800166e:	f107 031c 	add.w	r3, r7, #28
 8001672:	4619      	mov	r1, r3
 8001674:	482e      	ldr	r0, [pc, #184]	; (8001730 <MX_GPIO_Init+0x21c>)
 8001676:	f001 fddb 	bl	8003230 <HAL_GPIO_Init>

  /*Configure GPIO pin : PB2 */
  GPIO_InitStruct.Pin = GPIO_PIN_2;
 800167a:	2304      	movs	r3, #4
 800167c:	61fb      	str	r3, [r7, #28]
  GPIO_InitStruct.Mode = GPIO_MODE_INPUT;
 800167e:	2300      	movs	r3, #0
 8001680:	623b      	str	r3, [r7, #32]
  GPIO_InitStruct.Pull = GPIO_NOPULL;
 8001682:	2300      	movs	r3, #0
 8001684:	627b      	str	r3, [r7, #36]	; 0x24
  HAL_GPIO_Init(GPIOB, &GPIO_InitStruct);
 8001686:	f107 031c 	add.w	r3, r7, #28
 800168a:	4619      	mov	r1, r3
 800168c:	482a      	ldr	r0, [pc, #168]	; (8001738 <MX_GPIO_Init+0x224>)
 800168e:	f001 fdcf 	bl	8003230 <HAL_GPIO_Init>

  /*Configure GPIO pin : CLK_IN_Pin */
  GPIO_InitStruct.Pin = CLK_IN_Pin;
 8001692:	f44f 6380 	mov.w	r3, #1024	; 0x400
 8001696:	61fb      	str	r3, [r7, #28]
  GPIO_InitStruct.Mode = GPIO_MODE_AF_PP;
 8001698:	2302      	movs	r3, #2
 800169a:	623b      	str	r3, [r7, #32]
  GPIO_InitStruct.Pull = GPIO_NOPULL;
 800169c:	2300      	movs	r3, #0
 800169e:	627b      	str	r3, [r7, #36]	; 0x24
  GPIO_InitStruct.Speed = GPIO_SPEED_FREQ_LOW;
 80016a0:	2300      	movs	r3, #0
 80016a2:	62bb      	str	r3, [r7, #40]	; 0x28
  GPIO_InitStruct.Alternate = GPIO_AF5_SPI2;
 80016a4:	2305      	movs	r3, #5
 80016a6:	62fb      	str	r3, [r7, #44]	; 0x2c
  HAL_GPIO_Init(CLK_IN_GPIO_Port, &GPIO_InitStruct);
 80016a8:	f107 031c 	add.w	r3, r7, #28
 80016ac:	4619      	mov	r1, r3
 80016ae:	4822      	ldr	r0, [pc, #136]	; (8001738 <MX_GPIO_Init+0x224>)
 80016b0:	f001 fdbe 	bl	8003230 <HAL_GPIO_Init>

  /*Configure GPIO pins : LD4_Pin LD3_Pin LD5_Pin Audio_RST_Pin */
  GPIO_InitStruct.Pin = LD4_Pin|LD3_Pin|LD5_Pin|Audio_RST_Pin;
 80016b4:	f247 0310 	movw	r3, #28688	; 0x7010
 80016b8:	61fb      	str	r3, [r7, #28]
  GPIO_InitStruct.Mode = GPIO_MODE_OUTPUT_PP;
 80016ba:	2301      	movs	r3, #1
 80016bc:	623b      	str	r3, [r7, #32]
  GPIO_InitStruct.Pull = GPIO_NOPULL;
 80016be:	2300      	movs	r3, #0
 80016c0:	627b      	str	r3, [r7, #36]	; 0x24
  GPIO_InitStruct.Speed = GPIO_SPEED_FREQ_LOW;
 80016c2:	2300      	movs	r3, #0
 80016c4:	62bb      	str	r3, [r7, #40]	; 0x28
  HAL_GPIO_Init(GPIOD, &GPIO_InitStruct);
 80016c6:	f107 031c 	add.w	r3, r7, #28
 80016ca:	4619      	mov	r1, r3
 80016cc:	4816      	ldr	r0, [pc, #88]	; (8001728 <MX_GPIO_Init+0x214>)
 80016ce:	f001 fdaf 	bl	8003230 <HAL_GPIO_Init>

  /*Configure GPIO pin : OTG_FS_OverCurrent_Pin */
  GPIO_InitStruct.Pin = OTG_FS_OverCurrent_Pin;
 80016d2:	2320      	movs	r3, #32
 80016d4:	61fb      	str	r3, [r7, #28]
  GPIO_InitStruct.Mode = GPIO_MODE_INPUT;
 80016d6:	2300      	movs	r3, #0
 80016d8:	623b      	str	r3, [r7, #32]
  GPIO_InitStruct.Pull = GPIO_NOPULL;
 80016da:	2300      	movs	r3, #0
 80016dc:	627b      	str	r3, [r7, #36]	; 0x24
  HAL_GPIO_Init(OTG_FS_OverCurrent_GPIO_Port, &GPIO_InitStruct);
 80016de:	f107 031c 	add.w	r3, r7, #28
 80016e2:	4619      	mov	r1, r3
 80016e4:	4810      	ldr	r0, [pc, #64]	; (8001728 <MX_GPIO_Init+0x214>)
 80016e6:	f001 fda3 	bl	8003230 <HAL_GPIO_Init>

  /*Configure GPIO pin : MEMS_INT2_Pin */
  GPIO_InitStruct.Pin = MEMS_INT2_Pin;
 80016ea:	2302      	movs	r3, #2
 80016ec:	61fb      	str	r3, [r7, #28]
  GPIO_InitStruct.Mode = GPIO_MODE_EVT_RISING;
 80016ee:	4b0f      	ldr	r3, [pc, #60]	; (800172c <MX_GPIO_Init+0x218>)
 80016f0:	623b      	str	r3, [r7, #32]
  GPIO_InitStruct.Pull = GPIO_NOPULL;
 80016f2:	2300      	movs	r3, #0
 80016f4:	627b      	str	r3, [r7, #36]	; 0x24
  HAL_GPIO_Init(MEMS_INT2_GPIO_Port, &GPIO_InitStruct);
 80016f6:	f107 031c 	add.w	r3, r7, #28
 80016fa:	4619      	mov	r1, r3
 80016fc:	4808      	ldr	r0, [pc, #32]	; (8001720 <MX_GPIO_Init+0x20c>)
 80016fe:	f001 fd97 	bl	8003230 <HAL_GPIO_Init>

  /* EXTI interrupt init*/
  HAL_NVIC_SetPriority(EXTI3_IRQn, 0, 0);
 8001702:	2200      	movs	r2, #0
 8001704:	2100      	movs	r1, #0
 8001706:	2009      	movs	r0, #9
 8001708:	f001 f9ed 	bl	8002ae6 <HAL_NVIC_SetPriority>
  HAL_NVIC_EnableIRQ(EXTI3_IRQn);
 800170c:	2009      	movs	r0, #9
 800170e:	f001 fa06 	bl	8002b1e <HAL_NVIC_EnableIRQ>

}
 8001712:	bf00      	nop
 8001714:	3730      	adds	r7, #48	; 0x30
 8001716:	46bd      	mov	sp, r7
 8001718:	bd80      	pop	{r7, pc}
 800171a:	bf00      	nop
 800171c:	40023800 	.word	0x40023800
 8001720:	40021000 	.word	0x40021000
 8001724:	40020800 	.word	0x40020800
 8001728:	40020c00 	.word	0x40020c00
 800172c:	10120000 	.word	0x10120000
 8001730:	40020000 	.word	0x40020000
 8001734:	10110000 	.word	0x10110000
 8001738:	40020400 	.word	0x40020400

0800173c <HAL_ADC_ConvCpltCallback>:

/* USER CODE BEGIN 4 */
void HAL_ADC_ConvCpltCallback(ADC_HandleTypeDef* Adc_handle) {
 800173c:	b580      	push	{r7, lr}
 800173e:	b082      	sub	sp, #8
 8001740:	af00      	add	r7, sp, #0
 8001742:	6078      	str	r0, [r7, #4]
	// check if the adc handle is the one for the motor current sensor
	if(Adc_handle->Instance == hadc1.Instance) {
 8001744:	687b      	ldr	r3, [r7, #4]
 8001746:	681a      	ldr	r2, [r3, #0]
 8001748:	4b04      	ldr	r3, [pc, #16]	; (800175c <HAL_ADC_ConvCpltCallback+0x20>)
 800174a:	681b      	ldr	r3, [r3, #0]
 800174c:	429a      	cmp	r2, r3
 800174e:	d101      	bne.n	8001754 <HAL_ADC_ConvCpltCallback+0x18>
		senseMotorCurrentADCCallback();
 8001750:	f000 f826 	bl	80017a0 <senseMotorCurrentADCCallback>
		/* sprintf(msg, "%f A\r\n", motor_current);
		HAL_UART_Transmit(&huart2, (uint8_t*) msg, 20, 100); */
	}
}
 8001754:	bf00      	nop
 8001756:	3708      	adds	r7, #8
 8001758:	46bd      	mov	sp, r7
 800175a:	bd80      	pop	{r7, pc}
 800175c:	200002e0 	.word	0x200002e0

08001760 <Error_Handler>:
/**
  * @brief  This function is executed in case of error occurrence.
  * @retval None
  */
void Error_Handler(void)
{
 8001760:	b480      	push	{r7}
 8001762:	af00      	add	r7, sp, #0
  /* USER CODE BEGIN Error_Handler_Debug */
  /* User can add his own implementation to report the HAL error return state */

  /* USER CODE END Error_Handler_Debug */
}
 8001764:	bf00      	nop
 8001766:	46bd      	mov	sp, r7
 8001768:	f85d 7b04 	ldr.w	r7, [sp], #4
 800176c:	4770      	bx	lr
	...

08001770 <initialiseSenseMotorCurrent>:
 *      Author: user
 */

#include "sense_motor_current.h"

void initialiseSenseMotorCurrent(ADC_HandleTypeDef* h) {
 8001770:	b580      	push	{r7, lr}
 8001772:	b082      	sub	sp, #8
 8001774:	af00      	add	r7, sp, #0
 8001776:	6078      	str	r0, [r7, #4]
	hadc = h;
 8001778:	4a07      	ldr	r2, [pc, #28]	; (8001798 <initialiseSenseMotorCurrent+0x28>)
 800177a:	687b      	ldr	r3, [r7, #4]
 800177c:	6013      	str	r3, [r2, #0]
	HAL_ADC_Start_DMA(hadc, motor_current_sense_adc_buffer, MOTOR_CURRENT_SENSE_ADC_BUFFER_LENGTH);
 800177e:	4b06      	ldr	r3, [pc, #24]	; (8001798 <initialiseSenseMotorCurrent+0x28>)
 8001780:	681b      	ldr	r3, [r3, #0]
 8001782:	f44f 72fa 	mov.w	r2, #500	; 0x1f4
 8001786:	4905      	ldr	r1, [pc, #20]	; (800179c <initialiseSenseMotorCurrent+0x2c>)
 8001788:	4618      	mov	r0, r3
 800178a:	f000 fd2b 	bl	80021e4 <HAL_ADC_Start_DMA>
}
 800178e:	bf00      	nop
 8001790:	3708      	adds	r7, #8
 8001792:	46bd      	mov	sp, r7
 8001794:	bd80      	pop	{r7, pc}
 8001796:	bf00      	nop
 8001798:	20000bf8 	.word	0x20000bf8
 800179c:	2000038c 	.word	0x2000038c

080017a0 <senseMotorCurrentADCCallback>:

senseMotorCurrentADCCallback() {
 80017a0:	b590      	push	{r4, r7, lr}
 80017a2:	b085      	sub	sp, #20
 80017a4:	af00      	add	r7, sp, #0
	uint32_t counter = 0;
 80017a6:	2300      	movs	r3, #0
 80017a8:	60fb      	str	r3, [r7, #12]
	uint16_t i;
	for(i = 0; i < MOTOR_CURRENT_SENSE_ADC_BUFFER_LENGTH; i++) {
 80017aa:	2300      	movs	r3, #0
 80017ac:	817b      	strh	r3, [r7, #10]
 80017ae:	e009      	b.n	80017c4 <senseMotorCurrentADCCallback+0x24>
		counter += motor_current_sense_adc_buffer[i];
 80017b0:	897b      	ldrh	r3, [r7, #10]
 80017b2:	4a25      	ldr	r2, [pc, #148]	; (8001848 <senseMotorCurrentADCCallback+0xa8>)
 80017b4:	f852 3023 	ldr.w	r3, [r2, r3, lsl #2]
 80017b8:	68fa      	ldr	r2, [r7, #12]
 80017ba:	4413      	add	r3, r2
 80017bc:	60fb      	str	r3, [r7, #12]
	for(i = 0; i < MOTOR_CURRENT_SENSE_ADC_BUFFER_LENGTH; i++) {
 80017be:	897b      	ldrh	r3, [r7, #10]
 80017c0:	3301      	adds	r3, #1
 80017c2:	817b      	strh	r3, [r7, #10]
 80017c4:	897b      	ldrh	r3, [r7, #10]
 80017c6:	f5b3 7ffa 	cmp.w	r3, #500	; 0x1f4
 80017ca:	d3f1      	bcc.n	80017b0 <senseMotorCurrentADCCallback+0x10>
	}

	uint32_t adc_value = (uint32_t) (counter / MOTOR_CURRENT_SENSE_ADC_BUFFER_LENGTH);
 80017cc:	68fb      	ldr	r3, [r7, #12]
 80017ce:	4a1f      	ldr	r2, [pc, #124]	; (800184c <senseMotorCurrentADCCallback+0xac>)
 80017d0:	fba2 2303 	umull	r2, r3, r2, r3
 80017d4:	095b      	lsrs	r3, r3, #5
 80017d6:	607b      	str	r3, [r7, #4]
	float adc_voltage = 5.0 * adc_value / 4095.0;
 80017d8:	6878      	ldr	r0, [r7, #4]
 80017da:	f7fe fe93 	bl	8000504 <__aeabi_ui2d>
 80017de:	f04f 0200 	mov.w	r2, #0
 80017e2:	4b1b      	ldr	r3, [pc, #108]	; (8001850 <senseMotorCurrentADCCallback+0xb0>)
 80017e4:	f7fe ff08 	bl	80005f8 <__aeabi_dmul>
 80017e8:	4603      	mov	r3, r0
 80017ea:	460c      	mov	r4, r1
 80017ec:	4618      	mov	r0, r3
 80017ee:	4621      	mov	r1, r4
 80017f0:	a311      	add	r3, pc, #68	; (adr r3, 8001838 <senseMotorCurrentADCCallback+0x98>)
 80017f2:	e9d3 2300 	ldrd	r2, r3, [r3]
 80017f6:	f7ff f829 	bl	800084c <__aeabi_ddiv>
 80017fa:	4603      	mov	r3, r0
 80017fc:	460c      	mov	r4, r1
 80017fe:	4618      	mov	r0, r3
 8001800:	4621      	mov	r1, r4
 8001802:	f7ff f9d1 	bl	8000ba8 <__aeabi_d2f>
 8001806:	4603      	mov	r3, r0
 8001808:	603b      	str	r3, [r7, #0]
	motor_current = adc_voltage / MOTOR_CURRENT_SENSE_RESISTANCE;
 800180a:	6838      	ldr	r0, [r7, #0]
 800180c:	f7fe fe9c 	bl	8000548 <__aeabi_f2d>
 8001810:	a30b      	add	r3, pc, #44	; (adr r3, 8001840 <senseMotorCurrentADCCallback+0xa0>)
 8001812:	e9d3 2300 	ldrd	r2, r3, [r3]
 8001816:	f7ff f819 	bl	800084c <__aeabi_ddiv>
 800181a:	4603      	mov	r3, r0
 800181c:	460c      	mov	r4, r1
 800181e:	4618      	mov	r0, r3
 8001820:	4621      	mov	r1, r4
 8001822:	f7ff f9c1 	bl	8000ba8 <__aeabi_d2f>
 8001826:	4602      	mov	r2, r0
 8001828:	4b0a      	ldr	r3, [pc, #40]	; (8001854 <senseMotorCurrentADCCallback+0xb4>)
 800182a:	601a      	str	r2, [r3, #0]
}
 800182c:	bf00      	nop
 800182e:	3714      	adds	r7, #20
 8001830:	46bd      	mov	sp, r7
 8001832:	bd90      	pop	{r4, r7, pc}
 8001834:	f3af 8000 	nop.w
 8001838:	00000000 	.word	0x00000000
 800183c:	40affe00 	.word	0x40affe00
 8001840:	15379fa9 	.word	0x15379fa9
 8001844:	3f9630a9 	.word	0x3f9630a9
 8001848:	2000038c 	.word	0x2000038c
 800184c:	10624dd3 	.word	0x10624dd3
 8001850:	40140000 	.word	0x40140000
 8001854:	20000328 	.word	0x20000328

08001858 <setDutyCycle>:
static float currently_set_angle_d; //  not necessarily the current servo motor angle if we are in the middle of turning the motor

/*
 * internal utility functions, not for outside use
 */
void setDutyCycle(float duty_cycle) {
 8001858:	b480      	push	{r7}
 800185a:	b083      	sub	sp, #12
 800185c:	af00      	add	r7, sp, #0
 800185e:	ed87 0a01 	vstr	s0, [r7, #4]
	__HAL_TIM_SET_COMPARE(htim, TIM_CHANNEL_4, (uint16_t) STEERING_SERVO_MAX_COUNTER*duty_cycle);
 8001862:	edd7 7a01 	vldr	s15, [r7, #4]
 8001866:	ed9f 7a09 	vldr	s14, [pc, #36]	; 800188c <setDutyCycle+0x34>
 800186a:	ee67 7a87 	vmul.f32	s15, s15, s14
 800186e:	4b08      	ldr	r3, [pc, #32]	; (8001890 <setDutyCycle+0x38>)
 8001870:	681b      	ldr	r3, [r3, #0]
 8001872:	681b      	ldr	r3, [r3, #0]
 8001874:	eefc 7ae7 	vcvt.u32.f32	s15, s15
 8001878:	ee17 2a90 	vmov	r2, s15
 800187c:	641a      	str	r2, [r3, #64]	; 0x40
}
 800187e:	bf00      	nop
 8001880:	370c      	adds	r7, #12
 8001882:	46bd      	mov	sp, r7
 8001884:	f85d 7b04 	ldr.w	r7, [sp], #4
 8001888:	4770      	bx	lr
 800188a:	bf00      	nop
 800188c:	46810000 	.word	0x46810000
 8001890:	20000230 	.word	0x20000230

08001894 <initialiseServoControl>:

/*
 * PUBLICLY AVAILABLE FUNCTIONS
 */
void initialiseServoControl(TIM_HandleTypeDef* h) {
 8001894:	b580      	push	{r7, lr}
 8001896:	b082      	sub	sp, #8
 8001898:	af00      	add	r7, sp, #0
 800189a:	6078      	str	r0, [r7, #4]
	htim = h;
 800189c:	4a06      	ldr	r2, [pc, #24]	; (80018b8 <initialiseServoControl+0x24>)
 800189e:	687b      	ldr	r3, [r7, #4]
 80018a0:	6013      	str	r3, [r2, #0]
	HAL_TIM_PWM_Start(htim, TIM_CHANNEL_4);
 80018a2:	4b05      	ldr	r3, [pc, #20]	; (80018b8 <initialiseServoControl+0x24>)
 80018a4:	681b      	ldr	r3, [r3, #0]
 80018a6:	210c      	movs	r1, #12
 80018a8:	4618      	mov	r0, r3
 80018aa:	f004 ffd5 	bl	8006858 <HAL_TIM_PWM_Start>
}
 80018ae:	bf00      	nop
 80018b0:	3708      	adds	r7, #8
 80018b2:	46bd      	mov	sp, r7
 80018b4:	bd80      	pop	{r7, pc}
 80018b6:	bf00      	nop
 80018b8:	20000230 	.word	0x20000230
 80018bc:	00000000 	.word	0x00000000

080018c0 <setServoAngle>:

void setServoAngle(float angle_d) {
 80018c0:	b590      	push	{r4, r7, lr}
 80018c2:	b085      	sub	sp, #20
 80018c4:	af00      	add	r7, sp, #0
 80018c6:	ed87 0a01 	vstr	s0, [r7, #4]
	// convert the angle to a duty cycle
	float duty_cycle;
	if(angle_d <= STEERING_SERVO_MIN_ANGLE) {
 80018ca:	edd7 7a01 	vldr	s15, [r7, #4]
 80018ce:	ed9f 7a2a 	vldr	s14, [pc, #168]	; 8001978 <setServoAngle+0xb8>
 80018d2:	eef4 7ac7 	vcmpe.f32	s15, s14
 80018d6:	eef1 fa10 	vmrs	APSR_nzcv, fpscr
 80018da:	d805      	bhi.n	80018e8 <setServoAngle+0x28>
		duty_cycle = STEERING_SERVO_MIN_DC;
 80018dc:	4b27      	ldr	r3, [pc, #156]	; (800197c <setServoAngle+0xbc>)
 80018de:	60fb      	str	r3, [r7, #12]
		currently_set_angle_d = STEERING_SERVO_MIN_ANGLE;
 80018e0:	4b27      	ldr	r3, [pc, #156]	; (8001980 <setServoAngle+0xc0>)
 80018e2:	4a28      	ldr	r2, [pc, #160]	; (8001984 <setServoAngle+0xc4>)
 80018e4:	601a      	str	r2, [r3, #0]
 80018e6:	e03a      	b.n	800195e <setServoAngle+0x9e>
	} else if (angle_d >= STEERING_SERVO_MAX_ANGLE) {
 80018e8:	edd7 7a01 	vldr	s15, [r7, #4]
 80018ec:	ed9f 7a26 	vldr	s14, [pc, #152]	; 8001988 <setServoAngle+0xc8>
 80018f0:	eef4 7ac7 	vcmpe.f32	s15, s14
 80018f4:	eef1 fa10 	vmrs	APSR_nzcv, fpscr
 80018f8:	db05      	blt.n	8001906 <setServoAngle+0x46>
		duty_cycle = STEERING_SERVO_MAX_DC;
 80018fa:	4b24      	ldr	r3, [pc, #144]	; (800198c <setServoAngle+0xcc>)
 80018fc:	60fb      	str	r3, [r7, #12]
		currently_set_angle_d = STEERING_SERVO_MAX_ANGLE;
 80018fe:	4b20      	ldr	r3, [pc, #128]	; (8001980 <setServoAngle+0xc0>)
 8001900:	4a23      	ldr	r2, [pc, #140]	; (8001990 <setServoAngle+0xd0>)
 8001902:	601a      	str	r2, [r3, #0]
 8001904:	e02b      	b.n	800195e <setServoAngle+0x9e>
	} else {
		duty_cycle = STEERING_SERVO_MIN_DC + (STEERING_SERVO_MAX_DC - STEERING_SERVO_MIN_DC) * (angle_d - STEERING_SERVO_MIN_ANGLE)/(STEERING_SERVO_MAX_ANGLE - STEERING_SERVO_MIN_ANGLE);
 8001906:	edd7 7a01 	vldr	s15, [r7, #4]
 800190a:	ed9f 7a1f 	vldr	s14, [pc, #124]	; 8001988 <setServoAngle+0xc8>
 800190e:	ee77 7a87 	vadd.f32	s15, s15, s14
 8001912:	ee17 0a90 	vmov	r0, s15
 8001916:	f7fe fe17 	bl	8000548 <__aeabi_f2d>
 800191a:	a315      	add	r3, pc, #84	; (adr r3, 8001970 <setServoAngle+0xb0>)
 800191c:	e9d3 2300 	ldrd	r2, r3, [r3]
 8001920:	f7fe fe6a 	bl	80005f8 <__aeabi_dmul>
 8001924:	4603      	mov	r3, r0
 8001926:	460c      	mov	r4, r1
 8001928:	4618      	mov	r0, r3
 800192a:	4621      	mov	r1, r4
 800192c:	f04f 0200 	mov.w	r2, #0
 8001930:	4b18      	ldr	r3, [pc, #96]	; (8001994 <setServoAngle+0xd4>)
 8001932:	f7fe ff8b 	bl	800084c <__aeabi_ddiv>
 8001936:	4603      	mov	r3, r0
 8001938:	460c      	mov	r4, r1
 800193a:	4618      	mov	r0, r3
 800193c:	4621      	mov	r1, r4
 800193e:	a30c      	add	r3, pc, #48	; (adr r3, 8001970 <setServoAngle+0xb0>)
 8001940:	e9d3 2300 	ldrd	r2, r3, [r3]
 8001944:	f7fe fca2 	bl	800028c <__adddf3>
 8001948:	4603      	mov	r3, r0
 800194a:	460c      	mov	r4, r1
 800194c:	4618      	mov	r0, r3
 800194e:	4621      	mov	r1, r4
 8001950:	f7ff f92a 	bl	8000ba8 <__aeabi_d2f>
 8001954:	4603      	mov	r3, r0
 8001956:	60fb      	str	r3, [r7, #12]
		currently_set_angle_d = angle_d;
 8001958:	4a09      	ldr	r2, [pc, #36]	; (8001980 <setServoAngle+0xc0>)
 800195a:	687b      	ldr	r3, [r7, #4]
 800195c:	6013      	str	r3, [r2, #0]
	}

	// set the duty cycle for the PWM signal
	setDutyCycle(duty_cycle);
 800195e:	ed97 0a03 	vldr	s0, [r7, #12]
 8001962:	f7ff ff79 	bl	8001858 <setDutyCycle>
}
 8001966:	bf00      	nop
 8001968:	3714      	adds	r7, #20
 800196a:	46bd      	mov	sp, r7
 800196c:	bd90      	pop	{r4, r7, pc}
 800196e:	bf00      	nop
 8001970:	9999999a 	.word	0x9999999a
 8001974:	3fa99999 	.word	0x3fa99999
 8001978:	c2b40000 	.word	0xc2b40000
 800197c:	3d4ccccd 	.word	0x3d4ccccd
 8001980:	20000234 	.word	0x20000234
 8001984:	c2b40000 	.word	0xc2b40000
 8001988:	42b40000 	.word	0x42b40000
 800198c:	3dcccccd 	.word	0x3dcccccd
 8001990:	42b40000 	.word	0x42b40000
 8001994:	40668000 	.word	0x40668000

08001998 <HAL_MspInit>:
void HAL_TIM_MspPostInit(TIM_HandleTypeDef *htim);
                    /**
  * Initializes the Global MSP.
  */
void HAL_MspInit(void)
{
 8001998:	b580      	push	{r7, lr}
 800199a:	b082      	sub	sp, #8
 800199c:	af00      	add	r7, sp, #0
  /* USER CODE BEGIN MspInit 0 */

  /* USER CODE END MspInit 0 */

  __HAL_RCC_SYSCFG_CLK_ENABLE();
 800199e:	2300      	movs	r3, #0
 80019a0:	607b      	str	r3, [r7, #4]
 80019a2:	4b10      	ldr	r3, [pc, #64]	; (80019e4 <HAL_MspInit+0x4c>)
 80019a4:	6c5b      	ldr	r3, [r3, #68]	; 0x44
 80019a6:	4a0f      	ldr	r2, [pc, #60]	; (80019e4 <HAL_MspInit+0x4c>)
 80019a8:	f443 4380 	orr.w	r3, r3, #16384	; 0x4000
 80019ac:	6453      	str	r3, [r2, #68]	; 0x44
 80019ae:	4b0d      	ldr	r3, [pc, #52]	; (80019e4 <HAL_MspInit+0x4c>)
 80019b0:	6c5b      	ldr	r3, [r3, #68]	; 0x44
 80019b2:	f403 4380 	and.w	r3, r3, #16384	; 0x4000
 80019b6:	607b      	str	r3, [r7, #4]
 80019b8:	687b      	ldr	r3, [r7, #4]
  __HAL_RCC_PWR_CLK_ENABLE();
 80019ba:	2300      	movs	r3, #0
 80019bc:	603b      	str	r3, [r7, #0]
 80019be:	4b09      	ldr	r3, [pc, #36]	; (80019e4 <HAL_MspInit+0x4c>)
 80019c0:	6c1b      	ldr	r3, [r3, #64]	; 0x40
 80019c2:	4a08      	ldr	r2, [pc, #32]	; (80019e4 <HAL_MspInit+0x4c>)
 80019c4:	f043 5380 	orr.w	r3, r3, #268435456	; 0x10000000
 80019c8:	6413      	str	r3, [r2, #64]	; 0x40
 80019ca:	4b06      	ldr	r3, [pc, #24]	; (80019e4 <HAL_MspInit+0x4c>)
 80019cc:	6c1b      	ldr	r3, [r3, #64]	; 0x40
 80019ce:	f003 5380 	and.w	r3, r3, #268435456	; 0x10000000
 80019d2:	603b      	str	r3, [r7, #0]
 80019d4:	683b      	ldr	r3, [r7, #0]

  HAL_NVIC_SetPriorityGrouping(NVIC_PRIORITYGROUP_0);
 80019d6:	2007      	movs	r0, #7
 80019d8:	f001 f87a 	bl	8002ad0 <HAL_NVIC_SetPriorityGrouping>
  /* System interrupt init*/

  /* USER CODE BEGIN MspInit 1 */

  /* USER CODE END MspInit 1 */
}
 80019dc:	bf00      	nop
 80019de:	3708      	adds	r7, #8
 80019e0:	46bd      	mov	sp, r7
 80019e2:	bd80      	pop	{r7, pc}
 80019e4:	40023800 	.word	0x40023800

080019e8 <HAL_ADC_MspInit>:
* This function configures the hardware resources used in this example
* @param hadc: ADC handle pointer
* @retval None
*/
void HAL_ADC_MspInit(ADC_HandleTypeDef* hadc)
{
 80019e8:	b580      	push	{r7, lr}
 80019ea:	b08a      	sub	sp, #40	; 0x28
 80019ec:	af00      	add	r7, sp, #0
 80019ee:	6078      	str	r0, [r7, #4]
  GPIO_InitTypeDef GPIO_InitStruct = {0};
 80019f0:	f107 0314 	add.w	r3, r7, #20
 80019f4:	2200      	movs	r2, #0
 80019f6:	601a      	str	r2, [r3, #0]
 80019f8:	605a      	str	r2, [r3, #4]
 80019fa:	609a      	str	r2, [r3, #8]
 80019fc:	60da      	str	r2, [r3, #12]
 80019fe:	611a      	str	r2, [r3, #16]
  if(hadc->Instance==ADC1)
 8001a00:	687b      	ldr	r3, [r7, #4]
 8001a02:	681b      	ldr	r3, [r3, #0]
 8001a04:	4a2f      	ldr	r2, [pc, #188]	; (8001ac4 <HAL_ADC_MspInit+0xdc>)
 8001a06:	4293      	cmp	r3, r2
 8001a08:	d158      	bne.n	8001abc <HAL_ADC_MspInit+0xd4>
  {
  /* USER CODE BEGIN ADC1_MspInit 0 */

  /* USER CODE END ADC1_MspInit 0 */
    /* Peripheral clock enable */
    __HAL_RCC_ADC1_CLK_ENABLE();
 8001a0a:	2300      	movs	r3, #0
 8001a0c:	613b      	str	r3, [r7, #16]
 8001a0e:	4b2e      	ldr	r3, [pc, #184]	; (8001ac8 <HAL_ADC_MspInit+0xe0>)
 8001a10:	6c5b      	ldr	r3, [r3, #68]	; 0x44
 8001a12:	4a2d      	ldr	r2, [pc, #180]	; (8001ac8 <HAL_ADC_MspInit+0xe0>)
 8001a14:	f443 7380 	orr.w	r3, r3, #256	; 0x100
 8001a18:	6453      	str	r3, [r2, #68]	; 0x44
 8001a1a:	4b2b      	ldr	r3, [pc, #172]	; (8001ac8 <HAL_ADC_MspInit+0xe0>)
 8001a1c:	6c5b      	ldr	r3, [r3, #68]	; 0x44
 8001a1e:	f403 7380 	and.w	r3, r3, #256	; 0x100
 8001a22:	613b      	str	r3, [r7, #16]
 8001a24:	693b      	ldr	r3, [r7, #16]

    __HAL_RCC_GPIOA_CLK_ENABLE();
 8001a26:	2300      	movs	r3, #0
 8001a28:	60fb      	str	r3, [r7, #12]
 8001a2a:	4b27      	ldr	r3, [pc, #156]	; (8001ac8 <HAL_ADC_MspInit+0xe0>)
 8001a2c:	6b1b      	ldr	r3, [r3, #48]	; 0x30
 8001a2e:	4a26      	ldr	r2, [pc, #152]	; (8001ac8 <HAL_ADC_MspInit+0xe0>)
 8001a30:	f043 0301 	orr.w	r3, r3, #1
 8001a34:	6313      	str	r3, [r2, #48]	; 0x30
 8001a36:	4b24      	ldr	r3, [pc, #144]	; (8001ac8 <HAL_ADC_MspInit+0xe0>)
 8001a38:	6b1b      	ldr	r3, [r3, #48]	; 0x30
 8001a3a:	f003 0301 	and.w	r3, r3, #1
 8001a3e:	60fb      	str	r3, [r7, #12]
 8001a40:	68fb      	ldr	r3, [r7, #12]
    /**ADC1 GPIO Configuration
    PA1     ------> ADC1_IN1
    */
    GPIO_InitStruct.Pin = GPIO_PIN_1;
 8001a42:	2302      	movs	r3, #2
 8001a44:	617b      	str	r3, [r7, #20]
    GPIO_InitStruct.Mode = GPIO_MODE_ANALOG;
 8001a46:	2303      	movs	r3, #3
 8001a48:	61bb      	str	r3, [r7, #24]
    GPIO_InitStruct.Pull = GPIO_NOPULL;
 8001a4a:	2300      	movs	r3, #0
 8001a4c:	61fb      	str	r3, [r7, #28]
    HAL_GPIO_Init(GPIOA, &GPIO_InitStruct);
 8001a4e:	f107 0314 	add.w	r3, r7, #20
 8001a52:	4619      	mov	r1, r3
 8001a54:	481d      	ldr	r0, [pc, #116]	; (8001acc <HAL_ADC_MspInit+0xe4>)
 8001a56:	f001 fbeb 	bl	8003230 <HAL_GPIO_Init>

    /* ADC1 DMA Init */
    /* ADC1 Init */
    hdma_adc1.Instance = DMA2_Stream4;
 8001a5a:	4b1d      	ldr	r3, [pc, #116]	; (8001ad0 <HAL_ADC_MspInit+0xe8>)
 8001a5c:	4a1d      	ldr	r2, [pc, #116]	; (8001ad4 <HAL_ADC_MspInit+0xec>)
 8001a5e:	601a      	str	r2, [r3, #0]
    hdma_adc1.Init.Channel = DMA_CHANNEL_0;
 8001a60:	4b1b      	ldr	r3, [pc, #108]	; (8001ad0 <HAL_ADC_MspInit+0xe8>)
 8001a62:	2200      	movs	r2, #0
 8001a64:	605a      	str	r2, [r3, #4]
    hdma_adc1.Init.Direction = DMA_PERIPH_TO_MEMORY;
 8001a66:	4b1a      	ldr	r3, [pc, #104]	; (8001ad0 <HAL_ADC_MspInit+0xe8>)
 8001a68:	2200      	movs	r2, #0
 8001a6a:	609a      	str	r2, [r3, #8]
    hdma_adc1.Init.PeriphInc = DMA_PINC_DISABLE;
 8001a6c:	4b18      	ldr	r3, [pc, #96]	; (8001ad0 <HAL_ADC_MspInit+0xe8>)
 8001a6e:	2200      	movs	r2, #0
 8001a70:	60da      	str	r2, [r3, #12]
    hdma_adc1.Init.MemInc = DMA_MINC_ENABLE;
 8001a72:	4b17      	ldr	r3, [pc, #92]	; (8001ad0 <HAL_ADC_MspInit+0xe8>)
 8001a74:	f44f 6280 	mov.w	r2, #1024	; 0x400
 8001a78:	611a      	str	r2, [r3, #16]
    hdma_adc1.Init.PeriphDataAlignment = DMA_PDATAALIGN_WORD;
 8001a7a:	4b15      	ldr	r3, [pc, #84]	; (8001ad0 <HAL_ADC_MspInit+0xe8>)
 8001a7c:	f44f 5280 	mov.w	r2, #4096	; 0x1000
 8001a80:	615a      	str	r2, [r3, #20]
    hdma_adc1.Init.MemDataAlignment = DMA_MDATAALIGN_WORD;
 8001a82:	4b13      	ldr	r3, [pc, #76]	; (8001ad0 <HAL_ADC_MspInit+0xe8>)
 8001a84:	f44f 4280 	mov.w	r2, #16384	; 0x4000
 8001a88:	619a      	str	r2, [r3, #24]
    hdma_adc1.Init.Mode = DMA_CIRCULAR;
 8001a8a:	4b11      	ldr	r3, [pc, #68]	; (8001ad0 <HAL_ADC_MspInit+0xe8>)
 8001a8c:	f44f 7280 	mov.w	r2, #256	; 0x100
 8001a90:	61da      	str	r2, [r3, #28]
    hdma_adc1.Init.Priority = DMA_PRIORITY_HIGH;
 8001a92:	4b0f      	ldr	r3, [pc, #60]	; (8001ad0 <HAL_ADC_MspInit+0xe8>)
 8001a94:	f44f 3200 	mov.w	r2, #131072	; 0x20000
 8001a98:	621a      	str	r2, [r3, #32]
    hdma_adc1.Init.FIFOMode = DMA_FIFOMODE_DISABLE;
 8001a9a:	4b0d      	ldr	r3, [pc, #52]	; (8001ad0 <HAL_ADC_MspInit+0xe8>)
 8001a9c:	2200      	movs	r2, #0
 8001a9e:	625a      	str	r2, [r3, #36]	; 0x24
    if (HAL_DMA_Init(&hdma_adc1) != HAL_OK)
 8001aa0:	480b      	ldr	r0, [pc, #44]	; (8001ad0 <HAL_ADC_MspInit+0xe8>)
 8001aa2:	f001 f857 	bl	8002b54 <HAL_DMA_Init>
 8001aa6:	4603      	mov	r3, r0
 8001aa8:	2b00      	cmp	r3, #0
 8001aaa:	d001      	beq.n	8001ab0 <HAL_ADC_MspInit+0xc8>
    {
      Error_Handler();
 8001aac:	f7ff fe58 	bl	8001760 <Error_Handler>
    }

    __HAL_LINKDMA(hadc,DMA_Handle,hdma_adc1);
 8001ab0:	687b      	ldr	r3, [r7, #4]
 8001ab2:	4a07      	ldr	r2, [pc, #28]	; (8001ad0 <HAL_ADC_MspInit+0xe8>)
 8001ab4:	639a      	str	r2, [r3, #56]	; 0x38
 8001ab6:	4a06      	ldr	r2, [pc, #24]	; (8001ad0 <HAL_ADC_MspInit+0xe8>)
 8001ab8:	687b      	ldr	r3, [r7, #4]
 8001aba:	6393      	str	r3, [r2, #56]	; 0x38
  /* USER CODE BEGIN ADC1_MspInit 1 */

  /* USER CODE END ADC1_MspInit 1 */
  }

}
 8001abc:	bf00      	nop
 8001abe:	3728      	adds	r7, #40	; 0x28
 8001ac0:	46bd      	mov	sp, r7
 8001ac2:	bd80      	pop	{r7, pc}
 8001ac4:	40012000 	.word	0x40012000
 8001ac8:	40023800 	.word	0x40023800
 8001acc:	40020000 	.word	0x40020000
 8001ad0:	2000032c 	.word	0x2000032c
 8001ad4:	40026470 	.word	0x40026470

08001ad8 <HAL_I2C_MspInit>:
* This function configures the hardware resources used in this example
* @param hi2c: I2C handle pointer
* @retval None
*/
void HAL_I2C_MspInit(I2C_HandleTypeDef* hi2c)
{
 8001ad8:	b580      	push	{r7, lr}
 8001ada:	b08a      	sub	sp, #40	; 0x28
 8001adc:	af00      	add	r7, sp, #0
 8001ade:	6078      	str	r0, [r7, #4]
  GPIO_InitTypeDef GPIO_InitStruct = {0};
 8001ae0:	f107 0314 	add.w	r3, r7, #20
 8001ae4:	2200      	movs	r2, #0
 8001ae6:	601a      	str	r2, [r3, #0]
 8001ae8:	605a      	str	r2, [r3, #4]
 8001aea:	609a      	str	r2, [r3, #8]
 8001aec:	60da      	str	r2, [r3, #12]
 8001aee:	611a      	str	r2, [r3, #16]
  if(hi2c->Instance==I2C1)
 8001af0:	687b      	ldr	r3, [r7, #4]
 8001af2:	681b      	ldr	r3, [r3, #0]
 8001af4:	4a19      	ldr	r2, [pc, #100]	; (8001b5c <HAL_I2C_MspInit+0x84>)
 8001af6:	4293      	cmp	r3, r2
 8001af8:	d12c      	bne.n	8001b54 <HAL_I2C_MspInit+0x7c>
  {
  /* USER CODE BEGIN I2C1_MspInit 0 */

  /* USER CODE END I2C1_MspInit 0 */

    __HAL_RCC_GPIOB_CLK_ENABLE();
 8001afa:	2300      	movs	r3, #0
 8001afc:	613b      	str	r3, [r7, #16]
 8001afe:	4b18      	ldr	r3, [pc, #96]	; (8001b60 <HAL_I2C_MspInit+0x88>)
 8001b00:	6b1b      	ldr	r3, [r3, #48]	; 0x30
 8001b02:	4a17      	ldr	r2, [pc, #92]	; (8001b60 <HAL_I2C_MspInit+0x88>)
 8001b04:	f043 0302 	orr.w	r3, r3, #2
 8001b08:	6313      	str	r3, [r2, #48]	; 0x30
 8001b0a:	4b15      	ldr	r3, [pc, #84]	; (8001b60 <HAL_I2C_MspInit+0x88>)
 8001b0c:	6b1b      	ldr	r3, [r3, #48]	; 0x30
 8001b0e:	f003 0302 	and.w	r3, r3, #2
 8001b12:	613b      	str	r3, [r7, #16]
 8001b14:	693b      	ldr	r3, [r7, #16]
    /**I2C1 GPIO Configuration
    PB6     ------> I2C1_SCL
    PB9     ------> I2C1_SDA
    */
    GPIO_InitStruct.Pin = Audio_SCL_Pin|Audio_SDA_Pin;
 8001b16:	f44f 7310 	mov.w	r3, #576	; 0x240
 8001b1a:	617b      	str	r3, [r7, #20]
    GPIO_InitStruct.Mode = GPIO_MODE_AF_OD;
 8001b1c:	2312      	movs	r3, #18
 8001b1e:	61bb      	str	r3, [r7, #24]
    GPIO_InitStruct.Pull = GPIO_PULLUP;
 8001b20:	2301      	movs	r3, #1
 8001b22:	61fb      	str	r3, [r7, #28]
    GPIO_InitStruct.Speed = GPIO_SPEED_FREQ_LOW;
 8001b24:	2300      	movs	r3, #0
 8001b26:	623b      	str	r3, [r7, #32]
    GPIO_InitStruct.Alternate = GPIO_AF4_I2C1;
 8001b28:	2304      	movs	r3, #4
 8001b2a:	627b      	str	r3, [r7, #36]	; 0x24
    HAL_GPIO_Init(GPIOB, &GPIO_InitStruct);
 8001b2c:	f107 0314 	add.w	r3, r7, #20
 8001b30:	4619      	mov	r1, r3
 8001b32:	480c      	ldr	r0, [pc, #48]	; (8001b64 <HAL_I2C_MspInit+0x8c>)
 8001b34:	f001 fb7c 	bl	8003230 <HAL_GPIO_Init>

    /* Peripheral clock enable */
    __HAL_RCC_I2C1_CLK_ENABLE();
 8001b38:	2300      	movs	r3, #0
 8001b3a:	60fb      	str	r3, [r7, #12]
 8001b3c:	4b08      	ldr	r3, [pc, #32]	; (8001b60 <HAL_I2C_MspInit+0x88>)
 8001b3e:	6c1b      	ldr	r3, [r3, #64]	; 0x40
 8001b40:	4a07      	ldr	r2, [pc, #28]	; (8001b60 <HAL_I2C_MspInit+0x88>)
 8001b42:	f443 1300 	orr.w	r3, r3, #2097152	; 0x200000
 8001b46:	6413      	str	r3, [r2, #64]	; 0x40
 8001b48:	4b05      	ldr	r3, [pc, #20]	; (8001b60 <HAL_I2C_MspInit+0x88>)
 8001b4a:	6c1b      	ldr	r3, [r3, #64]	; 0x40
 8001b4c:	f403 1300 	and.w	r3, r3, #2097152	; 0x200000
 8001b50:	60fb      	str	r3, [r7, #12]
 8001b52:	68fb      	ldr	r3, [r7, #12]
  /* USER CODE BEGIN I2C1_MspInit 1 */

  /* USER CODE END I2C1_MspInit 1 */
  }

}
 8001b54:	bf00      	nop
 8001b56:	3728      	adds	r7, #40	; 0x28
 8001b58:	46bd      	mov	sp, r7
 8001b5a:	bd80      	pop	{r7, pc}
 8001b5c:	40005400 	.word	0x40005400
 8001b60:	40023800 	.word	0x40023800
 8001b64:	40020400 	.word	0x40020400

08001b68 <HAL_I2S_MspInit>:
* This function configures the hardware resources used in this example
* @param hi2s: I2S handle pointer
* @retval None
*/
void HAL_I2S_MspInit(I2S_HandleTypeDef* hi2s)
{
 8001b68:	b580      	push	{r7, lr}
 8001b6a:	b08a      	sub	sp, #40	; 0x28
 8001b6c:	af00      	add	r7, sp, #0
 8001b6e:	6078      	str	r0, [r7, #4]
  GPIO_InitTypeDef GPIO_InitStruct = {0};
 8001b70:	f107 0314 	add.w	r3, r7, #20
 8001b74:	2200      	movs	r2, #0
 8001b76:	601a      	str	r2, [r3, #0]
 8001b78:	605a      	str	r2, [r3, #4]
 8001b7a:	609a      	str	r2, [r3, #8]
 8001b7c:	60da      	str	r2, [r3, #12]
 8001b7e:	611a      	str	r2, [r3, #16]
  if(hi2s->Instance==SPI3)
 8001b80:	687b      	ldr	r3, [r7, #4]
 8001b82:	681b      	ldr	r3, [r3, #0]
 8001b84:	4a28      	ldr	r2, [pc, #160]	; (8001c28 <HAL_I2S_MspInit+0xc0>)
 8001b86:	4293      	cmp	r3, r2
 8001b88:	d14a      	bne.n	8001c20 <HAL_I2S_MspInit+0xb8>
  {
  /* USER CODE BEGIN SPI3_MspInit 0 */

  /* USER CODE END SPI3_MspInit 0 */
    /* Peripheral clock enable */
    __HAL_RCC_SPI3_CLK_ENABLE();
 8001b8a:	2300      	movs	r3, #0
 8001b8c:	613b      	str	r3, [r7, #16]
 8001b8e:	4b27      	ldr	r3, [pc, #156]	; (8001c2c <HAL_I2S_MspInit+0xc4>)
 8001b90:	6c1b      	ldr	r3, [r3, #64]	; 0x40
 8001b92:	4a26      	ldr	r2, [pc, #152]	; (8001c2c <HAL_I2S_MspInit+0xc4>)
 8001b94:	f443 4300 	orr.w	r3, r3, #32768	; 0x8000
 8001b98:	6413      	str	r3, [r2, #64]	; 0x40
 8001b9a:	4b24      	ldr	r3, [pc, #144]	; (8001c2c <HAL_I2S_MspInit+0xc4>)
 8001b9c:	6c1b      	ldr	r3, [r3, #64]	; 0x40
 8001b9e:	f403 4300 	and.w	r3, r3, #32768	; 0x8000
 8001ba2:	613b      	str	r3, [r7, #16]
 8001ba4:	693b      	ldr	r3, [r7, #16]

    __HAL_RCC_GPIOA_CLK_ENABLE();
 8001ba6:	2300      	movs	r3, #0
 8001ba8:	60fb      	str	r3, [r7, #12]
 8001baa:	4b20      	ldr	r3, [pc, #128]	; (8001c2c <HAL_I2S_MspInit+0xc4>)
 8001bac:	6b1b      	ldr	r3, [r3, #48]	; 0x30
 8001bae:	4a1f      	ldr	r2, [pc, #124]	; (8001c2c <HAL_I2S_MspInit+0xc4>)
 8001bb0:	f043 0301 	orr.w	r3, r3, #1
 8001bb4:	6313      	str	r3, [r2, #48]	; 0x30
 8001bb6:	4b1d      	ldr	r3, [pc, #116]	; (8001c2c <HAL_I2S_MspInit+0xc4>)
 8001bb8:	6b1b      	ldr	r3, [r3, #48]	; 0x30
 8001bba:	f003 0301 	and.w	r3, r3, #1
 8001bbe:	60fb      	str	r3, [r7, #12]
 8001bc0:	68fb      	ldr	r3, [r7, #12]
    __HAL_RCC_GPIOC_CLK_ENABLE();
 8001bc2:	2300      	movs	r3, #0
 8001bc4:	60bb      	str	r3, [r7, #8]
 8001bc6:	4b19      	ldr	r3, [pc, #100]	; (8001c2c <HAL_I2S_MspInit+0xc4>)
 8001bc8:	6b1b      	ldr	r3, [r3, #48]	; 0x30
 8001bca:	4a18      	ldr	r2, [pc, #96]	; (8001c2c <HAL_I2S_MspInit+0xc4>)
 8001bcc:	f043 0304 	orr.w	r3, r3, #4
 8001bd0:	6313      	str	r3, [r2, #48]	; 0x30
 8001bd2:	4b16      	ldr	r3, [pc, #88]	; (8001c2c <HAL_I2S_MspInit+0xc4>)
 8001bd4:	6b1b      	ldr	r3, [r3, #48]	; 0x30
 8001bd6:	f003 0304 	and.w	r3, r3, #4
 8001bda:	60bb      	str	r3, [r7, #8]
 8001bdc:	68bb      	ldr	r3, [r7, #8]
    PA4     ------> I2S3_WS
    PC7     ------> I2S3_MCK
    PC10     ------> I2S3_CK
    PC12     ------> I2S3_SD
    */
    GPIO_InitStruct.Pin = I2S3_WS_Pin;
 8001bde:	2310      	movs	r3, #16
 8001be0:	617b      	str	r3, [r7, #20]
    GPIO_InitStruct.Mode = GPIO_MODE_AF_PP;
 8001be2:	2302      	movs	r3, #2
 8001be4:	61bb      	str	r3, [r7, #24]
    GPIO_InitStruct.Pull = GPIO_NOPULL;
 8001be6:	2300      	movs	r3, #0
 8001be8:	61fb      	str	r3, [r7, #28]
    GPIO_InitStruct.Speed = GPIO_SPEED_FREQ_LOW;
 8001bea:	2300      	movs	r3, #0
 8001bec:	623b      	str	r3, [r7, #32]
    GPIO_InitStruct.Alternate = GPIO_AF6_SPI3;
 8001bee:	2306      	movs	r3, #6
 8001bf0:	627b      	str	r3, [r7, #36]	; 0x24
    HAL_GPIO_Init(I2S3_WS_GPIO_Port, &GPIO_InitStruct);
 8001bf2:	f107 0314 	add.w	r3, r7, #20
 8001bf6:	4619      	mov	r1, r3
 8001bf8:	480d      	ldr	r0, [pc, #52]	; (8001c30 <HAL_I2S_MspInit+0xc8>)
 8001bfa:	f001 fb19 	bl	8003230 <HAL_GPIO_Init>

    GPIO_InitStruct.Pin = I2S3_MCK_Pin|I2S3_SCK_Pin|I2S3_SD_Pin;
 8001bfe:	f44f 53a4 	mov.w	r3, #5248	; 0x1480
 8001c02:	617b      	str	r3, [r7, #20]
    GPIO_InitStruct.Mode = GPIO_MODE_AF_PP;
 8001c04:	2302      	movs	r3, #2
 8001c06:	61bb      	str	r3, [r7, #24]
    GPIO_InitStruct.Pull = GPIO_NOPULL;
 8001c08:	2300      	movs	r3, #0
 8001c0a:	61fb      	str	r3, [r7, #28]
    GPIO_InitStruct.Speed = GPIO_SPEED_FREQ_LOW;
 8001c0c:	2300      	movs	r3, #0
 8001c0e:	623b      	str	r3, [r7, #32]
    GPIO_InitStruct.Alternate = GPIO_AF6_SPI3;
 8001c10:	2306      	movs	r3, #6
 8001c12:	627b      	str	r3, [r7, #36]	; 0x24
    HAL_GPIO_Init(GPIOC, &GPIO_InitStruct);
 8001c14:	f107 0314 	add.w	r3, r7, #20
 8001c18:	4619      	mov	r1, r3
 8001c1a:	4806      	ldr	r0, [pc, #24]	; (8001c34 <HAL_I2S_MspInit+0xcc>)
 8001c1c:	f001 fb08 	bl	8003230 <HAL_GPIO_Init>
  /* USER CODE BEGIN SPI3_MspInit 1 */

  /* USER CODE END SPI3_MspInit 1 */
  }

}
 8001c20:	bf00      	nop
 8001c22:	3728      	adds	r7, #40	; 0x28
 8001c24:	46bd      	mov	sp, r7
 8001c26:	bd80      	pop	{r7, pc}
 8001c28:	40003c00 	.word	0x40003c00
 8001c2c:	40023800 	.word	0x40023800
 8001c30:	40020000 	.word	0x40020000
 8001c34:	40020800 	.word	0x40020800

08001c38 <HAL_SPI_MspInit>:
* This function configures the hardware resources used in this example
* @param hspi: SPI handle pointer
* @retval None
*/
void HAL_SPI_MspInit(SPI_HandleTypeDef* hspi)
{
 8001c38:	b580      	push	{r7, lr}
 8001c3a:	b08a      	sub	sp, #40	; 0x28
 8001c3c:	af00      	add	r7, sp, #0
 8001c3e:	6078      	str	r0, [r7, #4]
  GPIO_InitTypeDef GPIO_InitStruct = {0};
 8001c40:	f107 0314 	add.w	r3, r7, #20
 8001c44:	2200      	movs	r2, #0
 8001c46:	601a      	str	r2, [r3, #0]
 8001c48:	605a      	str	r2, [r3, #4]
 8001c4a:	609a      	str	r2, [r3, #8]
 8001c4c:	60da      	str	r2, [r3, #12]
 8001c4e:	611a      	str	r2, [r3, #16]
  if(hspi->Instance==SPI1)
 8001c50:	687b      	ldr	r3, [r7, #4]
 8001c52:	681b      	ldr	r3, [r3, #0]
 8001c54:	4a19      	ldr	r2, [pc, #100]	; (8001cbc <HAL_SPI_MspInit+0x84>)
 8001c56:	4293      	cmp	r3, r2
 8001c58:	d12b      	bne.n	8001cb2 <HAL_SPI_MspInit+0x7a>
  {
  /* USER CODE BEGIN SPI1_MspInit 0 */

  /* USER CODE END SPI1_MspInit 0 */
    /* Peripheral clock enable */
    __HAL_RCC_SPI1_CLK_ENABLE();
 8001c5a:	2300      	movs	r3, #0
 8001c5c:	613b      	str	r3, [r7, #16]
 8001c5e:	4b18      	ldr	r3, [pc, #96]	; (8001cc0 <HAL_SPI_MspInit+0x88>)
 8001c60:	6c5b      	ldr	r3, [r3, #68]	; 0x44
 8001c62:	4a17      	ldr	r2, [pc, #92]	; (8001cc0 <HAL_SPI_MspInit+0x88>)
 8001c64:	f443 5380 	orr.w	r3, r3, #4096	; 0x1000
 8001c68:	6453      	str	r3, [r2, #68]	; 0x44
 8001c6a:	4b15      	ldr	r3, [pc, #84]	; (8001cc0 <HAL_SPI_MspInit+0x88>)
 8001c6c:	6c5b      	ldr	r3, [r3, #68]	; 0x44
 8001c6e:	f403 5380 	and.w	r3, r3, #4096	; 0x1000
 8001c72:	613b      	str	r3, [r7, #16]
 8001c74:	693b      	ldr	r3, [r7, #16]

    __HAL_RCC_GPIOA_CLK_ENABLE();
 8001c76:	2300      	movs	r3, #0
 8001c78:	60fb      	str	r3, [r7, #12]
 8001c7a:	4b11      	ldr	r3, [pc, #68]	; (8001cc0 <HAL_SPI_MspInit+0x88>)
 8001c7c:	6b1b      	ldr	r3, [r3, #48]	; 0x30
 8001c7e:	4a10      	ldr	r2, [pc, #64]	; (8001cc0 <HAL_SPI_MspInit+0x88>)
 8001c80:	f043 0301 	orr.w	r3, r3, #1
 8001c84:	6313      	str	r3, [r2, #48]	; 0x30
 8001c86:	4b0e      	ldr	r3, [pc, #56]	; (8001cc0 <HAL_SPI_MspInit+0x88>)
 8001c88:	6b1b      	ldr	r3, [r3, #48]	; 0x30
 8001c8a:	f003 0301 	and.w	r3, r3, #1
 8001c8e:	60fb      	str	r3, [r7, #12]
 8001c90:	68fb      	ldr	r3, [r7, #12]
    /**SPI1 GPIO Configuration
    PA5     ------> SPI1_SCK
    PA6     ------> SPI1_MISO
    PA7     ------> SPI1_MOSI
    */
    GPIO_InitStruct.Pin = SPI1_SCK_Pin|SPI1_MISO_Pin|SPI1_MOSI_Pin;
 8001c92:	23e0      	movs	r3, #224	; 0xe0
 8001c94:	617b      	str	r3, [r7, #20]
    GPIO_InitStruct.Mode = GPIO_MODE_AF_PP;
 8001c96:	2302      	movs	r3, #2
 8001c98:	61bb      	str	r3, [r7, #24]
    GPIO_InitStruct.Pull = GPIO_NOPULL;
 8001c9a:	2300      	movs	r3, #0
 8001c9c:	61fb      	str	r3, [r7, #28]
    GPIO_InitStruct.Speed = GPIO_SPEED_FREQ_LOW;
 8001c9e:	2300      	movs	r3, #0
 8001ca0:	623b      	str	r3, [r7, #32]
    GPIO_InitStruct.Alternate = GPIO_AF5_SPI1;
 8001ca2:	2305      	movs	r3, #5
 8001ca4:	627b      	str	r3, [r7, #36]	; 0x24
    HAL_GPIO_Init(GPIOA, &GPIO_InitStruct);
 8001ca6:	f107 0314 	add.w	r3, r7, #20
 8001caa:	4619      	mov	r1, r3
 8001cac:	4805      	ldr	r0, [pc, #20]	; (8001cc4 <HAL_SPI_MspInit+0x8c>)
 8001cae:	f001 fabf 	bl	8003230 <HAL_GPIO_Init>
  /* USER CODE BEGIN SPI1_MspInit 1 */

  /* USER CODE END SPI1_MspInit 1 */
  }

}
 8001cb2:	bf00      	nop
 8001cb4:	3728      	adds	r7, #40	; 0x28
 8001cb6:	46bd      	mov	sp, r7
 8001cb8:	bd80      	pop	{r7, pc}
 8001cba:	bf00      	nop
 8001cbc:	40013000 	.word	0x40013000
 8001cc0:	40023800 	.word	0x40023800
 8001cc4:	40020000 	.word	0x40020000

08001cc8 <HAL_TIM_PWM_MspInit>:
* This function configures the hardware resources used in this example
* @param htim_pwm: TIM_PWM handle pointer
* @retval None
*/
void HAL_TIM_PWM_MspInit(TIM_HandleTypeDef* htim_pwm)
{
 8001cc8:	b480      	push	{r7}
 8001cca:	b085      	sub	sp, #20
 8001ccc:	af00      	add	r7, sp, #0
 8001cce:	6078      	str	r0, [r7, #4]
  if(htim_pwm->Instance==TIM4)
 8001cd0:	687b      	ldr	r3, [r7, #4]
 8001cd2:	681b      	ldr	r3, [r3, #0]
 8001cd4:	4a0b      	ldr	r2, [pc, #44]	; (8001d04 <HAL_TIM_PWM_MspInit+0x3c>)
 8001cd6:	4293      	cmp	r3, r2
 8001cd8:	d10d      	bne.n	8001cf6 <HAL_TIM_PWM_MspInit+0x2e>
  {
  /* USER CODE BEGIN TIM4_MspInit 0 */

  /* USER CODE END TIM4_MspInit 0 */
    /* Peripheral clock enable */
    __HAL_RCC_TIM4_CLK_ENABLE();
 8001cda:	2300      	movs	r3, #0
 8001cdc:	60fb      	str	r3, [r7, #12]
 8001cde:	4b0a      	ldr	r3, [pc, #40]	; (8001d08 <HAL_TIM_PWM_MspInit+0x40>)
 8001ce0:	6c1b      	ldr	r3, [r3, #64]	; 0x40
 8001ce2:	4a09      	ldr	r2, [pc, #36]	; (8001d08 <HAL_TIM_PWM_MspInit+0x40>)
 8001ce4:	f043 0304 	orr.w	r3, r3, #4
 8001ce8:	6413      	str	r3, [r2, #64]	; 0x40
 8001cea:	4b07      	ldr	r3, [pc, #28]	; (8001d08 <HAL_TIM_PWM_MspInit+0x40>)
 8001cec:	6c1b      	ldr	r3, [r3, #64]	; 0x40
 8001cee:	f003 0304 	and.w	r3, r3, #4
 8001cf2:	60fb      	str	r3, [r7, #12]
 8001cf4:	68fb      	ldr	r3, [r7, #12]
  /* USER CODE BEGIN TIM4_MspInit 1 */

  /* USER CODE END TIM4_MspInit 1 */
  }

}
 8001cf6:	bf00      	nop
 8001cf8:	3714      	adds	r7, #20
 8001cfa:	46bd      	mov	sp, r7
 8001cfc:	f85d 7b04 	ldr.w	r7, [sp], #4
 8001d00:	4770      	bx	lr
 8001d02:	bf00      	nop
 8001d04:	40000800 	.word	0x40000800
 8001d08:	40023800 	.word	0x40023800

08001d0c <HAL_TIM_Base_MspInit>:
* This function configures the hardware resources used in this example
* @param htim_base: TIM_Base handle pointer
* @retval None
*/
void HAL_TIM_Base_MspInit(TIM_HandleTypeDef* htim_base)
{
 8001d0c:	b580      	push	{r7, lr}
 8001d0e:	b084      	sub	sp, #16
 8001d10:	af00      	add	r7, sp, #0
 8001d12:	6078      	str	r0, [r7, #4]
  if(htim_base->Instance==TIM7)
 8001d14:	687b      	ldr	r3, [r7, #4]
 8001d16:	681b      	ldr	r3, [r3, #0]
 8001d18:	4a0e      	ldr	r2, [pc, #56]	; (8001d54 <HAL_TIM_Base_MspInit+0x48>)
 8001d1a:	4293      	cmp	r3, r2
 8001d1c:	d115      	bne.n	8001d4a <HAL_TIM_Base_MspInit+0x3e>
  {
  /* USER CODE BEGIN TIM7_MspInit 0 */

  /* USER CODE END TIM7_MspInit 0 */
    /* Peripheral clock enable */
    __HAL_RCC_TIM7_CLK_ENABLE();
 8001d1e:	2300      	movs	r3, #0
 8001d20:	60fb      	str	r3, [r7, #12]
 8001d22:	4b0d      	ldr	r3, [pc, #52]	; (8001d58 <HAL_TIM_Base_MspInit+0x4c>)
 8001d24:	6c1b      	ldr	r3, [r3, #64]	; 0x40
 8001d26:	4a0c      	ldr	r2, [pc, #48]	; (8001d58 <HAL_TIM_Base_MspInit+0x4c>)
 8001d28:	f043 0320 	orr.w	r3, r3, #32
 8001d2c:	6413      	str	r3, [r2, #64]	; 0x40
 8001d2e:	4b0a      	ldr	r3, [pc, #40]	; (8001d58 <HAL_TIM_Base_MspInit+0x4c>)
 8001d30:	6c1b      	ldr	r3, [r3, #64]	; 0x40
 8001d32:	f003 0320 	and.w	r3, r3, #32
 8001d36:	60fb      	str	r3, [r7, #12]
 8001d38:	68fb      	ldr	r3, [r7, #12]
    /* TIM7 interrupt Init */
    HAL_NVIC_SetPriority(TIM7_IRQn, 0, 0);
 8001d3a:	2200      	movs	r2, #0
 8001d3c:	2100      	movs	r1, #0
 8001d3e:	2037      	movs	r0, #55	; 0x37
 8001d40:	f000 fed1 	bl	8002ae6 <HAL_NVIC_SetPriority>
    HAL_NVIC_EnableIRQ(TIM7_IRQn);
 8001d44:	2037      	movs	r0, #55	; 0x37
 8001d46:	f000 feea 	bl	8002b1e <HAL_NVIC_EnableIRQ>
  /* USER CODE BEGIN TIM7_MspInit 1 */

  /* USER CODE END TIM7_MspInit 1 */
  }

}
 8001d4a:	bf00      	nop
 8001d4c:	3710      	adds	r7, #16
 8001d4e:	46bd      	mov	sp, r7
 8001d50:	bd80      	pop	{r7, pc}
 8001d52:	bf00      	nop
 8001d54:	40001400 	.word	0x40001400
 8001d58:	40023800 	.word	0x40023800

08001d5c <HAL_TIM_MspPostInit>:

void HAL_TIM_MspPostInit(TIM_HandleTypeDef* htim)
{
 8001d5c:	b580      	push	{r7, lr}
 8001d5e:	b088      	sub	sp, #32
 8001d60:	af00      	add	r7, sp, #0
 8001d62:	6078      	str	r0, [r7, #4]
  GPIO_InitTypeDef GPIO_InitStruct = {0};
 8001d64:	f107 030c 	add.w	r3, r7, #12
 8001d68:	2200      	movs	r2, #0
 8001d6a:	601a      	str	r2, [r3, #0]
 8001d6c:	605a      	str	r2, [r3, #4]
 8001d6e:	609a      	str	r2, [r3, #8]
 8001d70:	60da      	str	r2, [r3, #12]
 8001d72:	611a      	str	r2, [r3, #16]
  if(htim->Instance==TIM4)
 8001d74:	687b      	ldr	r3, [r7, #4]
 8001d76:	681b      	ldr	r3, [r3, #0]
 8001d78:	4a12      	ldr	r2, [pc, #72]	; (8001dc4 <HAL_TIM_MspPostInit+0x68>)
 8001d7a:	4293      	cmp	r3, r2
 8001d7c:	d11e      	bne.n	8001dbc <HAL_TIM_MspPostInit+0x60>
  {
  /* USER CODE BEGIN TIM4_MspPostInit 0 */

  /* USER CODE END TIM4_MspPostInit 0 */

    __HAL_RCC_GPIOD_CLK_ENABLE();
 8001d7e:	2300      	movs	r3, #0
 8001d80:	60bb      	str	r3, [r7, #8]
 8001d82:	4b11      	ldr	r3, [pc, #68]	; (8001dc8 <HAL_TIM_MspPostInit+0x6c>)
 8001d84:	6b1b      	ldr	r3, [r3, #48]	; 0x30
 8001d86:	4a10      	ldr	r2, [pc, #64]	; (8001dc8 <HAL_TIM_MspPostInit+0x6c>)
 8001d88:	f043 0308 	orr.w	r3, r3, #8
 8001d8c:	6313      	str	r3, [r2, #48]	; 0x30
 8001d8e:	4b0e      	ldr	r3, [pc, #56]	; (8001dc8 <HAL_TIM_MspPostInit+0x6c>)
 8001d90:	6b1b      	ldr	r3, [r3, #48]	; 0x30
 8001d92:	f003 0308 	and.w	r3, r3, #8
 8001d96:	60bb      	str	r3, [r7, #8]
 8001d98:	68bb      	ldr	r3, [r7, #8]
    /**TIM4 GPIO Configuration
    PD15     ------> TIM4_CH4
    */
    GPIO_InitStruct.Pin = GPIO_PIN_15;
 8001d9a:	f44f 4300 	mov.w	r3, #32768	; 0x8000
 8001d9e:	60fb      	str	r3, [r7, #12]
    GPIO_InitStruct.Mode = GPIO_MODE_AF_PP;
 8001da0:	2302      	movs	r3, #2
 8001da2:	613b      	str	r3, [r7, #16]
    GPIO_InitStruct.Pull = GPIO_NOPULL;
 8001da4:	2300      	movs	r3, #0
 8001da6:	617b      	str	r3, [r7, #20]
    GPIO_InitStruct.Speed = GPIO_SPEED_FREQ_LOW;
 8001da8:	2300      	movs	r3, #0
 8001daa:	61bb      	str	r3, [r7, #24]
    GPIO_InitStruct.Alternate = GPIO_AF2_TIM4;
 8001dac:	2302      	movs	r3, #2
 8001dae:	61fb      	str	r3, [r7, #28]
    HAL_GPIO_Init(GPIOD, &GPIO_InitStruct);
 8001db0:	f107 030c 	add.w	r3, r7, #12
 8001db4:	4619      	mov	r1, r3
 8001db6:	4805      	ldr	r0, [pc, #20]	; (8001dcc <HAL_TIM_MspPostInit+0x70>)
 8001db8:	f001 fa3a 	bl	8003230 <HAL_GPIO_Init>
  /* USER CODE BEGIN TIM4_MspPostInit 1 */

  /* USER CODE END TIM4_MspPostInit 1 */
  }

}
 8001dbc:	bf00      	nop
 8001dbe:	3720      	adds	r7, #32
 8001dc0:	46bd      	mov	sp, r7
 8001dc2:	bd80      	pop	{r7, pc}
 8001dc4:	40000800 	.word	0x40000800
 8001dc8:	40023800 	.word	0x40023800
 8001dcc:	40020c00 	.word	0x40020c00

08001dd0 <HAL_UART_MspInit>:
* This function configures the hardware resources used in this example
* @param huart: UART handle pointer
* @retval None
*/
void HAL_UART_MspInit(UART_HandleTypeDef* huart)
{
 8001dd0:	b580      	push	{r7, lr}
 8001dd2:	b08a      	sub	sp, #40	; 0x28
 8001dd4:	af00      	add	r7, sp, #0
 8001dd6:	6078      	str	r0, [r7, #4]
  GPIO_InitTypeDef GPIO_InitStruct = {0};
 8001dd8:	f107 0314 	add.w	r3, r7, #20
 8001ddc:	2200      	movs	r2, #0
 8001dde:	601a      	str	r2, [r3, #0]
 8001de0:	605a      	str	r2, [r3, #4]
 8001de2:	609a      	str	r2, [r3, #8]
 8001de4:	60da      	str	r2, [r3, #12]
 8001de6:	611a      	str	r2, [r3, #16]
  if(huart->Instance==USART2)
 8001de8:	687b      	ldr	r3, [r7, #4]
 8001dea:	681b      	ldr	r3, [r3, #0]
 8001dec:	4a28      	ldr	r2, [pc, #160]	; (8001e90 <HAL_UART_MspInit+0xc0>)
 8001dee:	4293      	cmp	r3, r2
 8001df0:	d149      	bne.n	8001e86 <HAL_UART_MspInit+0xb6>
  {
  /* USER CODE BEGIN USART2_MspInit 0 */

  /* USER CODE END USART2_MspInit 0 */
    /* Peripheral clock enable */
    __HAL_RCC_USART2_CLK_ENABLE();
 8001df2:	2300      	movs	r3, #0
 8001df4:	613b      	str	r3, [r7, #16]
 8001df6:	4b27      	ldr	r3, [pc, #156]	; (8001e94 <HAL_UART_MspInit+0xc4>)
 8001df8:	6c1b      	ldr	r3, [r3, #64]	; 0x40
 8001dfa:	4a26      	ldr	r2, [pc, #152]	; (8001e94 <HAL_UART_MspInit+0xc4>)
 8001dfc:	f443 3300 	orr.w	r3, r3, #131072	; 0x20000
 8001e00:	6413      	str	r3, [r2, #64]	; 0x40
 8001e02:	4b24      	ldr	r3, [pc, #144]	; (8001e94 <HAL_UART_MspInit+0xc4>)
 8001e04:	6c1b      	ldr	r3, [r3, #64]	; 0x40
 8001e06:	f403 3300 	and.w	r3, r3, #131072	; 0x20000
 8001e0a:	613b      	str	r3, [r7, #16]
 8001e0c:	693b      	ldr	r3, [r7, #16]

    __HAL_RCC_GPIOA_CLK_ENABLE();
 8001e0e:	2300      	movs	r3, #0
 8001e10:	60fb      	str	r3, [r7, #12]
 8001e12:	4b20      	ldr	r3, [pc, #128]	; (8001e94 <HAL_UART_MspInit+0xc4>)
 8001e14:	6b1b      	ldr	r3, [r3, #48]	; 0x30
 8001e16:	4a1f      	ldr	r2, [pc, #124]	; (8001e94 <HAL_UART_MspInit+0xc4>)
 8001e18:	f043 0301 	orr.w	r3, r3, #1
 8001e1c:	6313      	str	r3, [r2, #48]	; 0x30
 8001e1e:	4b1d      	ldr	r3, [pc, #116]	; (8001e94 <HAL_UART_MspInit+0xc4>)
 8001e20:	6b1b      	ldr	r3, [r3, #48]	; 0x30
 8001e22:	f003 0301 	and.w	r3, r3, #1
 8001e26:	60fb      	str	r3, [r7, #12]
 8001e28:	68fb      	ldr	r3, [r7, #12]
    __HAL_RCC_GPIOD_CLK_ENABLE();
 8001e2a:	2300      	movs	r3, #0
 8001e2c:	60bb      	str	r3, [r7, #8]
 8001e2e:	4b19      	ldr	r3, [pc, #100]	; (8001e94 <HAL_UART_MspInit+0xc4>)
 8001e30:	6b1b      	ldr	r3, [r3, #48]	; 0x30
 8001e32:	4a18      	ldr	r2, [pc, #96]	; (8001e94 <HAL_UART_MspInit+0xc4>)
 8001e34:	f043 0308 	orr.w	r3, r3, #8
 8001e38:	6313      	str	r3, [r2, #48]	; 0x30
 8001e3a:	4b16      	ldr	r3, [pc, #88]	; (8001e94 <HAL_UART_MspInit+0xc4>)
 8001e3c:	6b1b      	ldr	r3, [r3, #48]	; 0x30
 8001e3e:	f003 0308 	and.w	r3, r3, #8
 8001e42:	60bb      	str	r3, [r7, #8]
 8001e44:	68bb      	ldr	r3, [r7, #8]
    /**USART2 GPIO Configuration
    PA2     ------> USART2_TX
    PD6     ------> USART2_RX
    */
    GPIO_InitStruct.Pin = GPIO_PIN_2;
 8001e46:	2304      	movs	r3, #4
 8001e48:	617b      	str	r3, [r7, #20]
    GPIO_InitStruct.Mode = GPIO_MODE_AF_PP;
 8001e4a:	2302      	movs	r3, #2
 8001e4c:	61bb      	str	r3, [r7, #24]
    GPIO_InitStruct.Pull = GPIO_NOPULL;
 8001e4e:	2300      	movs	r3, #0
 8001e50:	61fb      	str	r3, [r7, #28]
    GPIO_InitStruct.Speed = GPIO_SPEED_FREQ_VERY_HIGH;
 8001e52:	2303      	movs	r3, #3
 8001e54:	623b      	str	r3, [r7, #32]
    GPIO_InitStruct.Alternate = GPIO_AF7_USART2;
 8001e56:	2307      	movs	r3, #7
 8001e58:	627b      	str	r3, [r7, #36]	; 0x24
    HAL_GPIO_Init(GPIOA, &GPIO_InitStruct);
 8001e5a:	f107 0314 	add.w	r3, r7, #20
 8001e5e:	4619      	mov	r1, r3
 8001e60:	480d      	ldr	r0, [pc, #52]	; (8001e98 <HAL_UART_MspInit+0xc8>)
 8001e62:	f001 f9e5 	bl	8003230 <HAL_GPIO_Init>

    GPIO_InitStruct.Pin = GPIO_PIN_6;
 8001e66:	2340      	movs	r3, #64	; 0x40
 8001e68:	617b      	str	r3, [r7, #20]
    GPIO_InitStruct.Mode = GPIO_MODE_AF_PP;
 8001e6a:	2302      	movs	r3, #2
 8001e6c:	61bb      	str	r3, [r7, #24]
    GPIO_InitStruct.Pull = GPIO_NOPULL;
 8001e6e:	2300      	movs	r3, #0
 8001e70:	61fb      	str	r3, [r7, #28]
    GPIO_InitStruct.Speed = GPIO_SPEED_FREQ_VERY_HIGH;
 8001e72:	2303      	movs	r3, #3
 8001e74:	623b      	str	r3, [r7, #32]
    GPIO_InitStruct.Alternate = GPIO_AF7_USART2;
 8001e76:	2307      	movs	r3, #7
 8001e78:	627b      	str	r3, [r7, #36]	; 0x24
    HAL_GPIO_Init(GPIOD, &GPIO_InitStruct);
 8001e7a:	f107 0314 	add.w	r3, r7, #20
 8001e7e:	4619      	mov	r1, r3
 8001e80:	4806      	ldr	r0, [pc, #24]	; (8001e9c <HAL_UART_MspInit+0xcc>)
 8001e82:	f001 f9d5 	bl	8003230 <HAL_GPIO_Init>
  /* USER CODE BEGIN USART2_MspInit 1 */

  /* USER CODE END USART2_MspInit 1 */
  }

}
 8001e86:	bf00      	nop
 8001e88:	3728      	adds	r7, #40	; 0x28
 8001e8a:	46bd      	mov	sp, r7
 8001e8c:	bd80      	pop	{r7, pc}
 8001e8e:	bf00      	nop
 8001e90:	40004400 	.word	0x40004400
 8001e94:	40023800 	.word	0x40023800
 8001e98:	40020000 	.word	0x40020000
 8001e9c:	40020c00 	.word	0x40020c00

08001ea0 <NMI_Handler>:
/******************************************************************************/
/**
  * @brief This function handles Non maskable interrupt.
  */
void NMI_Handler(void)
{
 8001ea0:	b480      	push	{r7}
 8001ea2:	af00      	add	r7, sp, #0

  /* USER CODE END NonMaskableInt_IRQn 0 */
  /* USER CODE BEGIN NonMaskableInt_IRQn 1 */

  /* USER CODE END NonMaskableInt_IRQn 1 */
}
 8001ea4:	bf00      	nop
 8001ea6:	46bd      	mov	sp, r7
 8001ea8:	f85d 7b04 	ldr.w	r7, [sp], #4
 8001eac:	4770      	bx	lr

08001eae <HardFault_Handler>:

/**
  * @brief This function handles Hard fault interrupt.
  */
void HardFault_Handler(void)
{
 8001eae:	b480      	push	{r7}
 8001eb0:	af00      	add	r7, sp, #0
  /* USER CODE BEGIN HardFault_IRQn 0 */

  /* USER CODE END HardFault_IRQn 0 */
  while (1)
 8001eb2:	e7fe      	b.n	8001eb2 <HardFault_Handler+0x4>

08001eb4 <MemManage_Handler>:

/**
  * @brief This function handles Memory management fault.
  */
void MemManage_Handler(void)
{
 8001eb4:	b480      	push	{r7}
 8001eb6:	af00      	add	r7, sp, #0
  /* USER CODE BEGIN MemoryManagement_IRQn 0 */

  /* USER CODE END MemoryManagement_IRQn 0 */
  while (1)
 8001eb8:	e7fe      	b.n	8001eb8 <MemManage_Handler+0x4>

08001eba <BusFault_Handler>:

/**
  * @brief This function handles Pre-fetch fault, memory access fault.
  */
void BusFault_Handler(void)
{
 8001eba:	b480      	push	{r7}
 8001ebc:	af00      	add	r7, sp, #0
  /* USER CODE BEGIN BusFault_IRQn 0 */

  /* USER CODE END BusFault_IRQn 0 */
  while (1)
 8001ebe:	e7fe      	b.n	8001ebe <BusFault_Handler+0x4>

08001ec0 <UsageFault_Handler>:

/**
  * @brief This function handles Undefined instruction or illegal state.
  */
void UsageFault_Handler(void)
{
 8001ec0:	b480      	push	{r7}
 8001ec2:	af00      	add	r7, sp, #0
  /* USER CODE BEGIN UsageFault_IRQn 0 */

  /* USER CODE END UsageFault_IRQn 0 */
  while (1)
 8001ec4:	e7fe      	b.n	8001ec4 <UsageFault_Handler+0x4>

08001ec6 <SVC_Handler>:

/**
  * @brief This function handles System service call via SWI instruction.
  */
void SVC_Handler(void)
{
 8001ec6:	b480      	push	{r7}
 8001ec8:	af00      	add	r7, sp, #0

  /* USER CODE END SVCall_IRQn 0 */
  /* USER CODE BEGIN SVCall_IRQn 1 */

  /* USER CODE END SVCall_IRQn 1 */
}
 8001eca:	bf00      	nop
 8001ecc:	46bd      	mov	sp, r7
 8001ece:	f85d 7b04 	ldr.w	r7, [sp], #4
 8001ed2:	4770      	bx	lr

08001ed4 <DebugMon_Handler>:

/**
  * @brief This function handles Debug monitor.
  */
void DebugMon_Handler(void)
{
 8001ed4:	b480      	push	{r7}
 8001ed6:	af00      	add	r7, sp, #0

  /* USER CODE END DebugMonitor_IRQn 0 */
  /* USER CODE BEGIN DebugMonitor_IRQn 1 */

  /* USER CODE END DebugMonitor_IRQn 1 */
}
 8001ed8:	bf00      	nop
 8001eda:	46bd      	mov	sp, r7
 8001edc:	f85d 7b04 	ldr.w	r7, [sp], #4
 8001ee0:	4770      	bx	lr

08001ee2 <PendSV_Handler>:

/**
  * @brief This function handles Pendable request for system service.
  */
void PendSV_Handler(void)
{
 8001ee2:	b480      	push	{r7}
 8001ee4:	af00      	add	r7, sp, #0

  /* USER CODE END PendSV_IRQn 0 */
  /* USER CODE BEGIN PendSV_IRQn 1 */

  /* USER CODE END PendSV_IRQn 1 */
}
 8001ee6:	bf00      	nop
 8001ee8:	46bd      	mov	sp, r7
 8001eea:	f85d 7b04 	ldr.w	r7, [sp], #4
 8001eee:	4770      	bx	lr

08001ef0 <SysTick_Handler>:

/**
  * @brief This function handles System tick timer.
  */
void SysTick_Handler(void)
{
 8001ef0:	b580      	push	{r7, lr}
 8001ef2:	af00      	add	r7, sp, #0
  /* USER CODE BEGIN SysTick_IRQn 0 */

  /* USER CODE END SysTick_IRQn 0 */
  HAL_IncTick();
 8001ef4:	f000 f8f0 	bl	80020d8 <HAL_IncTick>
  /* USER CODE BEGIN SysTick_IRQn 1 */

  /* USER CODE END SysTick_IRQn 1 */
}
 8001ef8:	bf00      	nop
 8001efa:	bd80      	pop	{r7, pc}

08001efc <EXTI3_IRQHandler>:

/**
  * @brief This function handles EXTI line3 interrupt.
  */
void EXTI3_IRQHandler(void)
{
 8001efc:	b580      	push	{r7, lr}
 8001efe:	af00      	add	r7, sp, #0
  /* USER CODE BEGIN EXTI3_IRQn 0 */

  /* USER CODE END EXTI3_IRQn 0 */
  HAL_GPIO_EXTI_IRQHandler(GPIO_PIN_3);
 8001f00:	2008      	movs	r0, #8
 8001f02:	f001 fb49 	bl	8003598 <HAL_GPIO_EXTI_IRQHandler>
  /* USER CODE BEGIN EXTI3_IRQn 1 */

  /* USER CODE END EXTI3_IRQn 1 */
}
 8001f06:	bf00      	nop
 8001f08:	bd80      	pop	{r7, pc}
	...

08001f0c <TIM7_IRQHandler>:

/**
  * @brief This function handles TIM7 global interrupt.
  */
void TIM7_IRQHandler(void)
{
 8001f0c:	b580      	push	{r7, lr}
 8001f0e:	af00      	add	r7, sp, #0
  /* USER CODE BEGIN TIM7_IRQn 0 */

  /* USER CODE END TIM7_IRQn 0 */
  HAL_TIM_IRQHandler(&htim7);
 8001f10:	4802      	ldr	r0, [pc, #8]	; (8001f1c <TIM7_IRQHandler+0x10>)
 8001f12:	f004 fcdf 	bl	80068d4 <HAL_TIM_IRQHandler>
  /* USER CODE BEGIN TIM7_IRQn 1 */

  /* USER CODE END TIM7_IRQn 1 */
}
 8001f16:	bf00      	nop
 8001f18:	bd80      	pop	{r7, pc}
 8001f1a:	bf00      	nop
 8001f1c:	20000bfc 	.word	0x20000bfc

08001f20 <DMA2_Stream4_IRQHandler>:

/**
  * @brief This function handles DMA2 stream4 global interrupt.
  */
void DMA2_Stream4_IRQHandler(void)
{
 8001f20:	b580      	push	{r7, lr}
 8001f22:	af00      	add	r7, sp, #0
  /* USER CODE BEGIN DMA2_Stream4_IRQn 0 */

  /* USER CODE END DMA2_Stream4_IRQn 0 */
  HAL_DMA_IRQHandler(&hdma_adc1);
 8001f24:	4802      	ldr	r0, [pc, #8]	; (8001f30 <DMA2_Stream4_IRQHandler+0x10>)
 8001f26:	f000 ff1b 	bl	8002d60 <HAL_DMA_IRQHandler>
  /* USER CODE BEGIN DMA2_Stream4_IRQn 1 */

  /* USER CODE END DMA2_Stream4_IRQn 1 */
}
 8001f2a:	bf00      	nop
 8001f2c:	bd80      	pop	{r7, pc}
 8001f2e:	bf00      	nop
 8001f30:	2000032c 	.word	0x2000032c

08001f34 <OTG_FS_IRQHandler>:

/**
  * @brief This function handles USB On The Go FS global interrupt.
  */
void OTG_FS_IRQHandler(void)
{
 8001f34:	b580      	push	{r7, lr}
 8001f36:	af00      	add	r7, sp, #0
  /* USER CODE BEGIN OTG_FS_IRQn 0 */

  /* USER CODE END OTG_FS_IRQn 0 */
  HAL_HCD_IRQHandler(&hhcd_USB_OTG_FS);
 8001f38:	4802      	ldr	r0, [pc, #8]	; (8001f44 <OTG_FS_IRQHandler+0x10>)
 8001f3a:	f001 fdd5 	bl	8003ae8 <HAL_HCD_IRQHandler>
  /* USER CODE BEGIN OTG_FS_IRQn 1 */

  /* USER CODE END OTG_FS_IRQn 1 */
}
 8001f3e:	bf00      	nop
 8001f40:	bd80      	pop	{r7, pc}
 8001f42:	bf00      	nop
 8001f44:	20001060 	.word	0x20001060

08001f48 <_sbrk>:
 *
 * @param incr Memory size
 * @return Pointer to allocated memory
 */
void *_sbrk(ptrdiff_t incr)
{
 8001f48:	b580      	push	{r7, lr}
 8001f4a:	b086      	sub	sp, #24
 8001f4c:	af00      	add	r7, sp, #0
 8001f4e:	6078      	str	r0, [r7, #4]
  extern uint8_t _end; /* Symbol defined in the linker script */
  extern uint8_t _estack; /* Symbol defined in the linker script */
  extern uint32_t _Min_Stack_Size; /* Symbol defined in the linker script */
  const uint32_t stack_limit = (uint32_t)&_estack - (uint32_t)&_Min_Stack_Size;
 8001f50:	4a14      	ldr	r2, [pc, #80]	; (8001fa4 <_sbrk+0x5c>)
 8001f52:	4b15      	ldr	r3, [pc, #84]	; (8001fa8 <_sbrk+0x60>)
 8001f54:	1ad3      	subs	r3, r2, r3
 8001f56:	617b      	str	r3, [r7, #20]
  const uint8_t *max_heap = (uint8_t *)stack_limit;
 8001f58:	697b      	ldr	r3, [r7, #20]
 8001f5a:	613b      	str	r3, [r7, #16]
  uint8_t *prev_heap_end;

  /* Initalize heap end at first call */
  if (NULL == __sbrk_heap_end)
 8001f5c:	4b13      	ldr	r3, [pc, #76]	; (8001fac <_sbrk+0x64>)
 8001f5e:	681b      	ldr	r3, [r3, #0]
 8001f60:	2b00      	cmp	r3, #0
 8001f62:	d102      	bne.n	8001f6a <_sbrk+0x22>
  {
    __sbrk_heap_end = &_end;
 8001f64:	4b11      	ldr	r3, [pc, #68]	; (8001fac <_sbrk+0x64>)
 8001f66:	4a12      	ldr	r2, [pc, #72]	; (8001fb0 <_sbrk+0x68>)
 8001f68:	601a      	str	r2, [r3, #0]
  }

  /* Protect heap from growing into the reserved MSP stack */
  if (__sbrk_heap_end + incr > max_heap)
 8001f6a:	4b10      	ldr	r3, [pc, #64]	; (8001fac <_sbrk+0x64>)
 8001f6c:	681a      	ldr	r2, [r3, #0]
 8001f6e:	687b      	ldr	r3, [r7, #4]
 8001f70:	4413      	add	r3, r2
 8001f72:	693a      	ldr	r2, [r7, #16]
 8001f74:	429a      	cmp	r2, r3
 8001f76:	d207      	bcs.n	8001f88 <_sbrk+0x40>
  {
    errno = ENOMEM;
 8001f78:	f008 ffa0 	bl	800aebc <__errno>
 8001f7c:	4602      	mov	r2, r0
 8001f7e:	230c      	movs	r3, #12
 8001f80:	6013      	str	r3, [r2, #0]
    return (void *)-1;
 8001f82:	f04f 33ff 	mov.w	r3, #4294967295
 8001f86:	e009      	b.n	8001f9c <_sbrk+0x54>
  }

  prev_heap_end = __sbrk_heap_end;
 8001f88:	4b08      	ldr	r3, [pc, #32]	; (8001fac <_sbrk+0x64>)
 8001f8a:	681b      	ldr	r3, [r3, #0]
 8001f8c:	60fb      	str	r3, [r7, #12]
  __sbrk_heap_end += incr;
 8001f8e:	4b07      	ldr	r3, [pc, #28]	; (8001fac <_sbrk+0x64>)
 8001f90:	681a      	ldr	r2, [r3, #0]
 8001f92:	687b      	ldr	r3, [r7, #4]
 8001f94:	4413      	add	r3, r2
 8001f96:	4a05      	ldr	r2, [pc, #20]	; (8001fac <_sbrk+0x64>)
 8001f98:	6013      	str	r3, [r2, #0]

  return (void *)prev_heap_end;
 8001f9a:	68fb      	ldr	r3, [r7, #12]
}
 8001f9c:	4618      	mov	r0, r3
 8001f9e:	3718      	adds	r7, #24
 8001fa0:	46bd      	mov	sp, r7
 8001fa2:	bd80      	pop	{r7, pc}
 8001fa4:	20020000 	.word	0x20020000
 8001fa8:	00000400 	.word	0x00000400
 8001fac:	20000238 	.word	0x20000238
 8001fb0:	20001328 	.word	0x20001328

08001fb4 <SystemInit>:
  *         configuration.
  * @param  None
  * @retval None
  */
void SystemInit(void)
{
 8001fb4:	b480      	push	{r7}
 8001fb6:	af00      	add	r7, sp, #0
  /* FPU settings ------------------------------------------------------------*/
  #if (__FPU_PRESENT == 1) && (__FPU_USED == 1)
    SCB->CPACR |= ((3UL << 10*2)|(3UL << 11*2));  /* set CP10 and CP11 Full Access */
 8001fb8:	4b08      	ldr	r3, [pc, #32]	; (8001fdc <SystemInit+0x28>)
 8001fba:	f8d3 3088 	ldr.w	r3, [r3, #136]	; 0x88
 8001fbe:	4a07      	ldr	r2, [pc, #28]	; (8001fdc <SystemInit+0x28>)
 8001fc0:	f443 0370 	orr.w	r3, r3, #15728640	; 0xf00000
 8001fc4:	f8c2 3088 	str.w	r3, [r2, #136]	; 0x88

  /* Configure the Vector Table location add offset address ------------------*/
#ifdef VECT_TAB_SRAM
  SCB->VTOR = SRAM_BASE | VECT_TAB_OFFSET; /* Vector Table Relocation in Internal SRAM */
#else
  SCB->VTOR = FLASH_BASE | VECT_TAB_OFFSET; /* Vector Table Relocation in Internal FLASH */
 8001fc8:	4b04      	ldr	r3, [pc, #16]	; (8001fdc <SystemInit+0x28>)
 8001fca:	f04f 6200 	mov.w	r2, #134217728	; 0x8000000
 8001fce:	609a      	str	r2, [r3, #8]
#endif
}
 8001fd0:	bf00      	nop
 8001fd2:	46bd      	mov	sp, r7
 8001fd4:	f85d 7b04 	ldr.w	r7, [sp], #4
 8001fd8:	4770      	bx	lr
 8001fda:	bf00      	nop
 8001fdc:	e000ed00 	.word	0xe000ed00

08001fe0 <Reset_Handler>:

    .section  .text.Reset_Handler
  .weak  Reset_Handler
  .type  Reset_Handler, %function
Reset_Handler:  
  ldr   sp, =_estack     /* set stack pointer */
 8001fe0:	f8df d034 	ldr.w	sp, [pc, #52]	; 8002018 <LoopFillZerobss+0x14>

/* Copy the data segment initializers from flash to SRAM */  
  movs  r1, #0
 8001fe4:	2100      	movs	r1, #0
  b  LoopCopyDataInit
 8001fe6:	e003      	b.n	8001ff0 <LoopCopyDataInit>

08001fe8 <CopyDataInit>:

CopyDataInit:
  ldr  r3, =_sidata
 8001fe8:	4b0c      	ldr	r3, [pc, #48]	; (800201c <LoopFillZerobss+0x18>)
  ldr  r3, [r3, r1]
 8001fea:	585b      	ldr	r3, [r3, r1]
  str  r3, [r0, r1]
 8001fec:	5043      	str	r3, [r0, r1]
  adds  r1, r1, #4
 8001fee:	3104      	adds	r1, #4

08001ff0 <LoopCopyDataInit>:
    
LoopCopyDataInit:
  ldr  r0, =_sdata
 8001ff0:	480b      	ldr	r0, [pc, #44]	; (8002020 <LoopFillZerobss+0x1c>)
  ldr  r3, =_edata
 8001ff2:	4b0c      	ldr	r3, [pc, #48]	; (8002024 <LoopFillZerobss+0x20>)
  adds  r2, r0, r1
 8001ff4:	1842      	adds	r2, r0, r1
  cmp  r2, r3
 8001ff6:	429a      	cmp	r2, r3
  bcc  CopyDataInit
 8001ff8:	d3f6      	bcc.n	8001fe8 <CopyDataInit>
  ldr  r2, =_sbss
 8001ffa:	4a0b      	ldr	r2, [pc, #44]	; (8002028 <LoopFillZerobss+0x24>)
  b  LoopFillZerobss
 8001ffc:	e002      	b.n	8002004 <LoopFillZerobss>

08001ffe <FillZerobss>:
/* Zero fill the bss segment. */  
FillZerobss:
  movs  r3, #0
 8001ffe:	2300      	movs	r3, #0
  str  r3, [r2], #4
 8002000:	f842 3b04 	str.w	r3, [r2], #4

08002004 <LoopFillZerobss>:
    
LoopFillZerobss:
  ldr  r3, = _ebss
 8002004:	4b09      	ldr	r3, [pc, #36]	; (800202c <LoopFillZerobss+0x28>)
  cmp  r2, r3
 8002006:	429a      	cmp	r2, r3
  bcc  FillZerobss
 8002008:	d3f9      	bcc.n	8001ffe <FillZerobss>

/* Call the clock system intitialization function.*/
  bl  SystemInit   
 800200a:	f7ff ffd3 	bl	8001fb4 <SystemInit>
/* Call static constructors */
    bl __libc_init_array
 800200e:	f008 ff5b 	bl	800aec8 <__libc_init_array>
/* Call the application's entry point.*/
  bl  main
 8002012:	f7fe fff5 	bl	8001000 <main>
  bx  lr    
 8002016:	4770      	bx	lr
  ldr   sp, =_estack     /* set stack pointer */
 8002018:	20020000 	.word	0x20020000
  ldr  r3, =_sidata
 800201c:	0800d258 	.word	0x0800d258
  ldr  r0, =_sdata
 8002020:	20000000 	.word	0x20000000
  ldr  r3, =_edata
 8002024:	200001fc 	.word	0x200001fc
  ldr  r2, =_sbss
 8002028:	200001fc 	.word	0x200001fc
  ldr  r3, = _ebss
 800202c:	20001328 	.word	0x20001328

08002030 <ADC_IRQHandler>:
 * @retval None       
*/
    .section  .text.Default_Handler,"ax",%progbits
Default_Handler:
Infinite_Loop:
  b  Infinite_Loop
 8002030:	e7fe      	b.n	8002030 <ADC_IRQHandler>
	...

08002034 <HAL_Init>:
  *         need to ensure that the SysTick time base is always set to 1 millisecond
  *         to have correct HAL operation.
  * @retval HAL status
  */
HAL_StatusTypeDef HAL_Init(void)
{
 8002034:	b580      	push	{r7, lr}
 8002036:	af00      	add	r7, sp, #0
  /* Configure Flash prefetch, Instruction cache, Data cache */ 
#if (INSTRUCTION_CACHE_ENABLE != 0U)
  __HAL_FLASH_INSTRUCTION_CACHE_ENABLE();
 8002038:	4b0e      	ldr	r3, [pc, #56]	; (8002074 <HAL_Init+0x40>)
 800203a:	681b      	ldr	r3, [r3, #0]
 800203c:	4a0d      	ldr	r2, [pc, #52]	; (8002074 <HAL_Init+0x40>)
 800203e:	f443 7300 	orr.w	r3, r3, #512	; 0x200
 8002042:	6013      	str	r3, [r2, #0]
#endif /* INSTRUCTION_CACHE_ENABLE */

#if (DATA_CACHE_ENABLE != 0U)
  __HAL_FLASH_DATA_CACHE_ENABLE();
 8002044:	4b0b      	ldr	r3, [pc, #44]	; (8002074 <HAL_Init+0x40>)
 8002046:	681b      	ldr	r3, [r3, #0]
 8002048:	4a0a      	ldr	r2, [pc, #40]	; (8002074 <HAL_Init+0x40>)
 800204a:	f443 6380 	orr.w	r3, r3, #1024	; 0x400
 800204e:	6013      	str	r3, [r2, #0]
#endif /* DATA_CACHE_ENABLE */

#if (PREFETCH_ENABLE != 0U)
  __HAL_FLASH_PREFETCH_BUFFER_ENABLE();
 8002050:	4b08      	ldr	r3, [pc, #32]	; (8002074 <HAL_Init+0x40>)
 8002052:	681b      	ldr	r3, [r3, #0]
 8002054:	4a07      	ldr	r2, [pc, #28]	; (8002074 <HAL_Init+0x40>)
 8002056:	f443 7380 	orr.w	r3, r3, #256	; 0x100
 800205a:	6013      	str	r3, [r2, #0]
#endif /* PREFETCH_ENABLE */

  /* Set Interrupt Group Priority */
  HAL_NVIC_SetPriorityGrouping(NVIC_PRIORITYGROUP_4);
 800205c:	2003      	movs	r0, #3
 800205e:	f000 fd37 	bl	8002ad0 <HAL_NVIC_SetPriorityGrouping>

  /* Use systick as time base source and configure 1ms tick (default clock after Reset is HSI) */
  HAL_InitTick(TICK_INT_PRIORITY);
 8002062:	2000      	movs	r0, #0
 8002064:	f000 f808 	bl	8002078 <HAL_InitTick>

  /* Init the low level hardware */
  HAL_MspInit();
 8002068:	f7ff fc96 	bl	8001998 <HAL_MspInit>

  /* Return function status */
  return HAL_OK;
 800206c:	2300      	movs	r3, #0
}
 800206e:	4618      	mov	r0, r3
 8002070:	bd80      	pop	{r7, pc}
 8002072:	bf00      	nop
 8002074:	40023c00 	.word	0x40023c00

08002078 <HAL_InitTick>:
  *       implementation  in user file.
  * @param TickPriority Tick interrupt priority.
  * @retval HAL status
  */
__weak HAL_StatusTypeDef HAL_InitTick(uint32_t TickPriority)
{
 8002078:	b580      	push	{r7, lr}
 800207a:	b082      	sub	sp, #8
 800207c:	af00      	add	r7, sp, #0
 800207e:	6078      	str	r0, [r7, #4]
  /* Configure the SysTick to have interrupt in 1ms time basis*/
  if (HAL_SYSTICK_Config(SystemCoreClock / (1000U / uwTickFreq)) > 0U)
 8002080:	4b12      	ldr	r3, [pc, #72]	; (80020cc <HAL_InitTick+0x54>)
 8002082:	681a      	ldr	r2, [r3, #0]
 8002084:	4b12      	ldr	r3, [pc, #72]	; (80020d0 <HAL_InitTick+0x58>)
 8002086:	781b      	ldrb	r3, [r3, #0]
 8002088:	4619      	mov	r1, r3
 800208a:	f44f 737a 	mov.w	r3, #1000	; 0x3e8
 800208e:	fbb3 f3f1 	udiv	r3, r3, r1
 8002092:	fbb2 f3f3 	udiv	r3, r2, r3
 8002096:	4618      	mov	r0, r3
 8002098:	f000 fd4f 	bl	8002b3a <HAL_SYSTICK_Config>
 800209c:	4603      	mov	r3, r0
 800209e:	2b00      	cmp	r3, #0
 80020a0:	d001      	beq.n	80020a6 <HAL_InitTick+0x2e>
  {
    return HAL_ERROR;
 80020a2:	2301      	movs	r3, #1
 80020a4:	e00e      	b.n	80020c4 <HAL_InitTick+0x4c>
  }

  /* Configure the SysTick IRQ priority */
  if (TickPriority < (1UL << __NVIC_PRIO_BITS))
 80020a6:	687b      	ldr	r3, [r7, #4]
 80020a8:	2b0f      	cmp	r3, #15
 80020aa:	d80a      	bhi.n	80020c2 <HAL_InitTick+0x4a>
  {
    HAL_NVIC_SetPriority(SysTick_IRQn, TickPriority, 0U);
 80020ac:	2200      	movs	r2, #0
 80020ae:	6879      	ldr	r1, [r7, #4]
 80020b0:	f04f 30ff 	mov.w	r0, #4294967295
 80020b4:	f000 fd17 	bl	8002ae6 <HAL_NVIC_SetPriority>
    uwTickPrio = TickPriority;
 80020b8:	4a06      	ldr	r2, [pc, #24]	; (80020d4 <HAL_InitTick+0x5c>)
 80020ba:	687b      	ldr	r3, [r7, #4]
 80020bc:	6013      	str	r3, [r2, #0]
  {
    return HAL_ERROR;
  }

  /* Return function status */
  return HAL_OK;
 80020be:	2300      	movs	r3, #0
 80020c0:	e000      	b.n	80020c4 <HAL_InitTick+0x4c>
    return HAL_ERROR;
 80020c2:	2301      	movs	r3, #1
}
 80020c4:	4618      	mov	r0, r3
 80020c6:	3708      	adds	r7, #8
 80020c8:	46bd      	mov	sp, r7
 80020ca:	bd80      	pop	{r7, pc}
 80020cc:	20000000 	.word	0x20000000
 80020d0:	20000008 	.word	0x20000008
 80020d4:	20000004 	.word	0x20000004

080020d8 <HAL_IncTick>:
 * @note This function is declared as __weak to be overwritten in case of other 
  *      implementations in user file.
  * @retval None
  */
__weak void HAL_IncTick(void)
{
 80020d8:	b480      	push	{r7}
 80020da:	af00      	add	r7, sp, #0
  uwTick += uwTickFreq;
 80020dc:	4b06      	ldr	r3, [pc, #24]	; (80020f8 <HAL_IncTick+0x20>)
 80020de:	781b      	ldrb	r3, [r3, #0]
 80020e0:	461a      	mov	r2, r3
 80020e2:	4b06      	ldr	r3, [pc, #24]	; (80020fc <HAL_IncTick+0x24>)
 80020e4:	681b      	ldr	r3, [r3, #0]
 80020e6:	4413      	add	r3, r2
 80020e8:	4a04      	ldr	r2, [pc, #16]	; (80020fc <HAL_IncTick+0x24>)
 80020ea:	6013      	str	r3, [r2, #0]
}
 80020ec:	bf00      	nop
 80020ee:	46bd      	mov	sp, r7
 80020f0:	f85d 7b04 	ldr.w	r7, [sp], #4
 80020f4:	4770      	bx	lr
 80020f6:	bf00      	nop
 80020f8:	20000008 	.word	0x20000008
 80020fc:	20000c84 	.word	0x20000c84

08002100 <HAL_GetTick>:
  * @note This function is declared as __weak to be overwritten in case of other 
  *       implementations in user file.
  * @retval tick value
  */
__weak uint32_t HAL_GetTick(void)
{
 8002100:	b480      	push	{r7}
 8002102:	af00      	add	r7, sp, #0
  return uwTick;
 8002104:	4b03      	ldr	r3, [pc, #12]	; (8002114 <HAL_GetTick+0x14>)
 8002106:	681b      	ldr	r3, [r3, #0]
}
 8002108:	4618      	mov	r0, r3
 800210a:	46bd      	mov	sp, r7
 800210c:	f85d 7b04 	ldr.w	r7, [sp], #4
 8002110:	4770      	bx	lr
 8002112:	bf00      	nop
 8002114:	20000c84 	.word	0x20000c84

08002118 <HAL_Delay>:
  *       implementations in user file.
  * @param Delay specifies the delay time length, in milliseconds.
  * @retval None
  */
__weak void HAL_Delay(uint32_t Delay)
{
 8002118:	b580      	push	{r7, lr}
 800211a:	b084      	sub	sp, #16
 800211c:	af00      	add	r7, sp, #0
 800211e:	6078      	str	r0, [r7, #4]
  uint32_t tickstart = HAL_GetTick();
 8002120:	f7ff ffee 	bl	8002100 <HAL_GetTick>
 8002124:	60b8      	str	r0, [r7, #8]
  uint32_t wait = Delay;
 8002126:	687b      	ldr	r3, [r7, #4]
 8002128:	60fb      	str	r3, [r7, #12]

  /* Add a freq to guarantee minimum wait */
  if (wait < HAL_MAX_DELAY)
 800212a:	68fb      	ldr	r3, [r7, #12]
 800212c:	f1b3 3fff 	cmp.w	r3, #4294967295
 8002130:	d005      	beq.n	800213e <HAL_Delay+0x26>
  {
    wait += (uint32_t)(uwTickFreq);
 8002132:	4b09      	ldr	r3, [pc, #36]	; (8002158 <HAL_Delay+0x40>)
 8002134:	781b      	ldrb	r3, [r3, #0]
 8002136:	461a      	mov	r2, r3
 8002138:	68fb      	ldr	r3, [r7, #12]
 800213a:	4413      	add	r3, r2
 800213c:	60fb      	str	r3, [r7, #12]
  }

  while((HAL_GetTick() - tickstart) < wait)
 800213e:	bf00      	nop
 8002140:	f7ff ffde 	bl	8002100 <HAL_GetTick>
 8002144:	4602      	mov	r2, r0
 8002146:	68bb      	ldr	r3, [r7, #8]
 8002148:	1ad3      	subs	r3, r2, r3
 800214a:	68fa      	ldr	r2, [r7, #12]
 800214c:	429a      	cmp	r2, r3
 800214e:	d8f7      	bhi.n	8002140 <HAL_Delay+0x28>
  {
  }
}
 8002150:	bf00      	nop
 8002152:	3710      	adds	r7, #16
 8002154:	46bd      	mov	sp, r7
 8002156:	bd80      	pop	{r7, pc}
 8002158:	20000008 	.word	0x20000008

0800215c <HAL_ADC_Init>:
  * @param  hadc pointer to a ADC_HandleTypeDef structure that contains
  *         the configuration information for the specified ADC.  
  * @retval HAL status
  */
HAL_StatusTypeDef HAL_ADC_Init(ADC_HandleTypeDef* hadc)
{
 800215c:	b580      	push	{r7, lr}
 800215e:	b084      	sub	sp, #16
 8002160:	af00      	add	r7, sp, #0
 8002162:	6078      	str	r0, [r7, #4]
  HAL_StatusTypeDef tmp_hal_status = HAL_OK;
 8002164:	2300      	movs	r3, #0
 8002166:	73fb      	strb	r3, [r7, #15]
  
  /* Check ADC handle */
  if(hadc == NULL)
 8002168:	687b      	ldr	r3, [r7, #4]
 800216a:	2b00      	cmp	r3, #0
 800216c:	d101      	bne.n	8002172 <HAL_ADC_Init+0x16>
  {
    return HAL_ERROR;
 800216e:	2301      	movs	r3, #1
 8002170:	e033      	b.n	80021da <HAL_ADC_Init+0x7e>
  if(hadc->Init.ExternalTrigConv != ADC_SOFTWARE_START)
  {
    assert_param(IS_ADC_EXT_TRIG_EDGE(hadc->Init.ExternalTrigConvEdge));
  }
  
  if(hadc->State == HAL_ADC_STATE_RESET)
 8002172:	687b      	ldr	r3, [r7, #4]
 8002174:	6c1b      	ldr	r3, [r3, #64]	; 0x40
 8002176:	2b00      	cmp	r3, #0
 8002178:	d109      	bne.n	800218e <HAL_ADC_Init+0x32>

    /* Init the low level hardware */
    hadc->MspInitCallback(hadc);
#else
    /* Init the low level hardware */
    HAL_ADC_MspInit(hadc);
 800217a:	6878      	ldr	r0, [r7, #4]
 800217c:	f7ff fc34 	bl	80019e8 <HAL_ADC_MspInit>
#endif /* USE_HAL_ADC_REGISTER_CALLBACKS */

    /* Initialize ADC error code */
    ADC_CLEAR_ERRORCODE(hadc);
 8002180:	687b      	ldr	r3, [r7, #4]
 8002182:	2200      	movs	r2, #0
 8002184:	645a      	str	r2, [r3, #68]	; 0x44
    
    /* Allocate lock resource and initialize it */
    hadc->Lock = HAL_UNLOCKED;
 8002186:	687b      	ldr	r3, [r7, #4]
 8002188:	2200      	movs	r2, #0
 800218a:	f883 203c 	strb.w	r2, [r3, #60]	; 0x3c
  }
  
  /* Configuration of ADC parameters if previous preliminary actions are      */ 
  /* correctly completed.                                                     */
  if (HAL_IS_BIT_CLR(hadc->State, HAL_ADC_STATE_ERROR_INTERNAL))
 800218e:	687b      	ldr	r3, [r7, #4]
 8002190:	6c1b      	ldr	r3, [r3, #64]	; 0x40
 8002192:	f003 0310 	and.w	r3, r3, #16
 8002196:	2b00      	cmp	r3, #0
 8002198:	d118      	bne.n	80021cc <HAL_ADC_Init+0x70>
  {
    /* Set ADC state */
    ADC_STATE_CLR_SET(hadc->State,
 800219a:	687b      	ldr	r3, [r7, #4]
 800219c:	6c1b      	ldr	r3, [r3, #64]	; 0x40
 800219e:	f423 5388 	bic.w	r3, r3, #4352	; 0x1100
 80021a2:	f023 0302 	bic.w	r3, r3, #2
 80021a6:	f043 0202 	orr.w	r2, r3, #2
 80021aa:	687b      	ldr	r3, [r7, #4]
 80021ac:	641a      	str	r2, [r3, #64]	; 0x40
                      HAL_ADC_STATE_REG_BUSY | HAL_ADC_STATE_INJ_BUSY,
                      HAL_ADC_STATE_BUSY_INTERNAL);
    
    /* Set ADC parameters */
    ADC_Init(hadc);
 80021ae:	6878      	ldr	r0, [r7, #4]
 80021b0:	f000 fa40 	bl	8002634 <ADC_Init>
    
    /* Set ADC error code to none */
    ADC_CLEAR_ERRORCODE(hadc);
 80021b4:	687b      	ldr	r3, [r7, #4]
 80021b6:	2200      	movs	r2, #0
 80021b8:	645a      	str	r2, [r3, #68]	; 0x44
    
    /* Set the ADC state */
    ADC_STATE_CLR_SET(hadc->State,
 80021ba:	687b      	ldr	r3, [r7, #4]
 80021bc:	6c1b      	ldr	r3, [r3, #64]	; 0x40
 80021be:	f023 0303 	bic.w	r3, r3, #3
 80021c2:	f043 0201 	orr.w	r2, r3, #1
 80021c6:	687b      	ldr	r3, [r7, #4]
 80021c8:	641a      	str	r2, [r3, #64]	; 0x40
 80021ca:	e001      	b.n	80021d0 <HAL_ADC_Init+0x74>
                      HAL_ADC_STATE_BUSY_INTERNAL,
                      HAL_ADC_STATE_READY);
  }
  else
  {
    tmp_hal_status = HAL_ERROR;
 80021cc:	2301      	movs	r3, #1
 80021ce:	73fb      	strb	r3, [r7, #15]
  }
  
  /* Release Lock */
  __HAL_UNLOCK(hadc);
 80021d0:	687b      	ldr	r3, [r7, #4]
 80021d2:	2200      	movs	r2, #0
 80021d4:	f883 203c 	strb.w	r2, [r3, #60]	; 0x3c

  /* Return function status */
  return tmp_hal_status;
 80021d8:	7bfb      	ldrb	r3, [r7, #15]
}
 80021da:	4618      	mov	r0, r3
 80021dc:	3710      	adds	r7, #16
 80021de:	46bd      	mov	sp, r7
 80021e0:	bd80      	pop	{r7, pc}
	...

080021e4 <HAL_ADC_Start_DMA>:
  * @param  pData The destination Buffer address.
  * @param  Length The length of data to be transferred from ADC peripheral to memory.
  * @retval HAL status
  */
HAL_StatusTypeDef HAL_ADC_Start_DMA(ADC_HandleTypeDef* hadc, uint32_t* pData, uint32_t Length)
{
 80021e4:	b580      	push	{r7, lr}
 80021e6:	b086      	sub	sp, #24
 80021e8:	af00      	add	r7, sp, #0
 80021ea:	60f8      	str	r0, [r7, #12]
 80021ec:	60b9      	str	r1, [r7, #8]
 80021ee:	607a      	str	r2, [r7, #4]
  __IO uint32_t counter = 0U;
 80021f0:	2300      	movs	r3, #0
 80021f2:	613b      	str	r3, [r7, #16]
  /* Check the parameters */
  assert_param(IS_FUNCTIONAL_STATE(hadc->Init.ContinuousConvMode));
  assert_param(IS_ADC_EXT_TRIG_EDGE(hadc->Init.ExternalTrigConvEdge)); 
  
  /* Process locked */
  __HAL_LOCK(hadc);
 80021f4:	68fb      	ldr	r3, [r7, #12]
 80021f6:	f893 303c 	ldrb.w	r3, [r3, #60]	; 0x3c
 80021fa:	2b01      	cmp	r3, #1
 80021fc:	d101      	bne.n	8002202 <HAL_ADC_Start_DMA+0x1e>
 80021fe:	2302      	movs	r3, #2
 8002200:	e0cc      	b.n	800239c <HAL_ADC_Start_DMA+0x1b8>
 8002202:	68fb      	ldr	r3, [r7, #12]
 8002204:	2201      	movs	r2, #1
 8002206:	f883 203c 	strb.w	r2, [r3, #60]	; 0x3c
  
  /* Enable the ADC peripheral */
  /* Check if ADC peripheral is disabled in order to enable it and wait during 
  Tstab time the ADC's stabilization */
  if((hadc->Instance->CR2 & ADC_CR2_ADON) != ADC_CR2_ADON)
 800220a:	68fb      	ldr	r3, [r7, #12]
 800220c:	681b      	ldr	r3, [r3, #0]
 800220e:	689b      	ldr	r3, [r3, #8]
 8002210:	f003 0301 	and.w	r3, r3, #1
 8002214:	2b01      	cmp	r3, #1
 8002216:	d018      	beq.n	800224a <HAL_ADC_Start_DMA+0x66>
  {  
    /* Enable the Peripheral */
    __HAL_ADC_ENABLE(hadc);
 8002218:	68fb      	ldr	r3, [r7, #12]
 800221a:	681b      	ldr	r3, [r3, #0]
 800221c:	689a      	ldr	r2, [r3, #8]
 800221e:	68fb      	ldr	r3, [r7, #12]
 8002220:	681b      	ldr	r3, [r3, #0]
 8002222:	f042 0201 	orr.w	r2, r2, #1
 8002226:	609a      	str	r2, [r3, #8]
    
    /* Delay for ADC stabilization time */
    /* Compute number of CPU cycles to wait for */
    counter = (ADC_STAB_DELAY_US * (SystemCoreClock / 1000000U));
 8002228:	4b5e      	ldr	r3, [pc, #376]	; (80023a4 <HAL_ADC_Start_DMA+0x1c0>)
 800222a:	681b      	ldr	r3, [r3, #0]
 800222c:	4a5e      	ldr	r2, [pc, #376]	; (80023a8 <HAL_ADC_Start_DMA+0x1c4>)
 800222e:	fba2 2303 	umull	r2, r3, r2, r3
 8002232:	0c9a      	lsrs	r2, r3, #18
 8002234:	4613      	mov	r3, r2
 8002236:	005b      	lsls	r3, r3, #1
 8002238:	4413      	add	r3, r2
 800223a:	613b      	str	r3, [r7, #16]
    while(counter != 0U)
 800223c:	e002      	b.n	8002244 <HAL_ADC_Start_DMA+0x60>
    {
      counter--;
 800223e:	693b      	ldr	r3, [r7, #16]
 8002240:	3b01      	subs	r3, #1
 8002242:	613b      	str	r3, [r7, #16]
    while(counter != 0U)
 8002244:	693b      	ldr	r3, [r7, #16]
 8002246:	2b00      	cmp	r3, #0
 8002248:	d1f9      	bne.n	800223e <HAL_ADC_Start_DMA+0x5a>
    }
  }
  
  /* Start conversion if ADC is effectively enabled */
  if(HAL_IS_BIT_SET(hadc->Instance->CR2, ADC_CR2_ADON))
 800224a:	68fb      	ldr	r3, [r7, #12]
 800224c:	681b      	ldr	r3, [r3, #0]
 800224e:	689b      	ldr	r3, [r3, #8]
 8002250:	f003 0301 	and.w	r3, r3, #1
 8002254:	2b01      	cmp	r3, #1
 8002256:	f040 80a0 	bne.w	800239a <HAL_ADC_Start_DMA+0x1b6>
  {
    /* Set ADC state                                                          */
    /* - Clear state bitfield related to regular group conversion results     */
    /* - Set state bitfield related to regular group operation                */
    ADC_STATE_CLR_SET(hadc->State,
 800225a:	68fb      	ldr	r3, [r7, #12]
 800225c:	6c1b      	ldr	r3, [r3, #64]	; 0x40
 800225e:	f423 63e0 	bic.w	r3, r3, #1792	; 0x700
 8002262:	f023 0301 	bic.w	r3, r3, #1
 8002266:	f443 7280 	orr.w	r2, r3, #256	; 0x100
 800226a:	68fb      	ldr	r3, [r7, #12]
 800226c:	641a      	str	r2, [r3, #64]	; 0x40
                      HAL_ADC_STATE_READY | HAL_ADC_STATE_REG_EOC | HAL_ADC_STATE_REG_OVR,
                      HAL_ADC_STATE_REG_BUSY);
    
    /* If conversions on group regular are also triggering group injected,    */
    /* update ADC state.                                                      */
    if (READ_BIT(hadc->Instance->CR1, ADC_CR1_JAUTO) != RESET)
 800226e:	68fb      	ldr	r3, [r7, #12]
 8002270:	681b      	ldr	r3, [r3, #0]
 8002272:	685b      	ldr	r3, [r3, #4]
 8002274:	f403 6380 	and.w	r3, r3, #1024	; 0x400
 8002278:	2b00      	cmp	r3, #0
 800227a:	d007      	beq.n	800228c <HAL_ADC_Start_DMA+0xa8>
    {
      ADC_STATE_CLR_SET(hadc->State, HAL_ADC_STATE_INJ_EOC, HAL_ADC_STATE_INJ_BUSY);  
 800227c:	68fb      	ldr	r3, [r7, #12]
 800227e:	6c1b      	ldr	r3, [r3, #64]	; 0x40
 8002280:	f423 5340 	bic.w	r3, r3, #12288	; 0x3000
 8002284:	f443 5280 	orr.w	r2, r3, #4096	; 0x1000
 8002288:	68fb      	ldr	r3, [r7, #12]
 800228a:	641a      	str	r2, [r3, #64]	; 0x40
    }
    
    /* State machine update: Check if an injected conversion is ongoing */
    if (HAL_IS_BIT_SET(hadc->State, HAL_ADC_STATE_INJ_BUSY))
 800228c:	68fb      	ldr	r3, [r7, #12]
 800228e:	6c1b      	ldr	r3, [r3, #64]	; 0x40
 8002290:	f403 5380 	and.w	r3, r3, #4096	; 0x1000
 8002294:	f5b3 5f80 	cmp.w	r3, #4096	; 0x1000
 8002298:	d106      	bne.n	80022a8 <HAL_ADC_Start_DMA+0xc4>
    {
      /* Reset ADC error code fields related to conversions on group regular */
      CLEAR_BIT(hadc->ErrorCode, (HAL_ADC_ERROR_OVR | HAL_ADC_ERROR_DMA));         
 800229a:	68fb      	ldr	r3, [r7, #12]
 800229c:	6c5b      	ldr	r3, [r3, #68]	; 0x44
 800229e:	f023 0206 	bic.w	r2, r3, #6
 80022a2:	68fb      	ldr	r3, [r7, #12]
 80022a4:	645a      	str	r2, [r3, #68]	; 0x44
 80022a6:	e002      	b.n	80022ae <HAL_ADC_Start_DMA+0xca>
    }
    else
    {
      /* Reset ADC all error code fields */
      ADC_CLEAR_ERRORCODE(hadc);
 80022a8:	68fb      	ldr	r3, [r7, #12]
 80022aa:	2200      	movs	r2, #0
 80022ac:	645a      	str	r2, [r3, #68]	; 0x44
    }

    /* Process unlocked */
    /* Unlock before starting ADC conversions: in case of potential           */
    /* interruption, to let the process to ADC IRQ Handler.                   */
    __HAL_UNLOCK(hadc);   
 80022ae:	68fb      	ldr	r3, [r7, #12]
 80022b0:	2200      	movs	r2, #0
 80022b2:	f883 203c 	strb.w	r2, [r3, #60]	; 0x3c

    /* Pointer to the common control register to which is belonging hadc    */
    /* (Depending on STM32F4 product, there may be up to 3 ADCs and 1 common */
    /* control register)                                                    */
    tmpADC_Common = ADC_COMMON_REGISTER(hadc);
 80022b6:	4b3d      	ldr	r3, [pc, #244]	; (80023ac <HAL_ADC_Start_DMA+0x1c8>)
 80022b8:	617b      	str	r3, [r7, #20]

    /* Set the DMA transfer complete callback */
    hadc->DMA_Handle->XferCpltCallback = ADC_DMAConvCplt;
 80022ba:	68fb      	ldr	r3, [r7, #12]
 80022bc:	6b9b      	ldr	r3, [r3, #56]	; 0x38
 80022be:	4a3c      	ldr	r2, [pc, #240]	; (80023b0 <HAL_ADC_Start_DMA+0x1cc>)
 80022c0:	63da      	str	r2, [r3, #60]	; 0x3c

    /* Set the DMA half transfer complete callback */
    hadc->DMA_Handle->XferHalfCpltCallback = ADC_DMAHalfConvCplt;
 80022c2:	68fb      	ldr	r3, [r7, #12]
 80022c4:	6b9b      	ldr	r3, [r3, #56]	; 0x38
 80022c6:	4a3b      	ldr	r2, [pc, #236]	; (80023b4 <HAL_ADC_Start_DMA+0x1d0>)
 80022c8:	641a      	str	r2, [r3, #64]	; 0x40
    
    /* Set the DMA error callback */
    hadc->DMA_Handle->XferErrorCallback = ADC_DMAError;
 80022ca:	68fb      	ldr	r3, [r7, #12]
 80022cc:	6b9b      	ldr	r3, [r3, #56]	; 0x38
 80022ce:	4a3a      	ldr	r2, [pc, #232]	; (80023b8 <HAL_ADC_Start_DMA+0x1d4>)
 80022d0:	64da      	str	r2, [r3, #76]	; 0x4c
    /* Manage ADC and DMA start: ADC overrun interruption, DMA start, ADC     */
    /* start (in case of SW start):                                           */
    
    /* Clear regular group conversion flag and overrun flag */
    /* (To ensure of no unknown state from potential previous ADC operations) */
    __HAL_ADC_CLEAR_FLAG(hadc, ADC_FLAG_EOC | ADC_FLAG_OVR);
 80022d2:	68fb      	ldr	r3, [r7, #12]
 80022d4:	681b      	ldr	r3, [r3, #0]
 80022d6:	f06f 0222 	mvn.w	r2, #34	; 0x22
 80022da:	601a      	str	r2, [r3, #0]

    /* Enable ADC overrun interrupt */
    __HAL_ADC_ENABLE_IT(hadc, ADC_IT_OVR);
 80022dc:	68fb      	ldr	r3, [r7, #12]
 80022de:	681b      	ldr	r3, [r3, #0]
 80022e0:	685a      	ldr	r2, [r3, #4]
 80022e2:	68fb      	ldr	r3, [r7, #12]
 80022e4:	681b      	ldr	r3, [r3, #0]
 80022e6:	f042 6280 	orr.w	r2, r2, #67108864	; 0x4000000
 80022ea:	605a      	str	r2, [r3, #4]
    
    /* Enable ADC DMA mode */
    hadc->Instance->CR2 |= ADC_CR2_DMA;
 80022ec:	68fb      	ldr	r3, [r7, #12]
 80022ee:	681b      	ldr	r3, [r3, #0]
 80022f0:	689a      	ldr	r2, [r3, #8]
 80022f2:	68fb      	ldr	r3, [r7, #12]
 80022f4:	681b      	ldr	r3, [r3, #0]
 80022f6:	f442 7280 	orr.w	r2, r2, #256	; 0x100
 80022fa:	609a      	str	r2, [r3, #8]
    
    /* Start the DMA channel */
    HAL_DMA_Start_IT(hadc->DMA_Handle, (uint32_t)&hadc->Instance->DR, (uint32_t)pData, Length);
 80022fc:	68fb      	ldr	r3, [r7, #12]
 80022fe:	6b98      	ldr	r0, [r3, #56]	; 0x38
 8002300:	68fb      	ldr	r3, [r7, #12]
 8002302:	681b      	ldr	r3, [r3, #0]
 8002304:	334c      	adds	r3, #76	; 0x4c
 8002306:	4619      	mov	r1, r3
 8002308:	68ba      	ldr	r2, [r7, #8]
 800230a:	687b      	ldr	r3, [r7, #4]
 800230c:	f000 fcd0 	bl	8002cb0 <HAL_DMA_Start_IT>
    
    /* Check if Multimode enabled */
    if(HAL_IS_BIT_CLR(tmpADC_Common->CCR, ADC_CCR_MULTI))
 8002310:	697b      	ldr	r3, [r7, #20]
 8002312:	685b      	ldr	r3, [r3, #4]
 8002314:	f003 031f 	and.w	r3, r3, #31
 8002318:	2b00      	cmp	r3, #0
 800231a:	d12a      	bne.n	8002372 <HAL_ADC_Start_DMA+0x18e>
    {
#if defined(ADC2) && defined(ADC3)
      if((hadc->Instance == ADC1) || ((hadc->Instance == ADC2) && ((ADC->CCR & ADC_CCR_MULTI_Msk) < ADC_CCR_MULTI_0)) \
 800231c:	68fb      	ldr	r3, [r7, #12]
 800231e:	681b      	ldr	r3, [r3, #0]
 8002320:	4a26      	ldr	r2, [pc, #152]	; (80023bc <HAL_ADC_Start_DMA+0x1d8>)
 8002322:	4293      	cmp	r3, r2
 8002324:	d015      	beq.n	8002352 <HAL_ADC_Start_DMA+0x16e>
 8002326:	68fb      	ldr	r3, [r7, #12]
 8002328:	681b      	ldr	r3, [r3, #0]
 800232a:	4a25      	ldr	r2, [pc, #148]	; (80023c0 <HAL_ADC_Start_DMA+0x1dc>)
 800232c:	4293      	cmp	r3, r2
 800232e:	d105      	bne.n	800233c <HAL_ADC_Start_DMA+0x158>
 8002330:	4b1e      	ldr	r3, [pc, #120]	; (80023ac <HAL_ADC_Start_DMA+0x1c8>)
 8002332:	685b      	ldr	r3, [r3, #4]
 8002334:	f003 031f 	and.w	r3, r3, #31
 8002338:	2b00      	cmp	r3, #0
 800233a:	d00a      	beq.n	8002352 <HAL_ADC_Start_DMA+0x16e>
                                  || ((hadc->Instance == ADC3) && ((ADC->CCR & ADC_CCR_MULTI_Msk) < ADC_CCR_MULTI_4)))
 800233c:	68fb      	ldr	r3, [r7, #12]
 800233e:	681b      	ldr	r3, [r3, #0]
 8002340:	4a20      	ldr	r2, [pc, #128]	; (80023c4 <HAL_ADC_Start_DMA+0x1e0>)
 8002342:	4293      	cmp	r3, r2
 8002344:	d129      	bne.n	800239a <HAL_ADC_Start_DMA+0x1b6>
 8002346:	4b19      	ldr	r3, [pc, #100]	; (80023ac <HAL_ADC_Start_DMA+0x1c8>)
 8002348:	685b      	ldr	r3, [r3, #4]
 800234a:	f003 031f 	and.w	r3, r3, #31
 800234e:	2b0f      	cmp	r3, #15
 8002350:	d823      	bhi.n	800239a <HAL_ADC_Start_DMA+0x1b6>
      {
#endif /* ADC2 || ADC3 */
        /* if no external trigger present enable software conversion of regular channels */
        if((hadc->Instance->CR2 & ADC_CR2_EXTEN) == RESET) 
 8002352:	68fb      	ldr	r3, [r7, #12]
 8002354:	681b      	ldr	r3, [r3, #0]
 8002356:	689b      	ldr	r3, [r3, #8]
 8002358:	f003 5340 	and.w	r3, r3, #805306368	; 0x30000000
 800235c:	2b00      	cmp	r3, #0
 800235e:	d11c      	bne.n	800239a <HAL_ADC_Start_DMA+0x1b6>
        {
          /* Enable the selected ADC software conversion for regular group */
          hadc->Instance->CR2 |= (uint32_t)ADC_CR2_SWSTART;
 8002360:	68fb      	ldr	r3, [r7, #12]
 8002362:	681b      	ldr	r3, [r3, #0]
 8002364:	689a      	ldr	r2, [r3, #8]
 8002366:	68fb      	ldr	r3, [r7, #12]
 8002368:	681b      	ldr	r3, [r3, #0]
 800236a:	f042 4280 	orr.w	r2, r2, #1073741824	; 0x40000000
 800236e:	609a      	str	r2, [r3, #8]
 8002370:	e013      	b.n	800239a <HAL_ADC_Start_DMA+0x1b6>
#endif /* ADC2 || ADC3 */
    }
    else
    {
      /* if instance of handle correspond to ADC1 and  no external trigger present enable software conversion of regular channels */
      if((hadc->Instance == ADC1) && ((hadc->Instance->CR2 & ADC_CR2_EXTEN) == RESET))
 8002372:	68fb      	ldr	r3, [r7, #12]
 8002374:	681b      	ldr	r3, [r3, #0]
 8002376:	4a11      	ldr	r2, [pc, #68]	; (80023bc <HAL_ADC_Start_DMA+0x1d8>)
 8002378:	4293      	cmp	r3, r2
 800237a:	d10e      	bne.n	800239a <HAL_ADC_Start_DMA+0x1b6>
 800237c:	68fb      	ldr	r3, [r7, #12]
 800237e:	681b      	ldr	r3, [r3, #0]
 8002380:	689b      	ldr	r3, [r3, #8]
 8002382:	f003 5340 	and.w	r3, r3, #805306368	; 0x30000000
 8002386:	2b00      	cmp	r3, #0
 8002388:	d107      	bne.n	800239a <HAL_ADC_Start_DMA+0x1b6>
      {
        /* Enable the selected ADC software conversion for regular group */
          hadc->Instance->CR2 |= (uint32_t)ADC_CR2_SWSTART;
 800238a:	68fb      	ldr	r3, [r7, #12]
 800238c:	681b      	ldr	r3, [r3, #0]
 800238e:	689a      	ldr	r2, [r3, #8]
 8002390:	68fb      	ldr	r3, [r7, #12]
 8002392:	681b      	ldr	r3, [r3, #0]
 8002394:	f042 4280 	orr.w	r2, r2, #1073741824	; 0x40000000
 8002398:	609a      	str	r2, [r3, #8]
      }
    }
  }
  
  /* Return function status */
  return HAL_OK;
 800239a:	2300      	movs	r3, #0
}
 800239c:	4618      	mov	r0, r3
 800239e:	3718      	adds	r7, #24
 80023a0:	46bd      	mov	sp, r7
 80023a2:	bd80      	pop	{r7, pc}
 80023a4:	20000000 	.word	0x20000000
 80023a8:	431bde83 	.word	0x431bde83
 80023ac:	40012300 	.word	0x40012300
 80023b0:	0800282d 	.word	0x0800282d
 80023b4:	080028e7 	.word	0x080028e7
 80023b8:	08002903 	.word	0x08002903
 80023bc:	40012000 	.word	0x40012000
 80023c0:	40012100 	.word	0x40012100
 80023c4:	40012200 	.word	0x40012200

080023c8 <HAL_ADC_ConvHalfCpltCallback>:
  * @param  hadc pointer to a ADC_HandleTypeDef structure that contains
  *         the configuration information for the specified ADC.
  * @retval None
  */
__weak void HAL_ADC_ConvHalfCpltCallback(ADC_HandleTypeDef* hadc)
{
 80023c8:	b480      	push	{r7}
 80023ca:	b083      	sub	sp, #12
 80023cc:	af00      	add	r7, sp, #0
 80023ce:	6078      	str	r0, [r7, #4]
  /* Prevent unused argument(s) compilation warning */
  UNUSED(hadc);
  /* NOTE : This function Should not be modified, when the callback is needed,
            the HAL_ADC_ConvHalfCpltCallback could be implemented in the user file
   */
}
 80023d0:	bf00      	nop
 80023d2:	370c      	adds	r7, #12
 80023d4:	46bd      	mov	sp, r7
 80023d6:	f85d 7b04 	ldr.w	r7, [sp], #4
 80023da:	4770      	bx	lr

080023dc <HAL_ADC_ErrorCallback>:
  * @param  hadc pointer to a ADC_HandleTypeDef structure that contains
  *         the configuration information for the specified ADC.
  * @retval None
  */
__weak void HAL_ADC_ErrorCallback(ADC_HandleTypeDef *hadc)
{
 80023dc:	b480      	push	{r7}
 80023de:	b083      	sub	sp, #12
 80023e0:	af00      	add	r7, sp, #0
 80023e2:	6078      	str	r0, [r7, #4]
  /* Prevent unused argument(s) compilation warning */
  UNUSED(hadc);
  /* NOTE : This function Should not be modified, when the callback is needed,
            the HAL_ADC_ErrorCallback could be implemented in the user file
   */
}
 80023e4:	bf00      	nop
 80023e6:	370c      	adds	r7, #12
 80023e8:	46bd      	mov	sp, r7
 80023ea:	f85d 7b04 	ldr.w	r7, [sp], #4
 80023ee:	4770      	bx	lr

080023f0 <HAL_ADC_ConfigChannel>:
  *         the configuration information for the specified ADC.
  * @param  sConfig ADC configuration structure. 
  * @retval HAL status
  */
HAL_StatusTypeDef HAL_ADC_ConfigChannel(ADC_HandleTypeDef* hadc, ADC_ChannelConfTypeDef* sConfig)
{
 80023f0:	b480      	push	{r7}
 80023f2:	b085      	sub	sp, #20
 80023f4:	af00      	add	r7, sp, #0
 80023f6:	6078      	str	r0, [r7, #4]
 80023f8:	6039      	str	r1, [r7, #0]
  __IO uint32_t counter = 0U;
 80023fa:	2300      	movs	r3, #0
 80023fc:	60bb      	str	r3, [r7, #8]
  assert_param(IS_ADC_CHANNEL(sConfig->Channel));
  assert_param(IS_ADC_REGULAR_RANK(sConfig->Rank));
  assert_param(IS_ADC_SAMPLE_TIME(sConfig->SamplingTime));
  
  /* Process locked */
  __HAL_LOCK(hadc);
 80023fe:	687b      	ldr	r3, [r7, #4]
 8002400:	f893 303c 	ldrb.w	r3, [r3, #60]	; 0x3c
 8002404:	2b01      	cmp	r3, #1
 8002406:	d101      	bne.n	800240c <HAL_ADC_ConfigChannel+0x1c>
 8002408:	2302      	movs	r3, #2
 800240a:	e105      	b.n	8002618 <HAL_ADC_ConfigChannel+0x228>
 800240c:	687b      	ldr	r3, [r7, #4]
 800240e:	2201      	movs	r2, #1
 8002410:	f883 203c 	strb.w	r2, [r3, #60]	; 0x3c
    
  /* if ADC_Channel_10 ... ADC_Channel_18 is selected */
  if (sConfig->Channel > ADC_CHANNEL_9)
 8002414:	683b      	ldr	r3, [r7, #0]
 8002416:	681b      	ldr	r3, [r3, #0]
 8002418:	2b09      	cmp	r3, #9
 800241a:	d925      	bls.n	8002468 <HAL_ADC_ConfigChannel+0x78>
  {
    /* Clear the old sample time */
    hadc->Instance->SMPR1 &= ~ADC_SMPR1(ADC_SMPR1_SMP10, sConfig->Channel);
 800241c:	687b      	ldr	r3, [r7, #4]
 800241e:	681b      	ldr	r3, [r3, #0]
 8002420:	68d9      	ldr	r1, [r3, #12]
 8002422:	683b      	ldr	r3, [r7, #0]
 8002424:	681b      	ldr	r3, [r3, #0]
 8002426:	b29b      	uxth	r3, r3
 8002428:	461a      	mov	r2, r3
 800242a:	4613      	mov	r3, r2
 800242c:	005b      	lsls	r3, r3, #1
 800242e:	4413      	add	r3, r2
 8002430:	3b1e      	subs	r3, #30
 8002432:	2207      	movs	r2, #7
 8002434:	fa02 f303 	lsl.w	r3, r2, r3
 8002438:	43da      	mvns	r2, r3
 800243a:	687b      	ldr	r3, [r7, #4]
 800243c:	681b      	ldr	r3, [r3, #0]
 800243e:	400a      	ands	r2, r1
 8002440:	60da      	str	r2, [r3, #12]
    
    /* Set the new sample time */
    hadc->Instance->SMPR1 |= ADC_SMPR1(sConfig->SamplingTime, sConfig->Channel);
 8002442:	687b      	ldr	r3, [r7, #4]
 8002444:	681b      	ldr	r3, [r3, #0]
 8002446:	68d9      	ldr	r1, [r3, #12]
 8002448:	683b      	ldr	r3, [r7, #0]
 800244a:	689a      	ldr	r2, [r3, #8]
 800244c:	683b      	ldr	r3, [r7, #0]
 800244e:	681b      	ldr	r3, [r3, #0]
 8002450:	b29b      	uxth	r3, r3
 8002452:	4618      	mov	r0, r3
 8002454:	4603      	mov	r3, r0
 8002456:	005b      	lsls	r3, r3, #1
 8002458:	4403      	add	r3, r0
 800245a:	3b1e      	subs	r3, #30
 800245c:	409a      	lsls	r2, r3
 800245e:	687b      	ldr	r3, [r7, #4]
 8002460:	681b      	ldr	r3, [r3, #0]
 8002462:	430a      	orrs	r2, r1
 8002464:	60da      	str	r2, [r3, #12]
 8002466:	e022      	b.n	80024ae <HAL_ADC_ConfigChannel+0xbe>
  }
  else /* ADC_Channel include in ADC_Channel_[0..9] */
  {
    /* Clear the old sample time */
    hadc->Instance->SMPR2 &= ~ADC_SMPR2(ADC_SMPR2_SMP0, sConfig->Channel);
 8002468:	687b      	ldr	r3, [r7, #4]
 800246a:	681b      	ldr	r3, [r3, #0]
 800246c:	6919      	ldr	r1, [r3, #16]
 800246e:	683b      	ldr	r3, [r7, #0]
 8002470:	681b      	ldr	r3, [r3, #0]
 8002472:	b29b      	uxth	r3, r3
 8002474:	461a      	mov	r2, r3
 8002476:	4613      	mov	r3, r2
 8002478:	005b      	lsls	r3, r3, #1
 800247a:	4413      	add	r3, r2
 800247c:	2207      	movs	r2, #7
 800247e:	fa02 f303 	lsl.w	r3, r2, r3
 8002482:	43da      	mvns	r2, r3
 8002484:	687b      	ldr	r3, [r7, #4]
 8002486:	681b      	ldr	r3, [r3, #0]
 8002488:	400a      	ands	r2, r1
 800248a:	611a      	str	r2, [r3, #16]
    
    /* Set the new sample time */
    hadc->Instance->SMPR2 |= ADC_SMPR2(sConfig->SamplingTime, sConfig->Channel);
 800248c:	687b      	ldr	r3, [r7, #4]
 800248e:	681b      	ldr	r3, [r3, #0]
 8002490:	6919      	ldr	r1, [r3, #16]
 8002492:	683b      	ldr	r3, [r7, #0]
 8002494:	689a      	ldr	r2, [r3, #8]
 8002496:	683b      	ldr	r3, [r7, #0]
 8002498:	681b      	ldr	r3, [r3, #0]
 800249a:	b29b      	uxth	r3, r3
 800249c:	4618      	mov	r0, r3
 800249e:	4603      	mov	r3, r0
 80024a0:	005b      	lsls	r3, r3, #1
 80024a2:	4403      	add	r3, r0
 80024a4:	409a      	lsls	r2, r3
 80024a6:	687b      	ldr	r3, [r7, #4]
 80024a8:	681b      	ldr	r3, [r3, #0]
 80024aa:	430a      	orrs	r2, r1
 80024ac:	611a      	str	r2, [r3, #16]
  }
  
  /* For Rank 1 to 6 */
  if (sConfig->Rank < 7U)
 80024ae:	683b      	ldr	r3, [r7, #0]
 80024b0:	685b      	ldr	r3, [r3, #4]
 80024b2:	2b06      	cmp	r3, #6
 80024b4:	d824      	bhi.n	8002500 <HAL_ADC_ConfigChannel+0x110>
  {
    /* Clear the old SQx bits for the selected rank */
    hadc->Instance->SQR3 &= ~ADC_SQR3_RK(ADC_SQR3_SQ1, sConfig->Rank);
 80024b6:	687b      	ldr	r3, [r7, #4]
 80024b8:	681b      	ldr	r3, [r3, #0]
 80024ba:	6b59      	ldr	r1, [r3, #52]	; 0x34
 80024bc:	683b      	ldr	r3, [r7, #0]
 80024be:	685a      	ldr	r2, [r3, #4]
 80024c0:	4613      	mov	r3, r2
 80024c2:	009b      	lsls	r3, r3, #2
 80024c4:	4413      	add	r3, r2
 80024c6:	3b05      	subs	r3, #5
 80024c8:	221f      	movs	r2, #31
 80024ca:	fa02 f303 	lsl.w	r3, r2, r3
 80024ce:	43da      	mvns	r2, r3
 80024d0:	687b      	ldr	r3, [r7, #4]
 80024d2:	681b      	ldr	r3, [r3, #0]
 80024d4:	400a      	ands	r2, r1
 80024d6:	635a      	str	r2, [r3, #52]	; 0x34
    
    /* Set the SQx bits for the selected rank */
    hadc->Instance->SQR3 |= ADC_SQR3_RK(sConfig->Channel, sConfig->Rank);
 80024d8:	687b      	ldr	r3, [r7, #4]
 80024da:	681b      	ldr	r3, [r3, #0]
 80024dc:	6b59      	ldr	r1, [r3, #52]	; 0x34
 80024de:	683b      	ldr	r3, [r7, #0]
 80024e0:	681b      	ldr	r3, [r3, #0]
 80024e2:	b29b      	uxth	r3, r3
 80024e4:	4618      	mov	r0, r3
 80024e6:	683b      	ldr	r3, [r7, #0]
 80024e8:	685a      	ldr	r2, [r3, #4]
 80024ea:	4613      	mov	r3, r2
 80024ec:	009b      	lsls	r3, r3, #2
 80024ee:	4413      	add	r3, r2
 80024f0:	3b05      	subs	r3, #5
 80024f2:	fa00 f203 	lsl.w	r2, r0, r3
 80024f6:	687b      	ldr	r3, [r7, #4]
 80024f8:	681b      	ldr	r3, [r3, #0]
 80024fa:	430a      	orrs	r2, r1
 80024fc:	635a      	str	r2, [r3, #52]	; 0x34
 80024fe:	e04c      	b.n	800259a <HAL_ADC_ConfigChannel+0x1aa>
  }
  /* For Rank 7 to 12 */
  else if (sConfig->Rank < 13U)
 8002500:	683b      	ldr	r3, [r7, #0]
 8002502:	685b      	ldr	r3, [r3, #4]
 8002504:	2b0c      	cmp	r3, #12
 8002506:	d824      	bhi.n	8002552 <HAL_ADC_ConfigChannel+0x162>
  {
    /* Clear the old SQx bits for the selected rank */
    hadc->Instance->SQR2 &= ~ADC_SQR2_RK(ADC_SQR2_SQ7, sConfig->Rank);
 8002508:	687b      	ldr	r3, [r7, #4]
 800250a:	681b      	ldr	r3, [r3, #0]
 800250c:	6b19      	ldr	r1, [r3, #48]	; 0x30
 800250e:	683b      	ldr	r3, [r7, #0]
 8002510:	685a      	ldr	r2, [r3, #4]
 8002512:	4613      	mov	r3, r2
 8002514:	009b      	lsls	r3, r3, #2
 8002516:	4413      	add	r3, r2
 8002518:	3b23      	subs	r3, #35	; 0x23
 800251a:	221f      	movs	r2, #31
 800251c:	fa02 f303 	lsl.w	r3, r2, r3
 8002520:	43da      	mvns	r2, r3
 8002522:	687b      	ldr	r3, [r7, #4]
 8002524:	681b      	ldr	r3, [r3, #0]
 8002526:	400a      	ands	r2, r1
 8002528:	631a      	str	r2, [r3, #48]	; 0x30
    
    /* Set the SQx bits for the selected rank */
    hadc->Instance->SQR2 |= ADC_SQR2_RK(sConfig->Channel, sConfig->Rank);
 800252a:	687b      	ldr	r3, [r7, #4]
 800252c:	681b      	ldr	r3, [r3, #0]
 800252e:	6b19      	ldr	r1, [r3, #48]	; 0x30
 8002530:	683b      	ldr	r3, [r7, #0]
 8002532:	681b      	ldr	r3, [r3, #0]
 8002534:	b29b      	uxth	r3, r3
 8002536:	4618      	mov	r0, r3
 8002538:	683b      	ldr	r3, [r7, #0]
 800253a:	685a      	ldr	r2, [r3, #4]
 800253c:	4613      	mov	r3, r2
 800253e:	009b      	lsls	r3, r3, #2
 8002540:	4413      	add	r3, r2
 8002542:	3b23      	subs	r3, #35	; 0x23
 8002544:	fa00 f203 	lsl.w	r2, r0, r3
 8002548:	687b      	ldr	r3, [r7, #4]
 800254a:	681b      	ldr	r3, [r3, #0]
 800254c:	430a      	orrs	r2, r1
 800254e:	631a      	str	r2, [r3, #48]	; 0x30
 8002550:	e023      	b.n	800259a <HAL_ADC_ConfigChannel+0x1aa>
  }
  /* For Rank 13 to 16 */
  else
  {
    /* Clear the old SQx bits for the selected rank */
    hadc->Instance->SQR1 &= ~ADC_SQR1_RK(ADC_SQR1_SQ13, sConfig->Rank);
 8002552:	687b      	ldr	r3, [r7, #4]
 8002554:	681b      	ldr	r3, [r3, #0]
 8002556:	6ad9      	ldr	r1, [r3, #44]	; 0x2c
 8002558:	683b      	ldr	r3, [r7, #0]
 800255a:	685a      	ldr	r2, [r3, #4]
 800255c:	4613      	mov	r3, r2
 800255e:	009b      	lsls	r3, r3, #2
 8002560:	4413      	add	r3, r2
 8002562:	3b41      	subs	r3, #65	; 0x41
 8002564:	221f      	movs	r2, #31
 8002566:	fa02 f303 	lsl.w	r3, r2, r3
 800256a:	43da      	mvns	r2, r3
 800256c:	687b      	ldr	r3, [r7, #4]
 800256e:	681b      	ldr	r3, [r3, #0]
 8002570:	400a      	ands	r2, r1
 8002572:	62da      	str	r2, [r3, #44]	; 0x2c
    
    /* Set the SQx bits for the selected rank */
    hadc->Instance->SQR1 |= ADC_SQR1_RK(sConfig->Channel, sConfig->Rank);
 8002574:	687b      	ldr	r3, [r7, #4]
 8002576:	681b      	ldr	r3, [r3, #0]
 8002578:	6ad9      	ldr	r1, [r3, #44]	; 0x2c
 800257a:	683b      	ldr	r3, [r7, #0]
 800257c:	681b      	ldr	r3, [r3, #0]
 800257e:	b29b      	uxth	r3, r3
 8002580:	4618      	mov	r0, r3
 8002582:	683b      	ldr	r3, [r7, #0]
 8002584:	685a      	ldr	r2, [r3, #4]
 8002586:	4613      	mov	r3, r2
 8002588:	009b      	lsls	r3, r3, #2
 800258a:	4413      	add	r3, r2
 800258c:	3b41      	subs	r3, #65	; 0x41
 800258e:	fa00 f203 	lsl.w	r2, r0, r3
 8002592:	687b      	ldr	r3, [r7, #4]
 8002594:	681b      	ldr	r3, [r3, #0]
 8002596:	430a      	orrs	r2, r1
 8002598:	62da      	str	r2, [r3, #44]	; 0x2c
  }

    /* Pointer to the common control register to which is belonging hadc    */
    /* (Depending on STM32F4 product, there may be up to 3 ADCs and 1 common */
    /* control register)                                                    */
    tmpADC_Common = ADC_COMMON_REGISTER(hadc);
 800259a:	4b22      	ldr	r3, [pc, #136]	; (8002624 <HAL_ADC_ConfigChannel+0x234>)
 800259c:	60fb      	str	r3, [r7, #12]

  /* if ADC1 Channel_18 is selected for VBAT Channel ennable VBATE */
  if ((hadc->Instance == ADC1) && (sConfig->Channel == ADC_CHANNEL_VBAT))
 800259e:	687b      	ldr	r3, [r7, #4]
 80025a0:	681b      	ldr	r3, [r3, #0]
 80025a2:	4a21      	ldr	r2, [pc, #132]	; (8002628 <HAL_ADC_ConfigChannel+0x238>)
 80025a4:	4293      	cmp	r3, r2
 80025a6:	d109      	bne.n	80025bc <HAL_ADC_ConfigChannel+0x1cc>
 80025a8:	683b      	ldr	r3, [r7, #0]
 80025aa:	681b      	ldr	r3, [r3, #0]
 80025ac:	2b12      	cmp	r3, #18
 80025ae:	d105      	bne.n	80025bc <HAL_ADC_ConfigChannel+0x1cc>
    if ((uint16_t)ADC_CHANNEL_TEMPSENSOR == (uint16_t)ADC_CHANNEL_VBAT)
    {
      tmpADC_Common->CCR &= ~ADC_CCR_TSVREFE;
    }
    /* Enable the VBAT channel*/
    tmpADC_Common->CCR |= ADC_CCR_VBATE;
 80025b0:	68fb      	ldr	r3, [r7, #12]
 80025b2:	685b      	ldr	r3, [r3, #4]
 80025b4:	f443 0280 	orr.w	r2, r3, #4194304	; 0x400000
 80025b8:	68fb      	ldr	r3, [r7, #12]
 80025ba:	605a      	str	r2, [r3, #4]
  }
  
  /* if ADC1 Channel_16 or Channel_18 is selected for Temperature sensor or 
     Channel_17 is selected for VREFINT enable TSVREFE */
  if ((hadc->Instance == ADC1) && ((sConfig->Channel == ADC_CHANNEL_TEMPSENSOR) || (sConfig->Channel == ADC_CHANNEL_VREFINT)))
 80025bc:	687b      	ldr	r3, [r7, #4]
 80025be:	681b      	ldr	r3, [r3, #0]
 80025c0:	4a19      	ldr	r2, [pc, #100]	; (8002628 <HAL_ADC_ConfigChannel+0x238>)
 80025c2:	4293      	cmp	r3, r2
 80025c4:	d123      	bne.n	800260e <HAL_ADC_ConfigChannel+0x21e>
 80025c6:	683b      	ldr	r3, [r7, #0]
 80025c8:	681b      	ldr	r3, [r3, #0]
 80025ca:	2b10      	cmp	r3, #16
 80025cc:	d003      	beq.n	80025d6 <HAL_ADC_ConfigChannel+0x1e6>
 80025ce:	683b      	ldr	r3, [r7, #0]
 80025d0:	681b      	ldr	r3, [r3, #0]
 80025d2:	2b11      	cmp	r3, #17
 80025d4:	d11b      	bne.n	800260e <HAL_ADC_ConfigChannel+0x21e>
    if ((uint16_t)ADC_CHANNEL_TEMPSENSOR == (uint16_t)ADC_CHANNEL_VBAT)
    {
      tmpADC_Common->CCR &= ~ADC_CCR_VBATE;
    }
    /* Enable the Temperature sensor and VREFINT channel*/
    tmpADC_Common->CCR |= ADC_CCR_TSVREFE;
 80025d6:	68fb      	ldr	r3, [r7, #12]
 80025d8:	685b      	ldr	r3, [r3, #4]
 80025da:	f443 0200 	orr.w	r2, r3, #8388608	; 0x800000
 80025de:	68fb      	ldr	r3, [r7, #12]
 80025e0:	605a      	str	r2, [r3, #4]
    
    if((sConfig->Channel == ADC_CHANNEL_TEMPSENSOR))
 80025e2:	683b      	ldr	r3, [r7, #0]
 80025e4:	681b      	ldr	r3, [r3, #0]
 80025e6:	2b10      	cmp	r3, #16
 80025e8:	d111      	bne.n	800260e <HAL_ADC_ConfigChannel+0x21e>
    {
      /* Delay for temperature sensor stabilization time */
      /* Compute number of CPU cycles to wait for */
      counter = (ADC_TEMPSENSOR_DELAY_US * (SystemCoreClock / 1000000U));
 80025ea:	4b10      	ldr	r3, [pc, #64]	; (800262c <HAL_ADC_ConfigChannel+0x23c>)
 80025ec:	681b      	ldr	r3, [r3, #0]
 80025ee:	4a10      	ldr	r2, [pc, #64]	; (8002630 <HAL_ADC_ConfigChannel+0x240>)
